:020000040800F2
:10000000E02A0020FD010008213F00081D3C0008F7
:100010001D3F0008B90900089546000800000000CF
:100020000000000000000000000000001140000877
:10003000410B000800000000913F0008A5400008A7
:10004000170200081702000817020008170200082C
:10005000170200081702000817020008170200081C
:10006000170200081702000817020008170200080C
:1000700017020008170200081702000817020008FC
:10008000990A0008A90A00081702000817020008C8
:10009000BD090008CD090008170200081702000872
:1000A00017020008170200081702000817020008CC
:1000B00017020008170200081702000817020008BC
:1000C00017020008170200081702000817020008AC
:1000D000170200081702000817020008170200089C
:1000E00017020008170200081702000800000000AD
:1000F0000000000000000000000000000000000000
:1001000000000000000000001702000817020008AD
:1001100017020008170200081702000861410008D2
:10012000170200081702000817020008170200084B
:10013000170200080000000000000000170200087D
:10014000DD090008ED090008170200081702000881
:1001500000F002F800F043F80AA090E8000C824496
:100160008344AAF10107DA4501D100F038F8AFF273
:10017000090EBAE80F0013F0010F18BFFB1A43F085
:100180000103184770B6000090B60000103A24BF73
:1001900078C878C1FAD8520724BF30C830C144BFEC
:1001A00004680C607047000000230024002500262E
:1001B000103A28BF78C1FBD8520728BF30C148BFCA
:1001C0000B6070471FB59DE8030000F077FA00F060
:1001D0008BF91FBD10B5002000F021FB10BD00F011
:1001E0004EFB1146FFF7EEFF06F0C8FE00F06CFB79
:1001F00003B4FFF7EFFF03BC00F03AFB0948804768
:1002000009480047FEE7FEE7FEE7FEE7FEE7FEE7F8
:10021000FEE7FEE7FEE7FEE704480549054A064B10
:10022000704700005D41000851010008E0240020F3
:10023000E02A0020E0260020E026002070B50646D7
:1002400000F020FA056806F10B0020F00704B44224
:100250009CBF002070BD2B466A68BAB11068A042EE
:1002600010D304F1080188423CBF5068586007D39E
:100270005168101941601168091B016058601460D1
:10028000101D70BD13465268002AE7D1214628464A
:1002900000F000FA0028DED170BD53EA020C00F035
:1002A00069802DE9F04B4FF00006002B1FBFB3FA19
:1002B00083F503FA05F424FA05F65E4012BF1643EF
:1002C000B2FA82F502FA05F4C5F120051EBF22FA42
:1002D00005FC44EA0C04203556EA044C4FEA144469
:1002E00018BF641C4FF000084FF00009904271EBFA
:1002F000030C39D3002919BFB1FA81F701FA07F6C7
:10030000B0FA80F700FA07F6C7F120071EBF20FAFF
:1003100007FC46EA0C062037B6FBF4FCA7EB050702
:10032000103F07F01F0BCBF120062CFA06F60CFA53
:100330000BFB44BFB3460026202FA4BF5E464FF000
:10034000000B5BEA060C08BF4FF0010B19EB0B0921
:1003500048EB0608ABFB027C06FB02CC0BFB03CC94
:10036000C01B71EB0C01C1E70B46024641464846F3
:10037000BDE8F08B13B5084318BF4FF0FF300146BE
:10038000AFF30080BDE81C4070470B46014618469D
:1003900000F0FCB9032A40F2308010F0030C00F0AA
:1003A000158011F8013BBCF1020F624498BF11F8AF
:1003B00001CB00F8013B38BF11F8013BA2F1040268
:1003C00098BF00F801CB38BF00F8013B11F00303E0
:1003D00000F02580083AC0F0088051F8043B083A44
:1003E00051F804CBA0E80810F5E7121D5CBF51F8E6
:1003F000043B40F8043BAFF30080D20724BF11F860
:10040000013B11F801CB48BF11F8012B24BF00F8C4
:10041000013B00F801CB48BF00F8012B704710B535
:10042000203AC0F00B80B1E81850A0E81850B1E8AD
:100430001850A0E81850203ABFF4F5AF5FEA027CEC
:1004400024BFB1E81850A0E8185044BF18C918C01C
:10045000BDE810405FEA827C24BF51F8043B40F8BD
:10046000043B08BF7047D20728BF31F8023B48BFA2
:1004700011F8012B28BF20F8023B48BF00F8012BE0
:10048000704702F0FF0343EA032242EA024200F00F
:1004900002B84FF0000200B5134694469646203944
:1004A00022BFA0E80C50A0E80C50B1F12001BFF42D
:1004B000F7AF090728BFA0E80C5048BF0CC05DF893
:1004C00004EB890028BF40F8042B08BF704748BFE1
:1004D00020F8022B11F0804F18BF00F8012B704755
:1004E000704770477047000070B5064C7C44064D5D
:1004F0007D4404E02046016808448047241DAC4246
:10050000F8D170BD24B3000028B3000070B501F02D
:10051000004221F00041244C81EA410323424FF480
:10052000F84417D0A1F17C518B0AB1F5801F15DB7F
:1005300025058E0508D5CE0505D120B901F48060CA
:1005400015EB405000D45B1CA3422AD243EA124070
:1005500080B270BDCB021DD4100C70BD1623A3EB6E
:100560002153C90241F00044202B02D34FF0000177
:1005700001E024FA03F141EA124109D8C3F1200253
:10058000944005D5491C620002D108B921F001014F
:1005900088B270BD114308B9080302D04FF4FC4083
:1005A00070BD44EA124070BD0000E07F014600F0DB
:1005B000004290434FF4004202EA114280EA4001B7
:1005C00011F0FE4F13D0A0F16051B1F5000F1ADB0E
:1005D000480BC90404D5401C490001D120F001009A
:1005E0004FF4F841884200D3084610437047C10DCC
:1005F00004D0400204D04FF4FC40704710467047CE
:1006000042F4F84070471620A0EBE153080240F096
:10061000004121FA03F01043202BF3D8C3F120024C
:100620009140EFD5401C4900ECD120F0010070470B
:1006300000F5806330B4014613F4F04F4FEA0040F8
:1006400007D0C01001D5A0F1E04000F1605030BCEF
:1006500070475B050CD54300F9D000F000424FF61F
:10066000FF7030BC00EAC10002F14A520AF0C8BC77
:10067000810101D00248EAE740F06070E7E700003E
:100680000000C07F00487047180000207047704786
:100690007047704738B504460A4600206946AFF3F4
:1006A0000080002808BF38BD02460099204600F0AF
:1006B00091F8012038BD012000F0D2B8F8B5AFF3B1
:1006C0000080054600200C46102000BF0646A819F1
:1006D000A0420DD9324669460020AFF300800700E2
:1006E00008BF00F0BDF80098A04218BF0546C41925
:1006F000FFF7C8FF05600746F01D20F00700461908
:10070000284600F00AF8B44208BFF8BDA21B3146E3
:100710003868BDE8F84000F05DB800210160C0E92C
:10072000011070471020704770B50446051FFFF791
:10073000A9FF0068002C14BF446870BD002C18BFCE
:10074000AC423CBF20466468F8D301680A18AA424C
:1007500018BF456003D12A68054611440160286826
:100760004119A1421CBF6C6070BD6168696021685D
:100770000844286070BD10B500F028F8006810BD6E
:1007800010B5044600F022F8046010BD2DE9F041D8
:10079000074615460E461020FFF750FD04000AD00C
:1007A0006760C4E9026500F00DF80168216004602B
:1007B0000020BDE8F0810120FBE700000048704701
:1007C0001000002000487047480000200048704793
:1007D00010000020034640688C46002818BF88425D
:1007E0003CBF03464068F8D318681844884207D0D5
:1007F0000CF1030020F00700001D411A521A0146B7
:10080000081D0A60FFF790BF10B5002000F06AF8DD
:10081000FFF7E0FCBDE81040012000F029B82DE909
:10082000F0410646FFF7CEFF8046454613E016B17D
:10083000E068B0420ED120682860D4E90101D8F800
:10084000007088472046FFF76FFFD8F80000B842D5
:10085000EBD100E025462C68002CE8D1BDE8F08102
:1008600010B500F047F8BDE8104000F036B80000C1
:1008700001491820ABBEFEE726000200704775460E
:10088000FFF79CFFAE4605006946534620F007007F
:10089000854618B020B5FFF7BFFCBDE820404FF0FB
:1008A00000064FF000074FF000084FF0000BAC4679
:1008B000ACE8C009ACE8C009ACE8C009ACE8C009C4
:1008C00021F007018D46704710B50446AFF3008054
:1008D0002046BDE81040FFF78BBC002801D0FFF791
:1008E000C7BF704710B500F047F8BDE81040FFF7EC
:1008F000F4BF000010B5012805D0002103A000F0CE
:1009000021F8012010BD09A1F8E700005349475222
:10091000544D454D3A204F7574206F6620686561CF
:1009200070206D656D6F7279000000003A20486597
:100930006170206D656D6F727920636F7272757072
:100940007465640070B505460C460A2000E06D1C15
:1009500000F02AF835B128780028F8D102E0641CAC
:1009600000F022F814B120780028F8D1BDE87040DA
:100970000A2000F019B8000010B5002102A0FFF70E
:10098000E1FF012010BD0000534947414252543A53
:100990002041626E6F726D616C207465726D696E5C
:1009A0006174696F6E00000008B569468DF800003B
:1009B0000320ABBE08BD0000FFE7FEE780B540F6B0
:1009C000B800C2F2000000F0CFFA80BD80B540F65A
:1009D000B800C2F2000000F0C7FA80BD80B540F652
:1009E000E000C2F2000000F0BFFA80BD80B540F622
:1009F000E000C2F2000000F0B7FA80BD80B584B01C
:100A0000039002910398006846F20041C4F200018D
:100A1000884216D1FFE7039840F28801C2F2000134
:100A200008600298886203980023019319461A46C9
:100A300004F03EFA019B03980C211A4604F038FAA0
:100A400018E00398006846F60001C4F200018842ED
:100A50000FD1FFE7039840F2EC01C2F200010860F9
:100A6000029888620398702100231A4604F020FA45
:100A7000FFE7FFE7039800F0D9FE0398022100F09A
:100A800069F80398102100F065F80398012100F03F
:100A900061F804B080BD000080B540F60810C2F2D5
:100AA000000000F025FF80BD80B540F64C10C2F27A
:100AB000000000F01DFF80BD81B000904EF6FC519B
:100AC000CEF20001086840F08070086041F2040135
:100AD000CEF200010020086041F20002CEF20002D6
:100AE000116841F001011160009944F24022C0F206
:100AF0000F024A4340F21811C2F200010A600A686C
:100B000044F6D353C1F26203A2FB0332920940F2CE
:100B10001C13C2F200031A6009684DF68362C4F226
:100B20001B32A1FB0221890C40F22012C2F200020A
:100B3000116040F23411C2F20001086001B0704748
:100B40007047000081B0EFF3108072B60090FFE7AD
:100B5000FEE7000084B002900191029890F8200016
:100B60008DF803009DF80300012805D0FFE79DF8EC
:100B7000030002280AD1FFE7019A02980168486938
:100B80001043486100208DF80F0008E00299486A80
:100B900040F48020486201208DF80F00FFE79DF8A7
:100BA0000F0004B07047000086B0049003910498D1
:100BB00000680190049890F820008DF803009DF8DB
:100BC0000300012806D0FFE79DF80300022840F04B
:100BD000B080FFE746F20040C4F2000001900199A6
:100BE000D1F8000240F00100C1F800020199D1F8EB
:100BF000000220F47C50C1F800020398426A019977
:100C0000D1F8000240EA0220C1F8000203984069CE
:100C100000F01F01012088400290029A0199D1F84A
:100C20001C029043C1F81C020398C069F0B9FFE7A9
:100C3000029A0199D1F80C029043C1F80C02039A70
:100C40009088D168526940EA0140019901EBC201E4
:100C5000C1F84002039A10889168526940EA014045
:100C6000019901EBC201C1F84402FFE70398C06992
:100C700001281ED1FFE7029A0199D1F80C02104316
:100C8000C1F80C02039A90881168526940EA014049
:100C9000019901EBC201C1F84002039A9089916861
:100CA000526940EA0140019901EBC201C1F84402D6
:100CB000FFE70398806940B9FFE7029A0199D1F8EC
:100CC00004029043C1F8040207E0029A0199D1F8A6
:100CD00004021043C1F80402FFE70398006940B919
:100CE000FFE7029A0199D1F814029043C1F8140267
:100CF00007E0029A0199D1F814021043C1F81402D6
:100D0000FFE70398006A012808D1FFE7029A0199DA
:100D1000D1F81C021043C1F81C02FFE70199D1F879
:100D2000000220F00100C1F8000200208DF8170039
:100D300008E00499486A40F48020486201208DF858
:100D40001700FFE79DF8170006B0704781B00090CC
:100D500001B0704786B00490039102920193049809
:100D600090F820008DF803009DF80300012806D0BC
:100D7000FFE79DF80300022840F0E880FFE70398B2
:100D800080B9FFE704980068C068800748B9FFE7AA
:100D90000499486A40F40010486201208DF8170059
:100DA000DDE00FE0049800680069800748B9FFE7BC
:100DB0000499486A40F40010486201208DF8170039
:100DC000CDE0FFE704980068039900EB0110D0F82C
:100DD000B00100F00400029988600298806858B958
:100DE000FFE704980068039900EB0110D0F8B00108
:100DF000400D029908600AE004980068039900EB2E
:100E00000110D0F8B001C00802994860FFE70498CB
:100E10000068039900EB0110D0F8B00100F0020067
:100E20000299C86004980068039900EB0110D0F89B
:100E3000B40100F00F00082804D3FFE7029908204E
:100E400008610BE004980068039900EB0110D0F8EA
:100E5000B40100F00F0002990861FFE704980068F0
:100E6000039900EB0110D0F8B40180B2000A029996
:100E7000886104980068039900EB0110D0F8B40170
:100E8000000C0299486104980068039900EB011076
:100E9000D0F8B8010199087004980068039900EB34
:100EA0000110D0F8B801000A019948700498006850
:100EB000039900EB0110D0F8B801000C019988707B
:100EC00004980068039900EB0110D0F8B801000EF7
:100ED0000199C87004980068039900EB0110D0F8DC
:100EE000BC010199087104980068039900EB011096
:100EF000D0F8BC01000A0199487104980068039970
:100F000000EB0110D0F8BC01000C01998871049825
:100F10000068039900EB0110D0F8BC01000E0199A4
:100F2000C871039838B9FFE704980168C86840F0B1
:100F30002000C86006E004980168086940F02000BD
:100F40000861FFE700208DF8170008E00499486A5F
:100F500040F48020486201208DF81700FFE79DF8DB
:100F6000170006B07047000080B58AB009900020D5
:100F700008900998006840690790099800684068DF
:100F80000690099800688068059009980068C06814
:100F900004900998006800690390099800688069C6
:100FA00002909DF81C00C007002800F09480FFE725
:100FB0009DF81400C00758B3FFE7099801680120A5
:100FC00088609DF814008007002804D5FFE7099881
:100FD00000F076FC1BE09DF814004007002805D5C2
:100FE000FFE7089840F4006008900FE09DF81400B7
:100FF0000007002805D5FFE7089840F480500890C6
:1010000003E0099800F058FCFFE7FFE7FFE7FFE780
:101010009DF81500C00760B3FFE7099801684FF419
:10102000807088609DF815008007002804D5FFE7D0
:10103000099800F04DFC1BE09DF8150040070028C2
:1010400005D5FFE7089840F4005008900FE09DF8A0
:1010500015000007002805D5FFE7089840F48040F8
:10106000089003E0099800F02FFCFFE7FFE7FFE797
:10107000FFE79DF81600C00760B3FFE70998016815
:101080004FF4803088609DF816008007002804D552
:10109000FFE7099800F024FC1BE09DF816004007CC
:1010A000002805D5FFE7089840F4004008900FE0BD
:1010B0009DF816000007002805D5FFE7089840F4C2
:1010C0008030089003E0099800F006FCFFE7FFE796
:1010D000FFE7FFE7FFE79DF81C000007002810D599
:1010E000FFE79DF81000C006002809D5FFE7089823
:1010F00040F400700890099801681020C860FFE76C
:10110000FFE79DF81C00400700280FD5FFE79DF87A
:1011100010000007002808D5FFE70998016808209B
:10112000C860099800F0FEFAFFE7FFE79DF81C0091
:10113000800700280BD5FFE709980068C068800782
:1011400020B1FFE7099800F0F1FAFFE7FFE79DF80B
:101150001C004006002810D5FFE79DF80C00C006D3
:10116000002809D5FFE7089840F4806008900998A6
:10117000016810200861FFE7FFE79DF81C0080066A
:1011800000280FD5FFE79DF80C000007002808D5C0
:10119000FFE70998016808200861099800F002FB40
:1011A000FFE7FFE79DF81C00C00600280BD5FFE70E
:1011B000099800680069800720B1FFE7099800F0EE
:1011C000F5FAFFE7FFE79DF81E00800700280FD51E
:1011D000FFE79DF81800C006002808D5FFE709982A
:1011E000016810204860099800F01CFBFFE7FFE74A
:1011F0009DF81E00C00778B1FFE79DF818000007B2
:10120000002808D5FFE70998016808204860099878
:1012100000F06AFBFFE7FFE79DF81D0000060028CD
:1012200040F18D80FFE79DF818004007002840F14D
:101230008180FFE79DF81D00C00750B1FFE79DF8D2
:101240000800C00728B1FFE7089840F001000890A7
:10125000FFE79DF81D00800700280BD5FFE79DF8EC
:1012600008008007002805D5FFE7089840F0020035
:101270000890FFE79DF81D00400700280BD5FFE709
:101280009DF808004007002805D5FFE7089840F0C2
:1012900004000890FFE79DF81D000007002848D5CE
:1012A000FFE79DF8080010F0700F42D0FFE70298AA
:1012B00000F0700001460191102814D0FFE701985A
:1012C000202815D0FFE70198302816D0FFE70198B5
:1012D000402817D0FFE70198502818D0FFE7019861
:1012E000602819D01DE0089840F00800089019E027
:1012F000089840F01000089014E0089840F0200092
:1013000008900FE0089840F0400008900AE0089824
:1013100040F08000089005E0089840F48070089044
:1013200000E0FFE709980168886920F07000886193
:10133000FFE7FFE70998016804204860FFE7089885
:1013400048B1FFE7089A0999486A1043486209982A
:10135000FFF7FCFCFFE70AB080BD000080B584B059
:101360000290029820B9FFE701208DF80F00E0E01D
:10137000029890F8200020B9FFE7029800F0DEF80C
:10138000FFE702980168086840F00100086001F07A
:1013900013F80190FFE7029800684068C007A8B9F9
:1013A000FFE701F009F80199401A0B280DD3FFE778
:1013B0000299486A40F4003048620299052081F899
:1013C000200001208DF80F00B3E0E4E702980168E7
:1013D000086820F00200086000F0EEFF0190FFE7CF
:1013E0000298006840688007002815D5FFE700F0E4
:1013F000E3FF0199401A0B280DD3FFE70299486AD1
:1014000040F4003048620299052081F82000012054
:101410008DF80F008DE0E3E70298007E012807D1E8
:10142000FFE702980168086840F08000086006E065
:1014300002980168086820F080000860FFE70298C1
:10144000407E012807D1FFE702980168086840F054
:101450004000086006E002980168086820F040003B
:101460000860FFE70298807E012807D1FFE7029815
:101470000168086840F02000086006E002980168F2
:10148000086820F020000860FFE70298C07E01286D
:1014900007D1FFE702980168086820F01000086093
:1014A00006E002980168086840F010000860FFE755
:1014B0000298007F012807D1FFE7029801680868B9
:1014C00040F00800086006E002980168086820F013
:1014D00008000860FFE70298407F012807D1FFE776
:1014E00002980168086840F00400086006E002986D
:1014F0000168086820F004000860FFE7029B196893
:101500005A689868D3F80CC040EA0C00D3F810C0B1
:1015100040EA0C005B691843013A1043C861029924
:1015200000204862029A012182F820108DF80F00F5
:10153000FFE79DF80F0004B080BD000080B598B0B3
:10154000179000201690159014901390179800682B
:1015500046F20041C4F2000188426ED1FFE740F23A
:101560003810C2F2000001680131016000680128F2
:1015700010D1FFE7FFE741F21C00C4F2020001684E
:1015800041F000710160006800F000701290129844
:10159000FFE7FFE7FFE741F21800C4F2020001682D
:1015A00041F008010160006800F0080011901198F6
:1015B000FFE74FF48070139000201490159040F6D0
:1015C0000040C4F201000B9013A90C9100F04CFDF7
:1015D0000B980C994FF4007213920222149203227A
:1015E000169200F041FDFFE70421C4F201010868F2
:1015F0001090109820F4C0401090109840F0E060D7
:101600001090109840F48040109010980860FFE708
:1016100014200790052108910022099200F0B0FFE4
:10162000079800F0A3FF0899099A15200A9000F086
:10163000A7FF0A9800F09AFF71E01798006846F635
:101640000001C4F20001884268D1FFE7FFE741F2E0
:101650001C00C4F20200016841F080610160006872
:1016600000F080600F900F98FFE740F23810C2F250
:1016700000000168013101600068012810D1FFE716
:10168000FFE741F21C00C4F20200016841F0007162
:101690000160006800F000700E900E98FFE7FFE711
:1016A000FFE741F21800C4F20200016841F00801AE
:1016B0000160006800F008000D900D98FFE74FF4FE
:1016C00080501390002005901490159040F6004033
:1016D000C4F20100019013A9029100F0C5FC019829
:1016E00002994FF40052139202221492032216928E
:1016F00000F0BAFC059A402003900521049100F007
:101700003FFF039800F032FF0499059A41200690AC
:1017100000F036FF069800F029FFFFE7FFE718B05A
:1017200080BD000081B0009001B0704780B586B0E8
:1017300005900598006846F20041C4F20001884215
:1017400012D1FFE7059840F28801C2F2000103912F
:101750000A1D049201F120030021FFF7FBFA03990F
:101760000498896A88471BE00598006846F60001DE
:10177000C4F20001884212D1FFE7059840F2EC0163
:10178000C2F2000101910A1D029201F12003002121
:10179000FFF7E0FA01990298896A8847FFE7FFE7B7
:1017A00006B080BD81B0009001B0704780B586B0B2
:1017B00005900598006846F20041C4F20001884295
:1017C00012D1FFE7059840F28801C2F200010391AF
:1017D0000A1D049201F120030121FFF7BBFA0399CE
:1017E0000498896A88471BE00598006846F600015E
:1017F000C4F20001884212D1FFE7059840F2EC01E3
:10180000C2F2000101910A1D029201F1200301219F
:10181000FFF7A0FA01990298896A8847FFE7FFE776
:1018200006B080BD81B0009001B0704780B584B033
:101830000290029890F8200001282FD1FFE702992A
:10184000022081F8200002980168086820F0010059
:10185000086000F0B1FD0190FFE702980068406861
:10186000C007A8B1FFE700F0A7FD0199401A0B28B7
:101870000DD3FFE70299486A40F4003048620299AC
:10188000052081F8200001208DF80F000FE0E4E72B
:101890000299002048628DF80F0008E00299486A1A
:1018A00040F40020486201208DF80F00FFE79DF80A
:1018B0000F0004B080BD000081B0009001B07047FF
:1018C00081B0009001B0704781B0009001B07047C6
:1018D00081B0009001B0704781B0009001B07047B6
:1018E00081B0009001B0704781B0009001B07047A6
:1018F00080B5ACB02B902B98C06B00682A902B98C9
:101900000068006829902A982B99096CC840400704
:10191000002840F17581FFE79DF8A40040070028EA
:1019200040F16E81FFE72B98006800688006002870
:1019300007D4FFE72B980168086820F004000860CE
:10194000FFE72B9800688121C4F202018842C0F0B1
:10195000A880FFE72B9800680821C4F202018842A2
:1019600003D1FFE70420289094E02B9800681C2105
:10197000C4F20201884203D1FFE74020279086E0AD
:101980002B9800683021C4F20201884204D1FFE79D
:101990004FF48060269077E02B9800684421C4F2D1
:1019A0000201884204D1FFE74FF48040259068E0AF
:1019B0002B9800685821C4F20201884204D1FFE745
:1019C0004FF48020249059E02B9800686C21C4F2D9
:1019D0000201884204D1FFE74FF4800023904AE0DF
:1019E0002B9800688021C4F20201884204D1FFE7ED
:1019F0004FF0806022903BE02B98006840F2084155
:101A0000C4F20201884203D1FFE7042021902CE0B8
:101A10002B98006840F21C41C4F20201884203D1B5
:101A2000FFE7402020901DE02B98006840F23041F5
:101A3000C4F20201884204D1FFE74FF480601F9096
:101A40000DE02B98016840F24442C4F202024FF4C8
:101A50008020914208BF4FF480401F90FFE71F98FD
:101A60002090FFE720982190FFE721982290FFE740
:101A700022982390FFE723982490FFE7249825904D
:101A8000FFE725982690FFE726982790FFE72798FD
:101A90002890FFE7289840F20441C4F20201086050
:101AA000A5E02B9800680821C4F20201884203D106
:101AB000FFE704201E9094E02B9800681C21C4F2DC
:101AC0000201884203D1FFE740201D9086E02B9859
:101AD00000683021C4F20201884204D1FFE74FF4CC
:101AE00080601C9077E02B9800684421C4F20201CA
:101AF000884204D1FFE74FF480401B9068E02B98A8
:101B000000685821C4F20201884204D1FFE74FF473
:101B100080201A9059E02B9800686C21C4F20201D1
:101B2000884204D1FFE74FF4800019904AE02B98D7
:101B300000688021C4F20201884204D1FFE74FF01F
:101B4000806018903BE02B98006840F20841C4F296
:101B50000201884203D1FFE7042017902CE02B9864
:101B6000006840F21C41C4F20201884203D1FFE741
:101B7000402016901DE02B98006840F23041C4F2DE
:101B80000201884204D1FFE74FF4806015900DE018
:101B90002B98016840F24442C4F202024FF48020C4
:101BA000914208BF4FF480401590FFE715981690BA
:101BB000FFE716981790FFE717981890FFE7189817
:101BC0001990FFE719981A90FFE71A981B90FFE702
:101BD0001B981C90FFE71C981D90FFE71D981E9016
:101BE000FFE71E980421C4F202010860FFE72B986A
:101BF000C06A20B1FFE72B98C16A8847FFE7B7E1C9
:101C00002A982B99096CC8408007002840F17F81F1
:101C1000FFE79DF8A4008007002840F17881FFE7E6
:101C20002B9800680068800600280BD4FFE72B98EB
:101C30000168086820F00A0008602B99012081F8EB
:101C40002100FFE72B9800688121C4F2020188423D
:101C5000C0F0A880FFE72B9800680821C4F20201B9
:101C6000884203D1FFE70220149094E02B9800688B
:101C70001C21C4F20201884203D1FFE72020139007
:101C800086E02B9800683021C4F20201884204D11A
:101C9000FFE74FF40070129077E02B980068442122
:101CA000C4F20201884204D1FFE74FF400501190C2
:101CB00068E02B9800685821C4F20201884204D1E0
:101CC000FFE74FF40030109059E02B9800686C212A
:101CD000C4F20201884204D1FFE74FF400100F90D4
:101CE0004AE02B9800688021C4F20201884204D1A6
:101CF000FFE74FF000700E903BE02B98006840F239
:101D00000841C4F20201884203D1FFE702200D908E
:101D10002CE02B98006840F21C41C4F2020188427A
:101D200003D1FFE720200C901DE02B98006840F2C3
:101D30003041C4F20201884204D1FFE74FF4007041
:101D40000B900DE02B98016840F24442C4F202026D
:101D50004FF40030914208BF4FF400500B90FFE762
:101D60000B980C90FFE70C980D90FFE70D980E90E4
:101D7000FFE70E980F90FFE70F981090FFE710987D
:101D80001190FFE711981290FFE712981390FFE768
:101D900013981490FFE7149840F20441C4F2020132
:101DA0000860A5E02B9800680821C4F2020188426F
:101DB00003D1FFE702200A9094E02B9800681C21D1
:101DC000C4F20201884203D1FFE72020099086E097
:101DD0002B9800683021C4F20201884204D1FFE749
:101DE0004FF40070089077E02B9800684421C4F20B
:101DF0000201884204D1FFE74FF40050079068E0E9
:101E00002B9800685821C4F20201884204D1FFE7F0
:101E10004FF40030069059E02B9800686C21C4F212
:101E20000201884204D1FFE74FF4001005904AE018
:101E30002B9800688021C4F20201884204D1FFE798
:101E40004FF0007004903BE02B98006840F208418E
:101E5000C4F20201884203D1FFE7022003902CE084
:101E60002B98006840F21C41C4F20201884203D161
:101E7000FFE7202002901DE02B98006840F23041DF
:101E8000C4F20201884204D1FFE74FF400700190D0
:101E90000DE02B98016840F24442C4F202024FF474
:101EA0000030914208BF4FF400500190FFE70198C5
:101EB0000290FFE702980390FFE703980490FFE782
:101EC00004980590FFE705980690FFE706980790AD
:101ED000FFE707980890FFE708980990FFE709983F
:101EE0000A90FFE70A980421C4F202010860FFE7A4
:101EF000FFE72B99002081F82000FFE72B98806AEC
:101F000020B1FFE72B98816A8847FFE72FE02A98E6
:101F10002B99096CC8400007002827D5FFE79DF8DA
:101F2000A4000007002821D5FFE72B980168086866
:101F300020F00E0008602B98C26B016C012000FAA3
:101F400001F151602B9988632B9981F82100FFE7FB
:101F50002B99002081F82000FFE72B98006B20B11F
:101F6000FFE72B98016B8847FFE7FFE7FFE7FFE7F5
:101F70002CB080BD83B0019000200090019820B962
:101F8000FFE701208DF80B006AE00198006840F23D
:101F90000741C4F20201884218D8FFE70199086896
:101FA0004FF6F872CBF6FD7210444CF6CD42CCF6EB
:101FB000CC42A0FB02026FF0030000EA920008642A
:101FC00001990020C4F20200C86318E00199086872
:101FD0004FF6F832CBF6FD7210444CF6CD42CCF6FB
:101FE000CC42A0FB02026FF0030000EA92000864FA
:101FF000019940F20040C4F20200C863FFE7019972
:10200000022081F821000198006800680090009883
:1020100043F6F0718843009001994868D1F808C0F0
:10202000CB680A6940EA0C00184310434A69104320
:102030008A691043C96901430098084300900098D9
:10204000019909680860019900208863019A0121BB
:1020500082F82110019981F820008DF80B00FFE72C
:102060009DF80B0003B0704790B00F900E910020C8
:102070000D900990FFE70E9800680D99C840002860
:1020800000F07F81FFE70D99012088400C900E98A9
:1020900000680C9908400B900B980C99884240F00E
:1020A0006C81FFE70E9840680590002851D0FFE74B
:1020B000059801283AD0FFE7059802283FD0FFE7AE
:1020C000059803285FD0FFE70598112832D0FFE775
:1020D0000598122838D0FFE705980021C1F21101B8
:1020E000884236D0FFE705980021C1F212018842EC
:1020F0002FD0FFE705980021C1F22101884228D0A6
:10210000FFE705980021C1F22201884221D0FFE7B4
:1021100005980021C1F2310188421AD0FFE70598E5
:102120000021C1F23201884213D02FE00E98C0681E
:1021300009902CE00E98C0680430099027E00E98B2
:10214000C0680830099022E00E98C0680C300990F1
:102150001DE00E98806818B9FFE70420099011E08F
:102160000E988068012806D1FFE7082009900C9896
:102170000F99086105E0082009900C980F994861B3
:10218000FFE7FFE703E00020099000E0FFE70B987E
:10219000FF2803D8FFE70F98049003E00F9804305E
:1021A0000490FFE7049808900B98FF2804D8FFE7F5
:1021B0000D988000039006E00D996FF01F0000EB72
:1021C00081000390FFE70398079008980068079A3A
:1021D0000F2191408843099991400843089908606C
:1021E0000E98C079C006002840F1C680FFE7FFE7DF
:1021F00041F21800C4F20200016841F001010160DF
:10220000006800F0010006900698FFE70D9820F0A6
:1022100003000821C4F2010140580A900D9800F013
:10222000030081000F2000FA01F10A9888430A9008
:102230000F9840F60001C4F20101884203D1FFE784
:102240000020029026E00F9840F60041C4F2010100
:10225000884203D1FFE70120019018E00F9841F276
:102260000001C4F20101884203D1FFE7022000907F
:102270000AE00F9941F20042C4F2010204209142A7
:1022800008BF03200090FFE700980190FFE7019846
:102290000290FFE702980D9901F00301890000FA0E
:1022A00001F10A9808430A900A980D9921F0030158
:1022B0000822C4F2010288500E988079C0060028D6
:1022C00009D5FFE70B9A40F20841C4F20101086802
:1022D0001043086008E00B9A40F20841C4F2010183
:1022E000086890430860FFE70E9880798006002810
:1022F00009D5FFE70B9A40F20C41C4F201010868CE
:102300001043086008E00B9A40F20C41C4F201014E
:10231000086890430860FFE70E98807980070028DE
:1023200009D5FFE70B9A40F20441C4F201010868A5
:102330001043086008E00B9A40F20441C4F2010126
:10234000086890430860FFE70E988079C00748B19D
:10235000FFE70B9A40F20041C4F201010868104304
:10236000086008E00B9A40F20041C4F201010868DD
:1023700090430860FFE7FFE7FFE70D9801300D90FD
:1023800079E610B07047000082B00190ADF80210FD
:102390008DF801209DF8010028B1FFE7BDF802008B
:1023A0000199086105E0BDF8020000040199086187
:1023B000FFE702B07047000042F2C430C2F20000F2
:1023C0000068704740F20400C2F20000027842F256
:1023D000C431C2F200010868104408607047000070
:1023E00080B542F20001C4F20201086840F010001A
:1023F0000860032000F0DEF80F2000F005F800F080
:102400007BF8002080BD000080B58CB00B900020D0
:10241000049003908DF80700FFE741F21C00C4F21E
:102420000200016841F020010160006800F0200016
:1024300000900098FFE706A802A900F0EFF90998BC
:102440000490049820B9FFE700F018FA059004E022
:1024500000F014FA40000590FFE705984DF68361FF
:10246000C4F21B31A0FB01014FF0FF3000EB9140A3
:10247000039040F6D810C2F2000041F20041C4F2CD
:102480000001016040F2E731C16003994160002121
:1024900001618160816100F087FF8DF807009DF880
:1024A000070028BBFFE740F6D810C2F2000000F09A
:1024B000CDFF8DF807009DF80700C0B9FFE7372072
:1024C00000F054F80B980F280CD8FFE70B99372031
:1024D000002200F055F80B9840F20801C2F200010A
:1024E000086003E001208DF80700FFE7FFE7FFE742
:1024F0009DF807000CB080BD80B584B0FFE741F2C5
:102500001800C4F20200016841F001010160006896
:1025100000F0010003900398FFE7FFE741F21C0081
:10252000C4F20200016841F080510160006800F0CF
:10253000805002900298FFE76FF001000F21002207
:1025400000F01EF8FFE70421C4F2010108680190C1
:10255000019820F0E0600190019840F00070019037
:1025600001980860FFE704B080BD000080B582B02C
:102570008DF807009DF9070004F006FB02B080BD4E
:1025800080B586B08DF81700049103920020029068
:1025900004F012FB02909DF9170001900298049933
:1025A000039A01F0BFFC0146019804F00DFB06B050
:1025B00080BD000080B582B00190019804F026FB38
:1025C00002B080BD80B584B002900191029820B91C
:1025D000FFE701208DF80F001BE1019842F2000196
:1025E000C4F20201096801F00701884216D9FFE729
:1025F00042F20000C4F20200016821F00701019AD2
:1026000011430160006800F007000199884204D07E
:10261000FFE701208DF80F00FBE0FFE7029800784C
:10262000800700282AD5FFE7029800784007002895
:1026300009D5FFE741F20401C4F20201086840F441
:10264000E0600860FFE7029800780007002809D5DD
:10265000FFE741F20401C4F20201086840F460504F
:102660000860FFE741F20401C4F20201086820F0AB
:10267000F000029A926810430860FFE70298007821
:10268000C007002860D0FFE70298406801280ED1FB
:10269000FFE741F20000C4F2020000688003002856
:1026A00004D4FFE701208DF80F00B2E021E002988A
:1026B000406802280ED1FFE741F20000C4F2020098
:1026C00000688001002804D4FFE701208DF80F0086
:1026D0009FE00DE041F20000C4F2020000688007B4
:1026E000002804D4FFE701208DF80F0091E0FFE7F8
:1026F000FFE741F20401C4F20201086820F0030080
:10270000029A526810430860FFF756FE0090FFE7F8
:1027100041F20400C4F20200006800F00C000299CB
:102720004968B0EB810F0ED0FFE7FFF745FE009937
:10273000401A41F28931884204D3FFE703208DF823
:102740000F0066E0E4E7FFE7019842F20001C4F2FF
:102750000201096801F00701884216D2FFE742F240
:102760000000C4F20200016821F00701019A114340
:102770000160006800F007000199884204D0FFE77B
:1027800001208DF80F0044E0FFE702980078400731
:1027900000280CD5FFE741F20401C4F202010868E9
:1027A00020F4E060029AD26810430860FFE70298C4
:1027B0000078000700280DD5FFE741F20401C4F2BC
:1027C0000201086820F46050029A126940EAC200CF
:1027D0000860FFE700F076F841F20401C4F202015C
:1027E0000968C9B20A094BF24071C0F60001895C60
:1027F000C84040F20001C2F20001086040F2080047
:10280000C2F200000068FFF7FFFD00208DF80F0006
:10281000FFE79DF80F0004B080BD000082B001907A
:10282000009101990F20086041F20400C4F20200F7
:10283000016801F00301019A5160016801F0F001A3
:10284000019A9160016801F4E061019AD160006829
:1028500000F46050C0080199086142F20000C4F21F
:102860000200006800F007000099086002B070479D
:1028700040F20000C2F200000068704780B5FFF728
:10288000F7FF41F20401C4F202010968C1F3022218
:102890004BF25071C0F60001895CC84080BD000059
:1028A00080B5FFF7E5FF41F20401C4F202010968B7
:1028B000C1F3C2224BF25071C0F60001895CC840DE
:1028C00080BD000080B588B000200790069005907C
:1028D000049003900290019041F20400C4F20200BF
:1028E00000680790079800F00C000146009100284E
:1028F00078D0FFE70098042804D0FFE70098082864
:1029000006D070E041F20020C0F27A00039070E03F
:102910000798C0F383414BF25870C0F60000405C4A
:1029200004909DF81E00C007002850D0FFE741F238
:102930002C00C4F20200016801F00F024BF2667134
:10294000C0F60001895C06910068C003002825D507
:10295000FFE741F22C00C4F202000168CAB2012173
:1029600001EB12110291006800F47061022000EB8B
:102970001120019001980499A0FB010141F200226D
:10298000C0F27A02A0FB020301FB0231029A069B0D
:10299000A2FB0323FDF781FC05900AE0049841F2B5
:1029A0000021C0F27A0148430699B0FBF1F005908E
:1029B000FFE704984BF25871C0F60001497B88424A
:1029C00004D1FFE7059840080590FFE707E0049869
:1029D00040F60011C0F23D0148430590FFE705981D
:1029E000039006E0FFE741F20020C0F27A00039076
:1029F000FFE7039808B080BD80B586B004900498C6
:102A000020B9FFE701208DF81700EFE30498007864
:102A1000C007002800F0AE80FFE741F20400C4F2D6
:102A20000200006800F00C00042813D0FFE741F218
:102A30000400C4F20200006800F00C0008281BD15A
:102A4000FFE741F20400C4F202000068C00300285E
:102A500012D5FFE741F20000C4F2020000688003D3
:102A6000002808D5FFE70498806820B9FFE7012017
:102A70008DF81700BAE37CE0FFE704988068B0F5B2
:102A8000803F09D1FFE741F20001C4F2020108686A
:102A900040F48030086032E00498806868B9FFE74D
:102AA00041F20001C4F20201086820F4803008609D
:102AB000086820F48020086020E004988068B0F561
:102AC000A02F0DD1FFE741F20001C4F20201086816
:102AD00040F480200860086840F4803008600CE012
:102AE00041F20001C4F20201086820F4803008605D
:102AF000086820F480200860FFE7FFE7FFE7FFE7B2
:102B000004988068D0B1FFE7FFF756FC0390FFE719
:102B100041F20000C4F202000068800300280CD4D7
:102B2000FFE7FFF749FC0399401A652804D3FFE744
:102B300003208DF8170059E3EAE719E0FFF73CFCA2
:102B40000390FFE741F20000C4F202000068800336
:102B500000280CD5FFE7FFF72FFC0399401A6528E2
:102B600004D3FFE703208DF817003FE3EAE7FFE710
:102B7000FFE7FFE7049800788007002840F18D8088
:102B8000FFE741F20400C4F20200006810F00C0FED
:102B900013D0FFE741F20400C4F20200006800F025
:102BA0000C00082829D1FFE741F20400C4F202001A
:102BB0000068C003002820D4FFE741F20000C4F2FF
:102BC000020000688007002809D5FFE704984069E3
:102BD000012804D0FFE701208DF8170006E341F239
:102BE0000001C4F20201086820F0F800049A92691A
:102BF00040EAC2000860FFE74EE00498406958B31D
:102C0000FFE70021C4F2422101200860FFF7D4FB56
:102C10000390FFE741F20000C4F202000068800761
:102C200000280CD4FFE7FFF7C7FB0399401A0328DD
:102C300004D3FFE703208DF81700D7E2EAE741F25B
:102C40000001C4F20201086820F0F800049A9269B9
:102C500040EAC20008601EE00021C4F242210020C8
:102C60000860FFF7A9FB0390FFE741F20000C4F200
:102C700002000068800700280CD5FFE7FFF79CFBE7
:102C80000399401A032804D3FFE703208DF81700A7
:102C9000ACE2EAE7FFE7FFE7FFE704980078000708
:102CA000002848D5FFE70498C06918B3FFE740F251
:102CB0008041C4F2422101200860FFF77DFB0390B0
:102CC000FFE741F22400C4F20200006880070028F8
:102CD0000CD4FFE7FFF770FB0399401A032804D3D5
:102CE000FFE703208DF8170080E2EAE7012001F0FA
:102CF00071F91FE040F28041C4F2422100200860D7
:102D0000FFF75AFB0390FFE741F22400C4F20200F0
:102D10000068800700280CD5FFE7FFF74DFB0399FB
:102D2000401A032804D3FFE703208DF817005DE263
:102D3000EAE7FFE7FFE7049800784007002840F142
:102D4000D880FFE700208DF8070041F21C00C4F294
:102D500002000068C000002813D4FFE7FFE741F23B
:102D60001C00C4F20200016841F08051016000685B
:102D700000F0805000900098FFE701208DF80700D8
:102D8000FFE747F20000C4F200000068C005002819
:102D900022D4FFE747F20001C4F20001086840F4C2
:102DA00080700860FFF708FB0390FFE747F2000020
:102DB000C4F200000068C00500280CD4FFE7FFF74C
:102DC000FBFA0399401A652804D3FFE703208DF826
:102DD00017000BE2EAE7FFE7FFE704980069012824
:102DE00009D1FFE741F22001C4F20201086840F076
:102DF0000100086031E00498006968B9FFE741F21A
:102E00002001C4F20201086820F00100086008688F
:102E100020F0040008601FE00498006905280DD127
:102E2000FFE741F22001C4F20201086840F004000B
:102E30000860086840F0010008600CE041F22001E1
:102E4000C4F20201086820F001000860086820F060
:102E500004000860FFE7FFE7FFE7FFE70498006969
:102E6000E0B1FFE7FFF7A8FA0390FFE741F2200087
:102E7000C4F202000068800700280ED4FFE7FFF7C5
:102E80009BFA0399401A41F28931884204D3FFE743
:102E900003208DF81700A9E1E8E71BE0FFF78CFAA3
:102EA0000390FFE741F22000C4F2020000688007AF
:102EB00000280ED5FFE7FFF77FFA0399401A41F289
:102EC0008931884204D3FFE703208DF817008DE194
:102ED000E8E7FFE79DF80700012809D1FFE741F285
:102EE0001C01C4F20201086820F080500860FFE76E
:102EF000FFE70498C06A002800F0B780FFE741F2BE
:102F00000400C4F202000068C003002817D5FFE7E0
:102F100041F20400C4F20200006800F00C0008282E
:102F20000DD1FFE741F22C00C4F202000068C0039B
:102F3000002804D5FFE701208DF8170056E104981A
:102F4000C06A022868D1FFE741F20000C4F2020023
:102F50000068C000002810D5FFE741F22C00C4F241
:102F60000200006800F0F0000499496B884204D028
:102F7000FFE701208DF8170038E16821C4F24221F3
:102F800000200860FFF718FA0390FFE741F2000005
:102F9000C4F202000068000100280CD5FFE7FFF72B
:102FA0000BFA0399401A652804D3FFE703208DF834
:102FB00017001BE1EAE741F22C01C4F202010868A4
:102FC00020F0F000049A526B10430860086820F467
:102FD0007060049A126B104308606821C4F24221A9
:102FE00001200860FFF7E8F90390FFE741F20000D5
:102FF000C4F202000068000100280CD4FFE7FFF7CC
:10300000DBF90399401A652804D3FFE703208DF804
:103010001700EBE0EAE726E041F22C01C4F20201DE
:10302000086820F4803008606821C4F24221002042
:103030000860FFF7C1F90390FFE741F20000C4F216
:1030400002000068000100280CD5FFE7FFF7B4F983
:103050000399401A652804D3FFE703208DF8170071
:10306000C4E0EAE7FFE7FFE7FFE70498006A00280B
:1030700000F0B880FFE741F20400C4F202000068EB
:1030800000F00C00082800F08780FFE70498006A31
:10309000022861D1FFE76021C4F2422100200860CC
:1030A000FFF78AF90390FFE741F20000C4F2020043
:1030B0000068800100280CD5FFE7FFF77DF9039930
:1030C000401A032804D3FFE703208DF817008DE092
:1030D000EAE70498406AB0F5803F11D1FFE7049811
:1030E000426841F22C01C4F20201086810430860F2
:1030F000086820F00F00049AD26810430860FFE7C8
:1031000041F20401C4F20201086820F47410049B27
:103110005A6A9B6A1A43104308606021C4F2422134
:1031200001200860FFF748F90390FFE741F2000033
:10313000C4F202000068800100280CD4FFE7FFF70A
:103140003BF90399401A032804D3FFE703208DF8C5
:1031500017004BE0EAE71EE06021C4F242210020A4
:103160000860FFF729F90390FFE741F20000C4F27D
:1031700002000068800100280CD5FFE7FFF71CF96A
:103180000399401A032804D3FFE703208DF81700A2
:103190002CE0EAE7FFE724E00498006A012804D164
:1031A000FFE701208DF8170020E041F20400C4F28F
:1031B000020000680290029800F480300499496A85
:1031C000884208D1FFE7029800F470100499896AD8
:1031D000884204D0FFE701208DF8170006E0FFE7E2
:1031E000FFE7FFE700208DF81700FFE79DF81700C5
:1031F00006B080BD81B0009001B0704781B00090F2
:1032000001B0704784B00290019100200090FFE768
:10321000029890F83C00012804D1FFE702208DF8C5
:103220000F0044E00299012081F83C00FFE7FFE72E
:10323000009820F0FF000199C968084300900098A9
:1032400020F440700199896808430090009820F4A8
:1032500080600199496808430090009820F400605C
:103260000199096808430090009820F48050019962
:10327000096908430090009820F4005001994969B9
:1032800008430090009820F480400199C9690843E0
:1032900000900098029909684864FFE702990020AD
:1032A00081F83C00FFE700208DF80F00FFE79DF854
:1032B0000F0004B07047000085B003900291FFE753
:1032C000039890F83C00012804D1FFE702208DF814
:1032D000130064E00399012081F83C00FFE7FFE759
:1032E0000399022081F83D0003980068406801902E
:1032F0000398006880680090019820F070000190A9
:10330000029801680198084301900198039909689F
:1033100048600398006842F60041C4F20101884207
:1033200021D0FFE703980068B0F1804F1BD0FFE782
:103330000398006840F20041C4F20001884212D0B4
:10334000FFE70398006840F60001C4F200018842DC
:1033500009D0FFE70398006840F60041C4F200017D
:1033600088420ED1FFE7009820F08000009002987C
:1033700041680098084300900098039909688860A4
:10338000FFE70399012081F83D00FFE70399002042
:1033900081F83C00FFE700208DF81300FFE79DF85F
:1033A000130005B07047000080B582B0009000980F
:1033B00020B9FFE701208DF807003FE0009890F862
:1033C0003D0040B9FFE70099002081F83C000098DB
:1033D00000F038F8FFE70099022081F83D000099DD
:1033E00051F8040B00F0C4FE0099012081F846005A
:1033F000FFE70099012081F83E00009981F83F0025
:10340000009981F84000009981F84100FFE7FFE74B
:103410000099012081F84200009981F84300009949
:1034200081F84400009981F84500FFE700990120E8
:1034300081F83D0000208DF80700FFE79DF80700A8
:1034400002B080BD81B0009001B0704783B00190A0
:10345000019890F83D00012804D0FFE701208DF885
:103460000B0050E00199022081F83D0001980168AD
:10347000C86840F00100C8600198006842F6004149
:10348000C4F20101884221D0FFE701980068B0F141
:10349000804F1BD0FFE70198006840F20041C4F262
:1034A0000001884212D0FFE70198006840F6000151
:1034B000C4F20001884209D0FFE70198006840F695
:1034C0000041C4F20001884212D1FFE70198006870
:1034D000806800F0070000900098062807D0FFE7FA
:1034E00001980168086840F001000860FFE706E005
:1034F00001980168086840F001000860FFE70020BB
:103500008DF80B00FFE79DF80B0003B0704700003B
:1035100081B0009001B0704780B582B001900198F1
:103520000068006900F002010020B0EB510F28D0C4
:10353000FFE701980068C06800F002010020B0EBCE
:10354000510F1DD0FFE7019801686FF0020008617C
:10355000019901200877019800688069800720B1EF
:10356000FFE70198FFF7D4FF06E0019800F042F969
:10357000019800F051FAFFE7019900200877FFE772
:10358000FFE701980068006900F004010020B0EB3B
:10359000910F29D0FFE701980068C06800F004018E
:1035A0000020B0EB910F1ED0FFE7019801686FF08B
:1035B0000400086101990220087701980068806979
:1035C00010F4407F04D0FFE70198FFF7A1FF06E069
:1035D000019800F00FF9019800F01EFAFFE7019939
:1035E00000200877FFE7FFE701980068006900F016
:1035F00008010020B0EBD10F28D0FFE70198006848
:10360000C06800F008010020B0EBD10F1DD0FFE72B
:10361000019801686FF0080008610199042008779B
:1036200001980068C069800720B1FFE70198FFF7A3
:103630006FFF06E0019800F0DDF8019800F0ECF96A
:10364000FFE7019900200877FFE7FFE7019800688E
:10365000006900F010010020B0EB111F29D0FFE736
:1036600001980068C06800F010010020B0EB111F45
:103670001ED0FFE7019801686FF010000861019902
:103680000820087701980068C06910F4407F04D0D2
:10369000FFE70198FFF73CFF06E0019800F0AAF869
:1036A000019800F0B9F9FFE7019900200877FFE7DA
:1036B000FFE7019800680069C00780B1FFE7019843
:1036C0000068C068C00748B1FFE7019801686FF063
:1036D00001000861019800F0A3F9FFE7FFE70198F6
:1036E00000680069C1B20020B0EBD11F13D0FFE722
:1036F00001980068C068C1B20020B0EBD11F09D0AA
:10370000FFE7019801686FF0800008610198FFF7FA
:1037100071FDFFE7FFE701980068006900F04001D4
:103720000020B0EB911F14D0FFE701980068C0683B
:1037300000F040010020B0EB911F09D0FFE7019895
:1037400001686FF040000861019800F07BF9FFE725
:10375000FFE701980068006900F020010020B0EB4D
:10376000511F14D0FFE701980068C06800F02001E5
:103770000020B0EB511F09D0FFE7019801686FF0FE
:10378000200008610198FFF739FDFFE7FFE702B06D
:1037900080BD000080B586B00590002004900390A5
:1037A000029001900598006842F60041C4F20101C0
:1037B00088421DD1FFE7FFE741F21800C4F2020082
:1037C000016841F004010160006800F0040000900D
:1037D0000098FFE74FF4806001900220029004906F
:1037E00040F60000C4F2010001A9FEF73DFCFFE72E
:1037F00006B080BD81B0009001B0704780B586B042
:1038000004900391029200208DF80700FFE70498CE
:1038100090F83C00012804D1FFE702208DF8170042
:1038200089E00499012081F83C00FFE7FFE7029856
:1038300000900C2800F270800099DFE801F0076D1D
:103840006D6D206D6D6D3A6D6D6D5300049800685F
:10385000039900F015FD04980168886940F008009C
:10386000886104980168886920F0040088610398E1
:1038700002690498016888691043886150E00498DF
:103880000068039900F064FD04980168886940F4B9
:103890000060886104980168886920F4806088610C
:1038A0000398026904980168886940EA02208861E7
:1038B00036E004980068039900F0B6FD04980168AA
:1038C000C86940F00800C86104980168C86920F020
:1038D0000400C8610398026904980168C86910432C
:1038E000C8611DE004980068039900F009FE04987F
:1038F0000168C86940F40060C86104980168C8693B
:1039000020F48060C8610398026904980168C8695E
:1039100040EA0220C86103E001208DF80700FFE7BC
:10392000FFE70499002081F83C00FFE79DF80700BD
:103930008DF81700FFE79DF8170006B080BD000066
:1039400080B582B00090009820B9FFE701208DF883
:1039500007003FE0009890F83D0040B9FFE700996C
:10396000002081F83C00009800F038F8FFE700994B
:10397000022081F83D00009951F8040B00F0F8FB9B
:103980000099012081F84600FFE70099012081F8A5
:103990003E00009981F83F00009981F840000099AD
:1039A00081F84100FFE7FFE70099012081F842001C
:1039B000009981F84300009981F84400009981F84A
:1039C0004500FFE70099012081F83D0000208DF8B7
:1039D0000700FFE79DF8070002B080BD82B00190AC
:1039E0000198006842F60041C4F20101884210D1FA
:1039F000FFE7FFE741F21800C4F20200016841F45A
:103A000000610160006800F4006000900098FFE72A
:103A1000FFE702B07047000081B0009001B070472E
:103A200080B582B001900198006841F20041C4F273
:103A30000001884203D1FFE7FEF7C4FCFFE702B0B4
:103A400080BD000081B0009001B0704780B582B0A9
:103A50000090009820B9FFE701208DF8070040E0B2
:103A60000098806908B1FFE700E0FFE7009890F850
:103A7000410040B9FFE70099002081F8400000981C
:103A800000F034F8FFE70099242081F84100009805
:103A90000168C86820F40050C860009800F09CFDE0
:103AA00000980168086920F4904008610098016856
:103AB000486920F02A00486100980168C86840F40D
:103AC0000050C860009900204864009A202182F8C4
:103AD0004110009A82F84210009948638DF807005F
:103AE000FFE79DF8070002B080BD000080B58CB0F4
:103AF0000B9000200A900990089007900B9800689E
:103B000044F20041C4F20001884240F08480FFE7A3
:103B1000FFE741F21C00C4F20200016841F40031E9
:103B20000160006800F4003006900698FFE7FFE7A8
:103B300041F21800C4F20200016841F00401016082
:103B4000006800F0040005900598FFE70420079046
:103B50000220089003200A9040F60000C4F2010001
:103B6000019007A90291FEF77FFA019802990822B5
:103B700007920022039208920992FEF775FA0399C0
:103B800040F60810C2F2000004906C22C4F2020257
:103B90000260416081608022C26001614161816197
:103BA0004FF40051C161FEF7E5F918B1FFE7FCF7EA
:103BB000C9FFFFE7FFE70B9840F60811C2F20001CA
:103BC000C1630B984862FFE740F64C10C2F2000058
:103BD00000908021C4F202010160102141600021A7
:103BE00081608022C2600161416181614FF40051B6
:103BF000C161FEF7BFF918B1FFE7FCF7A3FFFFE7CC
:103C0000FFE70B9840F64C11C2F2000181630B985C
:103C10004862FFE7FFE70CB080BD0000FFE7FEE76A
:103C200080B582B040F6B800C2F20000019046F2C2
:103C30000041C4F200010160042141600021816063
:103C4000C1604FF4802202614FF40012426101769C
:103C5000012242768176C17601774177FDF77EFBBE
:103C600018B1FFE7FCF76EFFFFE702B080BD000070
:103C700080B582B040F6E000C2F20000019046F646
:103C80000001C4F200010160042141600021816053
:103C9000C1604FF4003202614FF48002426101764C
:103CA000012242768276C17601774177FDF756FB95
:103CB00018B1FFE7FCF746FFFFE702B080BD000048
:103CC00080B586B0FFE741F21400C4F2020001683B
:103CD00041F001010160006800F0010005900598C5
:103CE000FFE7102001900521029100220392FEF7C8
:103CF00047FC0198FEF73AFC0299039A11200490C0
:103D0000FEF73EFC0498FEF731FC06B080BD0000D3
:103D100080B582B044F23500C0F600004BF27872F4
:103D2000C0F600020021019103F0E8F9019940F684
:103D3000B402C2F20002106044F25500C0F6000066
:103D40004BF29C72C0F6000203F0D8F941F2B03198
:103D5000C2F20001086002B080BD000080B58AB0E8
:103D600000200990089007900690FFE741F21800A4
:103D7000C4F20200016841F020010160006800F017
:103D8000200005900598FFE7FFE741F21800C4F214
:103D90000200016841F004010160006800F00400C5
:103DA00004900498FFE7FFE741F21800C4F2020014
:103DB000016841F008010160006800F0080003900C
:103DC0000398FFE740F60040C4F20100029003218F
:103DD00001910022FEF7D8FA01990298069101217B
:103DE000079102210891099106A9FEF73DF90AB051
:103DF00080BD000080B594B0002101911391129113
:103E0000119110910F910E910D910C910B910A91BE
:103E1000099108910791069105910491039140F64B
:103E20009010C2F20000029042F60042C4F2010279
:103E3000026024224260816040F2E732C260016188
:103E4000416180218161FFF77BFD18B1FFE7FCF73D
:103E500079FEFFE700201290139040F69010C2F216
:103E6000000012A9FFF728FA18B1FFE7FCF76AFE75
:103E7000FFE760200B9000200C900D900E900F90AB
:103E80001090119040F69010C2F200000BA9082289
:103E9000FFF7B4FC18B1FFE7FCF754FEFFE7002082
:103EA000039004900590069007904FF400510891FC
:103EB0000A9040F69010C2F2000003A9FFF7A2F9A1
:103EC00018B1FFE7FCF73EFEFFE740F69010C2F2A4
:103ED0000000FFF75FFC14B080BD000080B582B029
:103EE00040F62020C2F20000019044F20041C4F2EA
:103EF000000101604FF4E131416000218160C16047
:103F000001610C2242618161C161FFF79FFD18B11F
:103F1000FFE7FCF717FEFFE702B080BDFFE7FEE713
:103F2000FFE7FEE788B0079006910592079800F03A
:103F3000070004900498C0F10700052803D3FFE7A9
:103F40000420019004E00498C0F107000190FFE70D
:103F50000198039004980430062803D8FFE7002056
:103F6000009003E0049803380090FFE70098029067
:103F700006980399012202FA01F101390840029BD7
:103F8000984005999A40013A1140084308B070479B
:103F9000EFF30980BFF36F8F0D4B1A6820E9F00F24
:103FA00010602DE908404FF0500080F3118804F0B4
:103FB00021FD4FF0000080F31188BDE8084019682A
:103FC0000868B0E8F00F80F30988BFF36F8F70477F
:103FD000600B002082B00190019840F20001C2F213
:103FE00000010968C90844F6D352C1F26202A1FB7C
:103FF0000221890948430090FFE700BFFFE70098CE
:10400000411E00910028F8D1FFE702B07047000080
:10401000074B19680868B0E8F00F80F30988BFF310
:104020006F8F4FF0000080F311884EF00D0E704737
:10403000600B002080B582B00190FFE740F6682158
:10404000C2F20001086801300860012002F0B4FFEC
:10405000F4E7000080B584B00390FFE700F0FAFEBB
:1040600040F65801C2F200010291086041F254008A
:10407000C2F20000019000F017FB019800F0D4FBA1
:10408000019800F0D5FB00F0E5FE02990968401A9E
:1040900041F2AC31C2F200010860012002F08CFF55
:1040A000DCE7000080B582B04FF0500080F311884B
:1040B000BFF36F8FBFF34F8F009005F071FA40B1DF
:1040C000FFE74EF60451CEF200014FF08050086039
:1040D000FFE700200190019880F3118802B080BDB5
:1040E00080B596B008A801903821FCF7D2F9019864
:1040F00000210291079106910591049103910123FA
:1041000008934FF480320A920B910D930991022388
:10411000109311924FF4E01212921391FEF76CFC7F
:1041200018B1FFE7FCF70EFDFFE70F200390022117
:104130000491002005904FF480620692079003A836
:10414000FEF740FA18B1FFE7FCF7FCFCFFE770212F
:10415000C4F242210120086016B080BD7047000003
:1041600080B540F6D810C2F20000FFF7D5F980BD47
:1041700083B002900191029800680090029842F684
:104180000041C4F2010188421DD0FFE70298B0F15E
:10419000804F18D0FFE7029840F20041C4F20001BE
:1041A000884210D0FFE7029840F60001C4F20001F7
:1041B000884208D0FFE7029840F60041C4F20001AF
:1041C00088420AD1FFE7009820F070000090019823
:1041D0004168009808430090FFE7029842F60041CA
:1041E000C4F2010188421DD0FFE70298B0F1804F70
:1041F00018D0FFE7029840F20041C4F20001884263
:1042000010D0FFE7029840F60001C4F20001884296
:1042100008D0FFE7029840F60041C4F2000188424E
:104220000AD1FFE7009820F4407000900198C1681F
:10423000009808430090FFE7009820F08000019963
:1042400049690843009000980299086001988068C5
:104250000299C8620198006802998862029842F641
:104260000041C4F20101884205D1FFE701980069CD
:1042700002990863FFE702990120486103B0704783
:1042800085B0049003910498006A01900499086A2B
:1042900020F001000862049840680090049880694A
:1042A0000290029820F070000290029820F0030023
:1042B000029003980168029808430290019820F048
:1042C00002000190039881680198084301900498C6
:1042D00042F60041C4F2010188420ED1FFE7019885
:1042E00020F0080001900398C168019808430190EC
:1042F000019820F004000190FFE7049842F6004185
:10430000C4F20101884213D1FFE7009820F48070C5
:104310000090009820F40070009003984169009884
:104320000843009003988169009808430090FFE7D4
:10433000009804994860029804998861039840683D
:104340000499486301980499086205B07047000019
:1043500085B0049003910498006A01900499086A5A
:1043600020F010000862049840680090049880696A
:104370000290029820F4E0400290029820F44070ED
:10438000029003980168029840EA01200290019887
:1043900020F02000019003988168019840EA011004
:1043A0000190049842F60041C4F2010188420FD105
:1043B000FFE7019820F0800001900398C168019800
:1043C00040EA01100190019820F040000190FFE7C1
:1043D000049842F60041C4F20101884215D1FFE77A
:1043E000009820F480600090009820F40060009015
:1043F00003984169009840EA810000900398816920
:10440000009840EA81000090FFE700980499486016
:104410000298049988610398406804998863019818
:104420000499086205B0704785B004900391049820
:10443000006A01900499086A20F480700862049868
:10444000406800900498C0690290029820F07000C3
:104450000290029820F003000290039801680298ED
:1044600008430290019820F400700190039881683D
:10447000019840EA01200190049842F60041C4F2FC
:10448000010188420FD1FFE7019820F400600190FC
:104490000398C168019840EA01200190019820F436
:1044A00080600190FFE7049842F60041C4F20101E8
:1044B000884215D1FFE7009820F4805000900098C2
:1044C00020F40050009003984169009840EA0110E0
:1044D000009003988169009840EA01100090FFE77E
:1044E00000980499486002980499C861039840684C
:1044F0000499C86301980499086205B070470000E8
:1045000085B0049003910498006A01900499086AA8
:1045100020F4805008620498406800900498C069B4
:104520000290029820F4E0400290029820F440703B
:10453000029003980168029840EA012002900198D5
:1045400020F40050019003988168019840EA0130FE
:104550000190049842F60041C4F2010188420BD157
:10456000FFE7009820F4804000900398416900988C
:1045700040EA81100090FFE7009804994860029893
:104580000499C861039840680499086401980499E3
:10459000086205B07047000080B54820FCF78CFA2F
:1045A00040F6B800C2F2000044F65571C0F60001B2
:1045B000FCF724FA40F6E000C2F2000044F6C971AC
:1045C000C0F60001FCF71AFA41F25400C2F20000F2
:1045D00001F002FD80BD000080B584B00390039817
:1045E0000068006920F44050039A1168D2681043B3
:1045F0000861039988680A69496910430843029071
:1046000003980068C06841F20C618843029908432E
:1046100003990968C86003980068406920F44070F5
:10462000039A11689269104348610398006843F641
:104630000001C4F20101884204D1FFE7FEF730F91E
:10464000019003E0FEF71AF90190FFE701981921A4
:104650004843039A116852689200B0FBF2FC48F29A
:104660001F52C5F2EB12ACFB02304309642003FB7E
:1046700010CC322000EB0C10A0FB0202F02000EA6C
:10468000521000EB0310C2F343121044886004B0D0
:1046900080BD0000FFE7FEE780B502F0D5FA80BDDF
:1046A00080B502F0EFFA80BD80B58CB00B900B980E
:1046B00000F5107001F024F94FF08141019106F0EE
:1046C00075FB06F085FA02460B46002048F2000111
:1046D000C4F2760106F08EF905F02CFD0B99C1F8B5
:1046E00048030B9800F5107001F010F9019980F063
:1046F000004006F05BFB0B99C1F84C030B9801F0EE
:1047000081FA4CF28F21C3F6F55106F001FD4FF00E
:10471000804106F04BFB0B99C1F850030B9800F554
:10472000907001F06FFA02900B9800F5907001F014
:1047300049FA0146029806F0EBFC4CF6EF11C4F280
:104740001811069106F0E4FCFBF730FF80B2FBF78E
:104750006FFF0B990391FBF729FF0399A1F8C4029E
:104760000B9800F5907001F01BFA06F031FA40F258
:104770009B42CFF65F1208924FF62473C3F6F363A1
:10478000099306F02DF8FBF7C1FE80B2FBF750FF4E
:104790000B990491FBF70AFF0499A1F8C6020B9844
:1047A00001F030FA05900B9801F00CFA01460598DB
:1047B00006F0AEFC069906F0ABFCFBF7F7FE80B204
:1047C000FBF736FF0B990791FBF7F0FE0799A1F86D
:1047D000D8020B9801F0E4F906F0FAF9089A099B5F
:1047E00005F0FEFFFBF792FE80B2FBF721FF0B996D
:1047F0000A91FBF7DBFE0A99A1F8DA020B98B0F8F0
:10480000C40240F2BC01C2F2000108800B98B0F86B
:10481000C60248800B98B0F8D80288800B98B0F890
:10482000DA02C8800CB080BD81B0009001B0704742
:1048300080B598B0179000201690179890F85703FD
:10484000002840F08880FFE717991391D1F83C03C6
:10485000D1F8481306F036FE01461398149190F9EA
:10486000540306F0B5FB0021CCF2343106F050FCC5
:104870000146149806F0D8F91690FFE71698002123
:10488000C4F2B43106F078FA40B9FFE71698002177
:10489000CCF2B43106F0C8F91690EFE7FFE71698AE
:1048A000002106F062FA40B9FFE716980021C4F231
:1048B000B43106F0B9F91690F1E7169800F0AAFBAA
:1048C0001290169800F0A6FB01460020C4F2B43006
:1048D00006F0F8FD0146129806F047FA28B9FFE7FE
:1048E000169800F097FB15900AE0169800F092FBDE
:1048F00001460020C4F2B43006F0E4FD1590FFE755
:1049000015980021C4F2B42106F036FA10BBFFE777
:10491000179991F85403B0FA80F0400981F85403D4
:1049200017991091D1F83C03D1F8481306F0CAFD4D
:1049300001461098119190F9540306F049FB0021AB
:10494000CCF2343106F0E4FB0146119806F06CF924
:104950001690FFE708E01799D1F83C03D1F8481307
:1049600006F0B0FD1690FFE7179890F8560310BBBD
:10497000FFE716980021C4F2343106F0FDF940B982
:10498000FFE716980021CCF2B43106F04DF91690ED
:1049900010E016980021CCF2343106F0E6F940B967
:1049A000FFE716980021C4F2B43106F03DF91690E5
:1049B000FFE7FFE7FFE717980190D0F84803169943
:1049C00006F032F90199C1F83C0317980390D0F82A
:1049D00044034CF28F21C3F6F551049106F0E6F939
:1049E0000146084606F020F901460398029190F925
:1049F000540306F0EDFA0146029806F089FB0146E1
:104A0000039801F011F9049917980590D0F8500314
:104A100006F0CCF90146084606F006F9014605986D
:104A200001F0F8F8179800F590710691D0F83C0362
:104A30004FF63521C3F68E41089106F069FB014619
:104A4000069801F0C7F80899179800F59072079238
:104A5000D0F8480306F05CFB0146079801F0A8F87F
:104A60000899179800F590720992D0F84C0306F057
:104A70004FFB0146099801F0CDF8179801F0DEF8D8
:104A8000179800F5907001F0D9F8179800F590701C
:104A900001F0C2F906F09CF840F29B42CFF65F129B
:104AA0000B924FF62473C3F6F3630C9305F098FE54
:104AB000FBF72CFD80B2FBF7BBFD17990A91FBF7C2
:104AC00075FD0A99A1F8C802179801F0A5F906F03A
:104AD0007FF80B9A0C9B05F083FEFBF717FD80B265
:104AE000FBF7A6FD17990D91FBF760FD0D99A1F855
:104AF000DC02179901F51C7001F5227100F0A6FB8C
:104B0000179800F590710E91B0F9D40206F060FA92
:104B100001460E9801F088F917980F90B0F9E80255
:104B200006F056FA01460F9801F07EF918B080BDE4
:104B300080B584B0039002910192039800680299B5
:104B400006F013F920B9FFE70298039908600BE01B
:104B500003980068019906F00FF920B9FFE7019862
:104B600003990860FFE7FFE704B080BD84B00390BD
:104B70008DF80B10039840F6B801C2F2000188428C
:104B800027D1FFE79DF80B000A3801460091032862
:104B90001CD80099DFE801F002080E1440F2B400BE
:104BA000C2F20000019011E040F2BC00C2F200002D
:104BB0000190FFE740F2C400C2F200000190FFE75D
:104BC00040F2CC00C2F200000190FFE7019804B06F
:104BD0007047FEDE85B004908DF80F10049840F603
:104BE000B801C2F2000188425BD1FFE79DF80F00D7
:104BF0000138014601910A2852D80199DFE801F0F5
:104C0000060C131A21272E353C42490040F2780049
:104C1000C2F20000029043E040F27800C2F20000CD
:104C2000023002903CE040F27800C2F20000043012
:104C3000029035E040F27800C2F2000006300290A7
:104C40002EE040F27000C2F20000029028E040F234
:104C50007000C2F200000230029021E040F27000C9
:104C6000C2F20000043002901AE040F27000C2F27A
:104C700000000630029013E040F28000C2F2000013
:104C800002900DE040F28000C2F20000023002907B
:104C900006E040F28000C2F2000004300290FFE71C
:104CA00063E0049840F6E001C2F2000188425BD163
:104CB000FFE79DF80F000138014600910A2852D8FD
:104CC0000099DFE801F0060C131A21272E353C422B
:104CD000490040F2DC00C2F20000029043E040F2E2
:104CE000DC00C2F20000023002903CE040F2DC0046
:104CF000C2F200000430029035E040F2DC00C2F263
:104D00000000063002902EE040F2D400C2F2000013
:104D1000029028E040F2D400C2F20000023002907B
:104D200021E040F2D400C2F20000043002901AE008
:104D300040F2D400C2F200000630029013E040F2CC
:104D4000E400C2F2000002900DE040F2E400C2F282
:104D500000000230029006E040F2E400C2F20000DF
:104D600004300290FFE7FFE7FFE7029805B07047C5
:104D700010B586B000F024FA41F20400CEF2000033
:104D80000068059040F23410C2F2000001680598F6
:104D9000401A40F22811C2F200010860086840F28F
:104DA000181EC2F2000EDEF80020B0FBF2F240F650
:104DB0006000C2F2000000230293436002600A68B0
:104DC000D0F800C04168DEF800E0ACFB0EC401FB87
:104DD0000E41B2EB0C0C63EB010240F66801C2F22B
:104DE00000010391C1F800C04A60006840F2C4327B
:104DF000C2F20002049210600868496840F21C1276
:104E0000C2F2000201921268FBF747FADDF804C013
:104E1000029B049A01460398918001684068928839
:104E2000DCF800C002FB0CF28A1A60F1000040F6C8
:104E30007001C2F200010A6048600868496840F2E7
:104E40002012C2F200021268FBF727FA0499C88008
:104E500006B010BD80B582B0FFF78AFF40F2C431C2
:104E6000C2F20001086843F60952424388884FF4B1
:104E70007A73584300EB8210C988084400210191DD
:104E800000900098019902B080BD000084B00390AA
:104E9000029103980190029800900198407800993F
:104EA0000870019800780099487004B070470000BD
:104EB00080B58EB00D908DF833100B920A939DF84B
:104EC0003300C0080590002006909DF8330080074D
:104ED000002818D5FFE7012007900B98C0F34F304A
:104EE00000900B98C0009DF8331001F0030140EAD8
:104EF000410001900A98C0F34F3002900A98C00018
:104F00000630039011E00020079000900B994901B2
:104F10009DF8332002F0020241EA02110191029051
:104F20000A98400110300390FFE79DF83300C0F36A
:104F3000800004900E200990012008900D98694689
:104F4000FBF732FE18B1FFE7FBF7FCFDFFE70EB001
:104F500080BD000080B582B001900198006800908B
:104F60000B2822D0FFE7009840F20121884206D0AA
:104F7000FFE7009840F2022188420CD021E001981E
:104F800000F11C0141F25400C2F2000000F59070E3
:104F900000F02AFE15E0019800F11C0141F25400D6
:104FA000C2F2000000F020FE0BE0019800F11C01AD
:104FB00041F25400C2F2000000F5107000F0ACFCA9
:104FC000FFE702B080BD000080B582B0019001987B
:104FD000006800901B280AD0FFE700981E2806D022
:104FE000FFE70098A0F20A20042808D30FE00199F7
:104FF00041F25400C2F2000000F05AFF08E00199AB
:1050000041F25400C2F2000000F0AAFF00E0FFE706
:1050100002B080BD81B00090009820F0004001B047
:105020007047000080B588B007900691079805F09A
:1050300034FB02900491069805F02FFB024602987B
:1050400001920B460499039305F073FE019A039BAA
:10505000049984460298BCF1000F944618BF844618
:10506000CDF814C005F065FE0399049A034605982F
:10507000002B18BF114608B080BD000080B582B07B
:10508000019000910099019805F008F802B080BDE8
:1050900080B582B00190019805F036F802B080BD6D
:1050A00080B586B00591049003930292029A039B07
:1050B0000498059904F024FF019100900298039947
:1050C00000231A4605F012FE20B3FFE70498059965
:1050D00000231A4605F026FE48B9FFE742F2FB100E
:1050E000C3F6F97001904FF0C040009011E00498B1
:1050F000059900231A4605F00EFE48B9FFE742F273
:10510000FB10CBF6F97001904FF0C0400090FFE724
:10511000FFE7FFE70498059900231A4605F0E6FD2E
:10512000F8B1FFE70298039900231A4605F0FAFD4B
:1051300020B9FFE700200190009011E00298039948
:1051400000231A4605F0E7FD48B9FFE742F2FB10DD
:10515000C4F2090001904FF0C0400090FFE7FFE764
:10516000FFE70098019906B080BD000080B582B0CD
:1051700001900198002105F0FFFD18B9FFE70198A3
:10518000009004E0019880F000400090FFE7009854
:1051900002B080BD80B582B0019000910198009965
:1051A00006F090F9FFF736FF4CF2AC51C3F22771CD
:1051B00005F0E9FD002818BF012002B080BD000005
:1051C00081B041F20400CEF2000000680090009827
:1051D00040F23011C2F200010968884208D2FFE7AC
:1051E00040F23411C2F20001086801300860FFE7A4
:1051F000009840F23011C2F20001086001B070471F
:1052000080B582B00190019840F6DB71C4F249018B
:1052100005F07EFF0021C4F2F01105F0C7FD02B0D9
:1052200080BD000080B584B003900291039802997C
:1052300005F0A2FD18B9FFE70398019002E002987B
:105240000190FFE7019804B080BD000080B58EB0EA
:105250000D900C910D980A9000208DF82F00FFE71B
:105260009DF82F0007282DDCFFE70C989DF82F10E4
:1052700001EB810100EB81000790808AFBF7D8F9F0
:10528000014607980891008BFBF7D2F9089902466E
:105290000A9800F057FA0C99C8610C9809909DF88B
:1052A0002F1001EB810100EB8101C969806805F0D5
:1052B000BBFC09998860FFE79DF82F0001308DF84D
:1052C0002F00CDE70C980690008805F081FE069926
:1052D000896805F04AFD60B9FFE70C9805900088E1
:1052E00005F076FE0599896805F060FD059948602E
:1052F00004E00C994FF07E504860FFE700208DF8E5
:105300002E00FFE79DF82E00072823DCFFE70C990D
:105310009DF82E0000EB800001EB80000390C06937
:10532000496805F0F5FE039908620C9804909DF811
:105330002E1001EB810100EB8101096AC06805F0C4
:1053400073FC0499C860FFE79DF82E0001308DF8CA
:105350002E00D7E700208DF82D00FFE79DF82D00E7
:10536000072835DCFFE70C989DF82D1001EB810133
:1053700000EB81000190808AFBF75AF90146019801
:105380000291008BFBF754F9019A029903460A989F
:10539000126A00F027F805F01BFC40F29B42CFF6A2
:1053A0005F124FF62473C3F6F36304F0B1FF05F008
:1053B00045F90C999DF82D2002EB820201EB820148
:1053C0008884FFE79DF82D0001308DF82D00C5E79A
:1053D0000A980C9901F11402096900F093F80EB0D3
:1053E00080BD000080B594B013901291119210937B
:1053F0001399079100200D900F9012980B90496817
:105400000891FFF707FE079A0146089893680A93E8
:10541000D268099205F07CFE099905F005FC014669
:10542000119806F04FF84FF0814105F071FE0A998E
:1054300005F06EFE0B990C90084605F069FE0C997C
:1054400005F0F2FB0D990E900E98FFF7A3FE68B1E0
:10545000FFE70798129906918168084605F0E4FB7A
:105460000146069805F0A2FC0F9048E00E98002136
:1054700005F082FCA8BBFFE71098002105F07CFC3A
:10548000B0B9FFE7129803900E9804F03DFE014674
:10549000039805F0C9FB0146079804918168084606
:1054A00005F0C2FB0146049805F080FC059015E06C
:1054B000129801900E9804F027FE0146019806F01C
:1054C00001F80146079802918168084605F0ACFB97
:1054D0000146029805F06AFC0590FFE705980F90D9
:1054E0000CE00798129900918168084605F09CFB32
:1054F0000146009805F05AFC0F90FFE7FFE70F9870
:1055000014B080BD80B5A0B01F901E911D921F9851
:10551000119040F65400C2F200000078BFF35F8F94
:10552000C00708BBFFE740F65400C2F2000002F0DB
:10553000DFFEC8B1FFE740F69400C2F20000109011
:1055400000F07EFF109946F26140C0F6000040F284
:105550000002C0F60002FAF718FF40F65400C2F24B
:10556000000002F0F5FEFFE740F65000C2F2000036
:105570000078BFF35F8FC00708BBFFE740F650001D
:10558000C2F2000002F0B4FEC8B1FFE740F67C00B2
:10559000C2F200000F9000F053FF0F9946F26140F5
:1055A000C0F6000040F20002C0F60002FAF7EDFE7D
:1055B00040F65000C2F2000002F0CAFEFFE70020F1
:1055C0001C90FFE71C9807286FDCFFE71E9800215E
:1055D000C4F2A00105F0D0FB002861D1FFE71D98BF
:1055E00005901C9901EB8101049100EB810040883A
:1055F000FBF71EF8049902460598069230F8210040
:10560000FBF716F8FFF7FCFD0146069840F6780216
:10561000C2F2000208921268079205F079FD07991C
:1056200005F002FB089908601D981C9901EB8101A7
:1056300030F82100FAF7FCFFFFF7E2FD20F0004010
:10564000099000201B9040F69400C2F200000B90DD
:105650001BA900F015FF09990A90006805F0E4FA0B
:105660000A9908601D981C9901EB810100EB8100EB
:105670004088FAF7DDFF01460B980C9101211A9141
:105680001AA900F0FDFE0C990E9000680D900846D6
:1056900005F03EFD0D9905F0C7FA0E990860FFE789
:1056A000FFE71C9801301C908CE71E9840F67801AB
:1056B000C2F20001096805F005FF0146119800914A
:1056C000C0684FF0414105F023FD009905F0ACFAA8
:1056D000024640F6D870C2F2000040F69401C2F2D1
:1056E000000100F043FD014614A8019000F090FE77
:1056F000019940F67C00C2F20000029000F0B6FE74
:10570000019800F0ADFE02980021139113A900F05A
:10571000B7FE00684CF2AC51C3F227710391FFF75A
:1057200081FD119A0146029851600121129112A93E
:1057300000F0A6FE03990068FFF774FD11998860D8
:1057400020B080BD80B58EB00D900C910B920D985D
:1057500005900021099100F02BF80146059807916A
:1057600000F02CF806900C9802900B990191FFF72D
:1057700051FC079905F0CCFC01990246029803926E
:1057800005F0C6FC039905F04FFA04900B99084602
:1057900005F0BEFC069905F0BBFC049905F044FA3F
:1057A0000599C96805F040FA0A900A980EB080BDC4
:1057B00081B000900098406801B0704781B00090BF
:1057C0000098806801B0704781B0009000984CF656
:1057D0008601C3F23661016046F26661C3F6A671C6
:1057E00041604CF28F21C3F67541816046F26661DB
:1057F000C3F68671C160002101614CF6CD41C4F24F
:105800001811416101B0704780B590B00F900F98AA
:105810000990006820300A90FFF71CFB02460998A7
:1058200040F6AC01C2F2000107910A60096840F637
:10583000B002C2F2000208921268891AADF83A105A
:105840000A99D1F80310C161C06904F03DFF00223C
:10585000039248F20003C4F27603049304F0C0FFFD
:105860000246099801920291C08804F016FF024690
:1058700001980B46029904F04BFD04F05BFC0146D5
:1058800009984162406A0021C4F2B431FFF7F6FB87
:1058900009998862C869096A401ABDF83A10B0FBD4
:1058A000F1F004F011FF039A48F28043C4F22E1382
:1058B00004F096FF039A049B04F092FF02460998B5
:1058C00005920691C08804F0E8FE024605980B4652
:1058D000069904F01DFD04F02DFC0799089A034673
:1058E0000998C362C369036209681160007E20B928
:1058F000FFE7099901200876FFE710B080BD00009E
:1059000081B000900098806A01B0704781B000902B
:105910000098C06A01B0704780B582B001900091D4
:105920000198016901310161FFF76EFF02B080BD8E
:1059300010B586B08C46864609980899CDF814E0D3
:10594000CDF810C08DF80F208DF80E30ADF80C108A
:105950008DF80B00059801900498006846F200410C
:10596000C4F20001884207D1FFE7019940F28800A4
:10597000C2F20000086010E00498006846F60001DA
:10598000C4F20001884207D1FFE7019940F2EC0020
:10599000C2F200000860FFE7FFE701999DF80F00E1
:1059A000087104989DF80F10FFF7E0F80199C8609E
:1059B0009DF80E000872BDF80C00C8809DF80B0021
:1059C000487206B010BD000081B000900098002120
:1059D000016141610176417601B0704780B58AB0BE
:1059E000099009980490D0F8A000203005900598FF
:1059F00008A9FFF74BFA059802300DF11E01FFF7D9
:105A000045FA0598043007A9FFF740FA05980630D3
:105A10000DF11A01FFF73AFA049890F8B400012842
:105A20002CD1FFE70499BDF82000D1F8E020801ABE
:105A3000ADF82200BDF92200B1F8B6104A42C1EB20
:105A4000D271B0EB610F07DAFFE70499D1F8E800F3
:105A50000130C1F8E80010E00499BDF92200B1F866
:105A6000B610B0EB510F07DDFFE70499D1F8E8005D
:105A70000138C1F8E800FFE7FFE7FFE70498D0F836
:105A8000E810B0F8B620BDF8203001FB0231C0F8B4
:105A9000E410D0F8AC100191D0F8E40005F098FAC9
:105AA000014604980091B0F8B60005F0B5FA014639
:105AB000009805F07BF90146084605F0B5F840F678
:105AC000DB71C4F2490105F023FB019905F06EF981
:105AD00001460498C0F8CC10D0F8AC100391D0F86F
