:020000040800F2
:10000000E00A0020050200080D3D0008053900083F
:10001000093D0008710700085D4500080000000068
:10002000000000000000000000000000D53D0008B6
:10003000D507000800000000913D0008353E00088B
:100040001F0200081F0200081F0200081F0200080C
:100050001F0200081F0200081F0200081F020008FC
:100060001F0200081F0200081F0200081F020008EC
:100070001F0200081F0200081F0200081F020008DC
:10008000B5070008C50700081F0200081F02000886
:1000900075070008850700081F0200081F020008F6
:1000A0001F020008C93E00081F0200081F020008C6
:1000B000D93E0008E93E00081F0200081F020008A0
:1000C0001F0200081F0200081F0200081F0200088C
:1000D0001F0200081F0200081F0200081F0200087C
:1000E0001F0200081F0200081F0200080000000095
:1000F0000000000000000000000000000000000000
:1001000000000000000000001F0200081F0200089D
:100110001F0200081F0200081F0200081F0200083B
:100120001F0200081F0200081F0200081F0200082B
:100130001F02000800000000000000001F0200086D
:1001400095070008A50700081F0200081F02000805
:1001500000F002F800F044F80AA090E8000C824495
:100160008344AAF10107DA4501D100F039F8AFF272
:10017000090EBAE80F0013F0010F18BFFB1A43F085
:1001800001031847F045000010460000103A24BF54
:1001900078C878C1FAD8520724BF30C830C144BFEC
:1001A00004680C607047000000230024002500262E
:1001B000103A28BF78C1FBD8520728BF30C148BFCA
:1001C0000B6070471FB59DE8030000F039F900F09F
:1001D00017F88DE80F0000F005F91FBD10B510BD30
:1001E00000F04AFA1146FFF7EDFF04F08DFA00F037
:1001F00068FA03B4FFF7F2FF03BC00F00FFA000047
:1002000000F07BB90948804709480047FEE7FEE750
:10021000FEE7FEE7FEE7FEE7FEE7FEE7FEE7FEE7B6
:1002200004480549054A064B70470000C53E0008D2
:1002300051010008E0040020E00A0020E006002050
:10024000E006002070B5064600F0DEF8056806F10D
:100250000B0020F00704B4429CBF002070BD2B4669
:100260006A68BAB11068A04210D304F1080188424C
:100270003CBF5068586007D351681019416011683D
:10028000091B016058601460101D70BD1346526850
:10029000002AE7D12146284600F0BEF80028DED12A
:1002A00070BD53EA020C00F069802DE9F04B4FF06D
:1002B0000006002B1FBFB3FA83F503FA05F424FAF6
:1002C00005F65E4012BF1643B2FA82F502FA05F453
:1002D000C5F120051EBF22FA05FC44EA0C042035B6
:1002E00056EA044C4FEA144418BF641C4FF000084F
:1002F0004FF00009904271EB030C39D3002919BF6C
:10030000B1FA81F701FA07F6B0FA80F700FA07F6BA
:10031000C7F120071EBF20FA07FC46EA0C0620376B
:10032000B6FBF4FCA7EB0507103F07F01F0BCBF162
:1003300020062CFA06F60CFA0BFB44BFB346002647
:10034000202FA4BF5E464FF0000B5BEA060C08BFEF
:100350004FF0010B19EB0B0948EB0608ABFB027CD5
:1003600006FB02CC0BFB03CCC01B71EB0C01C1E7FD
:100370000B46024641464846BDE8F08B13B54FF0A8
:1003800000004FF00001AFF30080BDE81C40704753
:100390004FF0000200B5134694469646203922BF1E
:1003A000A0E80C50A0E80C50B1F12001BFF4F7AF69
:1003B000090728BFA0E80C5048BF0CC05DF804EB4B
:1003C000890028BF40F8042B08BF704748BF20F8B9
:1003D000022B11F0804F18BF00F8012B70477047B7
:1003E0007047704770B5064C7C44064D7D4403E071
:1003F000206820448047241DAC42F9D170BD000024
:10040000A8430000A84300000048704718000020DF
:10041000704770477047704738B504460A46002059
:100420006946AFF30080002808BF38BD0246009936
:10043000204600F0FFF8012038BD012000F014B97B
:10044000F8B5AFF30080054600200C46102000BF31
:100450000646A819A0420DD9324669460020AFF3DE
:100460000080070008BF00F0FFF80098A04218BF06
:100470000546C419FFF7C8FF05600746F01D20F0C8
:1004800007004619284600F00AF8B44208BFF8BD34
:10049000A21B31463868BDE8F84000F0CBB8002117
:1004A0000160C0E9011070471020704770B5044624
:1004B000051FFFF7A9FF0068002C14BF446870BD3A
:1004C000002C18BFAC423CBF20466468F8D30168DA
:1004D0000A18AA4218BF456003D12A68054611448C
:1004E000016028684119A1421CBF6C6070BD616841
:1004F000696021680844286070BD2DE9FE4F00271F
:100500004FF48074BA4620468DF80070FFF79AFECB
:100510005FEA000801D100F0A7F82146404600F04C
:1005200070F8060009D04FF0010B4546C14616F899
:10053000014B8FB15C2C16D01CE008F1080041463D
:10054000C8F800000020C8F80400D8F80040207067
:10055000012003B0BDE8F08F222C01D0272C0FD151
:100560002746BA462CE03078222807D05C2805D0F0
:10057000272803D0BC4203D1002721E0761C044683
:100580004CB12FB9202C06D0A4F10900042802D9BF
:1005900005F8014BCBE74D4502D1BAF1000F0FD062
:1005A00052464946002005F8010B6846AFF300802B
:1005B0009DF8000068B14D464FF0000A0BF1010BA9
:1005C000002CB4D14FEA8B00FFF73CFE040002D0B0
:1005D00004E0A946F0E7002000F046F80026404677
:1005E000C4F8008005E010F8011B11B9761C44F82E
:1005F0002600A842F7D32146002044F826003046C2
:10060000A7E71CB50446CDE9000169461520ABBE3D
:1006100008B100201CBD20461CBD00000149182067
:10062000ABBEFEE726000200004870471000002025
:1006300070477047034640688C46002818BF8842C0
:100640003CBF03464068F8D318681844884207D076
:100650000CF1030020F00700001D411A521A014658
:10066000081D0A60FFF722BF10B500F039F8BDE899
:10067000104000F02FB870477546FFF7D5FFAE4623
:1006800005006946534620F00700854618B020B59E
:10069000FFF7C6FDBDE820404FF000064FF0000711
:1006A0004FF000084FF0000BAC46ACE8C009ACE8D6
:1006B000C009ACE8C009ACE8C00921F007018D46CB
:1006C000704710B50446AFF300802046BDE81040E7
:1006D000FFF78FBD002801D0FFF7A0BF70470000D3
:1006E00010B5012805D0002103A000F021F8012059
:1006F00010BD09A1F8E7000053494752544D454D3C
:100700003A204F7574206F662068656170206D65B2
:100710006D6F7279000000003A2048656170206DAD
:10072000656D6F727920636F7272757074656400A5
:1007300070B505460C460A2000E06D1C00F011F86B
:1007400035B128780028F8D102E0641C00F009F8DF
:1007500014B120780028F8D1BDE870400A20AFF32A
:10076000008008B569468DF800000320ABBE08BDC7
:10077000FFE7FEE780B540F2E420C2F2000000F09F
:1007800053F980BD80B540F2E420C2F2000000F0D1
:100790004BF980BD80B540F20C30C2F2000000F091
:1007A00043F980BD80B540F20C30C2F2000000F089
:1007B0003BF980BD80B540F23430C2F2000000F059
:1007C000F1FD80BD80B540F27830C2F2000000F04B
:1007D000E9FD80BD7047000081B0EFF3108072B674
:1007E0000090FFE7FEE7000082B001460190009113
:1007F00002B07047B0B58AB09C4696460C46054696
:100800000890079106920593089890F820008DF8BB
:1008100013009DF813000128CDF80CC0CDF808E0B6
:100820000194009506D0FFE79DF81300022840F0E0
:10083000ED80FFE70798002811D1FFE708980068CE
:10084000C06810F0030F09D1FFE70898416A41F42E
:100850000011416201208DF82700E0E010E00898C7
:100860000068006910F0030F09D1FFE70898416A9A
:1008700041F40011416201208DF82700CFE0FFE72D
:1008800008980068079900EB0110D0F8B00100F05B
:100890000400069988600698806800280BD1FFE75D
:1008A00008980068079900EB0110D0F8B001400DDE
:1008B000069908600AE008980068079900EB0110A3
:1008C000D0F8B001C00806994860FFE708980068B2
:1008D000079900EB0110D0F8B00100F00200069972
:1008E000C86008980068079900EB0110D0F8B401BF
:1008F00000F00F00082804D3FFE7069808210161E3
:100900000BE008980068079900EB0110D0F8B401DB
:1009100000F00F0006990861FFE708980068079942
:1009200000EB0110D0F8B401C0F3072006998861EC
:1009300008980068079900EB0110D0F8B401000C8A
:100940000699486108980068079900EB0110D0F8F3
:10095000B8010599087008980068079900EB011024
:10096000D0F8B801000A05994870089800680799FE
:1009700000EB0110D0F8B801000C059988700898B8
:100980000068079900EB0110D0F8B801000E059936
:10099000C87008980068079900EB0110D0F8BC01F6
:1009A0000599087108980068079900EB0110D0F8C4
:1009B000BC01000A0599487108980068079900EB86
:1009C0000110D0F8BC01000C0599887108980068E6
:1009D000079900EB0110D0F8BC01000E0599C87111
:1009E0000798002807D1FFE708980068C16841F020
:1009F0002001C16006E008980068016941F020010B
:100A00000161FFE700208DF8270008E00898416A9F
:100A100041F48021416201208DF82700FFE79DF815
:100A200027000AB0B0BD000080B58AB00146099029
:100A300000200890099800684069079009980068AC
:100A400040680690099800688068059009980068D9
:100A5000C0680490099800680069039009980068CC
:100A6000806902909DF81C00C0070028019100F0E9
:100A70009780FFE79DF81400C00700282BD0FFE700
:100A800009980068012181609DF814008007002802
:100A900004D5FFE7099800F061FC1BE09DF8140005
:100AA0004007002805D5FFE7089840F4006008904B
:100AB0000FE09DF814000007002805D5FFE708980F
:100AC00040F48050089003E0099800F041FCFFE7F3
:100AD000FFE7FFE7FFE79DF81500C00700282CD0CF
:100AE000FFE7099800684FF4807181609DF8150058
:100AF0008007002804D5FFE7099800F03BFC1BE0C5
:100B00009DF815004007002805D5FFE7089840F438
:100B1000005008900FE09DF815000007002805D54B
:100B2000FFE7089840F48040089003E0099800F03F
:100B30001BFCFFE7FFE7FFE7FFE79DF81600C00794
:100B400000282CD0FFE7099800684FF480318160BD
:100B50009DF816008007002804D5FFE7099800F0EB
:100B600015FC1BE09DF816004007002805D5FFE79F
:100B7000089840F4004008900FE09DF81600000728
:100B8000002805D5FFE7089840F48030089003E07E
:100B9000099800F0F5FBFFE7FFE7FFE7FFE7FFE756
:100BA0009DF81C000007002810D5FFE79DF81000F5
:100BB000C006002809D5FFE7089840F400700890A7
:100BC000099800681021C160FFE7FFE79DF81C004D
:100BD000400700280FD5FFE79DF810000007002808
:100BE00008D5FFE7099800680821C160099800F05E
:100BF00011FBFFE7FFE79DF81C00800700280CD5DC
:100C0000FFE709980068C06810F0030F04D0FFE701
:100C1000099800F005FBFFE7FFE79DF81C00400680
:100C2000002810D5FFE79DF80C00C006002809D564
:100C3000FFE7089840F48060089009980068102148
:100C40000161FFE7FFE79DF81C00800600280FD533
:100C5000FFE79DF80C000007002808D5FFE709987A
:100C6000006808210161099800F020FBFFE7FFE719
:100C70009DF81C00C00600280CD5FFE70998006805
:100C8000006910F0030F04D0FFE7099800F014FB8F
:100C9000FFE7FFE79DF81E00800700280FD5FFE75C
:100CA0009DF81800C006002808D5FFE709980068DD
:100CB00010214160099800F045FBFFE7FFE79DF830
:100CC0001E00C00700280FD0FFE79DF8180000079E
:100CD000002808D5FFE709980068082141600998B5
:100CE00000F05AFBFFE7FFE79DF81D000006002813
:100CF00040F18F80FFE79DF818004007002840F181
:100D00008380FFE79DF81D00C00700280BD0FFE798
:100D10009DF80800C007002805D0FFE7089840F0BC
:100D200001000890FFE79DF81D00800700280BD503
:100D3000FFE79DF808008007002805D5FFE7089821
:100D400040F002000890FFE79DF81D0040070028D2
:100D50000BD5FFE79DF808004007002805D5FFE701
:100D6000089840F004000890FFE79DF81D00000778
:100D7000002848D5FFE79DF8080010F0700F42D01A
:100D8000FFE7029800F0700001461028009114D08F
:100D9000FFE70098202815D0FFE70098302816D0EC
:100DA000FFE70098402817D0FFE70098502818D098
:100DB000FFE70098602819D01DE0089840F008006F
:100DC000089019E0089840F01000089014E0089886
:100DD00040F0200008900FE0089840F04000089094
:100DE0000AE0089840F08000089005E0089840F478
:100DF0008070089000E0FFE709980068816921F0A1
:100E000070018161FFE7FFE70998006804214160F4
:100E1000FFE70898002809D0FFE7089809994A6A6F
:100E2000104348620998FFF7DFFCFFE70AB080BD76
:100E300080B584B00146029002980028009104D148
:100E4000FFE701208DF80F00E6E0029890F82000FF
:100E5000002804D1FFE7029800F0E2F8FFE70298CB
:100E60000068016841F00101016001F027F801907C
:100E7000FFE702980068406810F0010F17D1FFE704
:100E800001F01CF8DDF804E0A0EB0E000B280DD3F8
:100E9000FFE70298416A41F400314162029805215E
:100EA00080F8201001208DF80F00B5E0E1E70298EE
:100EB0000068016821F00201016000F0FFFF01906D
:100EC000FFE702980068406810F0020F17D0FFE7B4
:100ED00000F0F4FFDDF804E0A0EB0E000B280DD3CA
:100EE000FFE70298416A41F400314162029805210E
:100EF00080F8201001208DF80F008DE0E1E70298C6
:100F0000007E012807D1FFE702980068016841F0E0
:100F10008001016006E002980068016821F080010C
:100F20000160FFE70298407E012807D1FFE70298A1
:100F30000068016841F04001016006E00298006825
:100F4000016821F040010160FFE70298807E0128DE
:100F500007D1FFE702980068016841F020010160B5
:100F600006E002980068016821F020010160FFE7B7
:100F70000298C07E012807D1FFE702980068016847
:100F800021F01001016006E002980068016841F05C
:100F900010010160FFE70298007F012807D1FFE7F9
:100FA00002980068016841F00801016006E00298BB
:100FB0000068016821F008010160FFE70298407FA6
:100FC000012807D1FFE702980068016841F0040199
:100FD000016006E002980068016821F004010160E8
:100FE000FFE70298016842688368D0F80CC043EAC2
:100FF0000C03D0F810C043EA0C0340691843013ACF
:101000001043C8610298002141620298012280F8D1
:1010100020208DF80F10FFE79DF80F0004B080BD71
:1010200080B59CB001461B9000201A901990189032
:1010300017901B98006846F20042C4F200029042EA
:1010400010916FD1FFE740F2C800C2F200000168C2
:10105000013101600068012811D1FFE7FFE741F28B
:101060001C00C4F20200016841F0007101600068D8
:1010700000F00070169016980F90FFE7FFE7FFE76B
:1010800041F21800C4F20200016841F00801016059
:10109000006800F00800159015980E90FFE74FF4D7
:1010A0008070179000201890199040F60040C4F20C
:1010B000010017A90D900C9100F042FD4FF4007053
:1010C00017900220189003201A900D980C9900F0A8
:1010D00037FDFFE70420C4F2010001681491149960
:1010E00021F4C0411491149941F0E06114911499D4
:1010F00041F48041149114990160FFE7142000210C
:101100000B900A910A9A00F07FFF0B9800F070FF95
:10111000152009900A990A9A00F076FF099800F0C4
:1011200067FF75E01B98006846F60001C4F20001F5
:1011300088426CD1FFE7FFE741F21C00C4F20200D5
:10114000016841F080610160006800F080601390E8
:1011500013980890FFE740F2C800C2F2000001684F
:10116000013101600068012811D1FFE7FFE741F27A
:101170001C00C4F20200016841F0007101600068C7
:1011800000F00070129012980790FFE7FFE7FFE76A
:1011900041F21800C4F20200016841F00801016048
:1011A000006800F00800119011980690FFE74FF4D6
:1011B0008050179000201890199040F60041C4F21A
:1011C000010117AA0590084604911146039200F008
:1011D000B7FC4FF4005017900220189003201A908B
:1011E0000498039900F0ACFC402002900599059A00
:1011F00000F00AFF029800F0FBFE412001900599E3
:10120000059A00F001FF019800F0F2FEFFE7FFE70A
:101210001CB080BD82B001460190009102B07047C1
:1012200080B588B0014607900798006846F20042F2
:10123000C4F200029042069116D1FFE7079840F2EF
:101240007001C2F200010A1D01F120034FF0000CF1
:10125000059161460492FFF7CDFA05998A6A049BCD
:101260000390184690471FE00798006846F6000173
:10127000C4F20001884216D1FFE7079840F29C01B2
:10128000C2F200010A1D01F120034FF0000C02918F
:1012900061460192FFF7AEFA02998A6A019B0090BB
:1012A00018469047FFE7FFE708B080BD82B00146CF
:1012B0000190009102B0704780B588B00146079058
:1012C0000798006846F20042C4F20002904206917C
:1012D00016D1FFE7079840F27001C2F200010A1D23
:1012E00001F120034FF0010C059161460492FFF7D4
:1012F00081FA05998A6A049B0390184690471FE07B
:101300000798006846F60001C4F20001884216D131
:10131000FFE7079840F29C01C2F200010A1D01F1AB
:1013200020034FF0010C029161460192FFF762FA2F
:1013300002998A6A019B009018469047FFE7FFE7F1
:1013400008B080BD82B001460190009102B07047A4
:1013500082B001460190009102B0704782B0014610
:101360000190009102B0704782B001460190009157
:1013700002B0704782B001460190009102B0704700
:1013800082B001460190009102B0704782B00146E0
:101390000190009102B0704782B001460190009127
:1013A00002B0704780B5ACB001462B902B98C06B53
:1013B00000682A902B980068006829902A982B9A38
:1013C000126C042303FA02F21042289100F0768195
:1013D000FFE79DF8A4004007002840F16F81FFE778
:1013E0002B980068006810F0200F07D1FFE72B98BA
:1013F0000068016821F004010160FFE72B98006894
:101400008121C4F202018842C0F0A880FFE72B9836
:1014100000680821C4F20201884203D1FFE70420DA
:10142000279094E02B9800681C21C4F202018842A6
:1014300003D1FFE74020269086E02B9800683021FA
:10144000C4F20201884204D1FFE74FF48060259086
:1014500077E02B9800684421C4F20201884204D14D
:10146000FFE74FF48040249068E02B9800685821F3
:10147000C4F20201884204D1FFE74FF48020239098
:1014800059E02B9800686C21C4F20201884204D113
:10149000FFE74FF4800022904AE02B9800688021FB
:1014A000C4F20201884204D1FFE74FF0806021902E
:1014B0003BE02B98006840F20841C4F202018842E8
:1014C00003D1FFE7042020902CE02B98006840F225
:1014D0001C41C4F20201884203D1FFE740201F9063
:1014E0001DE02B98006840F23041C4F202018842AE
:1014F00004D1FFE74FF480601E900DE02B98006848
:1015000040F24441C4F202014FF48022884208BFF5
:101510004FF480421E92FFE71E981F90FFE71F982E
:101520002090FFE720982190FFE721982290FFE785
:1015300022982390FFE723982490FFE72498259092
:10154000FFE725982690FFE726982790FFE7279842
:1015500040F20441C4F202010860A5E02B98006843
:101560000821C4F20201884203D1FFE704201D9044
:1015700094E02B9800681C21C4F20201884203D138
:10158000FFE740201C9086E02B9800683021C4F2D1
:101590000201884204D1FFE74FF480601B9077E09E
:1015A0002B9800684421C4F20201884204D1FFE76D
:1015B0004FF480401A9068E02B9800685821C4F2DC
:1015C0000201884204D1FFE74FF48020199059E0CE
:1015D0002B9800686C21C4F20201884204D1FFE715
:1015E0004FF4800018904AE02B9800688021C4F2E4
:1015F0000201884204D1FFE74FF0806017903BE082
:101600002B98006840F20841C4F20201884203D1DD
:10161000FFE7042016902CE02B98006840F21C4154
:10162000C4F20201884203D1FFE7402015901DE07B
:101630002B98006840F23041C4F20201884204D184
:10164000FFE74FF4806014900DE02B98006840F2A3
:101650004441C4F202014FF48022884208BF4FF493
:1016600080421492FFE714981590FFE715981690A2
:10167000FFE716981790FFE717981890FFE718985C
:101680001990FFE719981A90FFE71A981B90FFE747
:101690001B981C90FFE71C981D90FFE71D980421E4
:1016A000C4F202010860FFE72B98C06A002804D04A
:1016B000FFE72B98C16A8847FFE7BAE12A982B9980
:1016C000096C022202FA01F1084200F08081FFE772
:1016D0009DF8A4008007002840F17981FFE72B984E
:1016E0000068006810F0200F0BD1FFE72B9800680E
:1016F000016821F00A0101602B98012180F8211076
:10170000FFE72B9800688121C4F202018842C0F0F3
:10171000A880FFE72B9800680821C4F202018842E4
:1017200003D1FFE70220139094E02B9800681C215E
:10173000C4F20201884203D1FFE72020129086E024
:101740002B9800683021C4F20201884204D1FFE7DF
:101750004FF40070119077E02B9800684421C4F298
:101760000201884204D1FFE74FF40050109068E076
:101770002B9800685821C4F20201884204D1FFE787
:101780004FF400300F9059E02B9800686C21C4F2A0
:101790000201884204D1FFE74FF400100E904AE0A6
:1017A0002B9800688021C4F20201884204D1FFE72F
:1017B0004FF000700D903BE02B98006840F208411C
:1017C000C4F20201884203D1FFE702200C902CE012
:1017D0002B98006840F21C41C4F20201884203D1F8
:1017E000FFE720200B901DE02B98006840F230416D
:1017F000C4F20201884204D1FFE74FF400700A905E
:101800000DE02B98006840F24441C4F202014FF40D
:101810000032884208BF4FF400520A92FFE70A984C
:101820000B90FFE70B980C90FFE70C980D90FFE7EB
:101830000D980E90FFE70E980F90FFE70F9810900D
:10184000FFE710981190FFE711981290FFE71298A8
:101850001390FFE7139840F20441C4F202010860BC
:10186000A5E02B9800680821C4F20201884203D148
:10187000FFE70220099094E02B9800681C21C4F235
:101880000201884203D1FFE72020089086E02B98D0
:1018900000683021C4F20201884204D1FFE74FF40E
:1018A0000070079077E02B9800684421C4F2020191
:1018B000884204D1FFE74FF40050069068E02B986F
:1018C00000685821C4F20201884204D1FFE74FF4B6
:1018D0000030059059E02B9800686C21C4F2020199
:1018E000884204D1FFE74FF4001004904AE02B989F
:1018F00000688021C4F20201884204D1FFE74FF062
:10190000007003903BE02B98006840F20841C4F25D
:101910000201884203D1FFE7022002902CE02B98BD
:10192000006840F21C41C4F20201884203D1FFE783
:10193000202001901DE02B98006840F23041C4F255
:101940000201884204D1FFE74FF4007000900DE0DF
:101950002B98006840F24441C4F202014FF4003277
:10196000884208BF4FF400520092FFE700980190B0
:10197000FFE701980290FFE702980390FFE70398C2
:101980000490FFE704980590FFE705980690FFE7AD
:1019900006980790FFE707980890FFE708980990D6
:1019A000FFE709980421C4F202010860FFE7FFE79E
:1019B0002B98002180F82010FFE72B98806A0028E0
:1019C00004D0FFE72B98816A8847FFE730E02A9828
:1019D0002B99096C082202FA01F1084227D0FFE78F
:1019E00029980007002822D5FFE72B980068016896
:1019F00021F00E0101602B98C16B006C012202FAEC
:101A000000F048602B9882632B9880F82120FFE734
:101A10002B98002180F82010FFE72B98006B0028FE
:101A200004D0FFE72B98016B8847FFE7FFE7FFE74C
:101A3000FFE72CB080BD000086B001460490002076
:101A4000039004980028029104D1FFE701208DF84B
:101A5000170070E00498006840F20741C4F20201E8
:101A600088421BD8FFE7049801684FF6F872CBF65E
:101A7000FD7211444CF6CD42CCF6CC42A1FB0212D1
:101A80004FF6FC73C3F6FF7303EA920202640498F4
:101A90000022C4F20202C26301911BE004980168B3
:101AA0004FF6F832CBF6FD7211444CF6CD42CCF62F
:101AB000CC42A1FB02124FF6FC73C3F6FF7303EA9C
:101AC00092020264049840F20042C4F20202C2632D
:101AD0000091FFE70498022180F821100498006823
:101AE00000680390039843F6F071884303900498CC
:101AF00041688268C368D0F810C01143194341EAB5
:101B00000C014269114382691143C069084303997A
:101B10000843039003980499096808600498002119
:101B200081630498012280F82120049880F8201015
:101B30008DF81710FFE79DF8170006B070470000FA
:101B400093B00A46034612901191002010900C9019
:101B500008920793FFE7119800681099C840002881
:101B600000F08881FFE71098012101FA00F00F9042
:101B7000119800680F9908400E900E980F998842AE
:101B800040F07481FFE7119840680028069051D01A
:101B9000FFE7069801283AD0FFE7069802283FD0D1
:101BA000FFE70698032860D0FFE70698112832D097
:101BB000FFE70698122838D0FFE70020C1F2110095
:101BC0000699814236D0FFE70020C1F21200069943
:101BD00081422FD0FFE70020C1F221000699814207
:101BE00028D0FFE70020C1F222000699814221D0CF
:101BF000FFE70020C1F23100069981421AD0FFE7C9
:101C00000020C1F232000699814213D030E01198D1
:101C1000C0680C902DE01198C06804300C9028E04A
:101C20001198C06808300C9023E01198C0680C30FF
:101C30000C901EE011988068002803D1FFE7042073
:101C40000C9011E011988068012806D1FFE7082068
:101C50000C900F981299086105E008200C900F98DD
:101C600012994861FFE7FFE703E000200C9000E0D5
:101C7000FFE70E98FF2803D8FFE71298059003E0CE
:101C8000129804300590FFE705980B900E98FF28F6
:101C900004D8FFE710988000049006E010986FF0D9
:101CA0001F0101EB80000490FFE704980A900B9855
:101CB00000680A990F228A4090430C9A02FA01F1B7
:101CC00008430B99086011984068C000002840F153
:101CD000CC80FFE7FFE741F21800C4F20200016880
:101CE00041F001010160006800F0010009900998CD
:101CF0000390FFE7109820F003000821C4F20101CF
:101D000040580D90109800F0030080000F2101FA58
:101D100000F00D9921EA00000D90129840F60001A4
:101D2000C4F20101884203D1FFE70020029026E0BF
:101D3000129840F60041C4F20101884203D1FFE746
:101D40000120019018E0129841F20001C4F2010153
:101D5000884203D1FFE7022000900AE0129841F286
:101D60000041C4F201010422884208BF032200920C
:101D7000FFE700980190FFE701980290FFE70298C3
:101D8000109901F00301890088400D9908430D90D6
:101D90000D98109921F003010822C4F20102885025
:101DA00011984068C002002809D5FFE70E9840F25C
:101DB0000841C4F201010A681043086009E00E9866
:101DC00040F20841C4F201010A6822EA00000860FA
:101DD000FFE7119840688002002809D5FFE70E98B8
:101DE00040F20C41C4F201010A681043086009E0A6
:101DF0000E9840F20C41C4F201010A6822EA000088
:101E00000860FFE7119840688003002809D5FFE7C4
:101E10000E9840F20441C4F201010A6810430860C0
:101E200009E00E9840F20441C4F201010A6822EA76
:101E300000000860FFE711984068C003002809D53A
:101E4000FFE70E9840F20041C4F201010A68104316
:101E5000086009E00E9840F20041C4F201010A68EE
:101E600022EA00000860FFE7FFE7FFE71098013073
:101E7000109070E613B0704780B585B013468C465D
:101E800086460490ADF80E108DF80D209DF80D00DB
:101E900000280293CDF804C0CDF800E005D0FFE79C
:101EA000BDF80E000499086105E0BDF80E000004BD
:101EB00004990861FFE705B080BD000040F2DC40F6
:101EC000C2F200000068704740F20400C2F2000055
:101ED000007840F2DC41C2F200010A681044086058
:101EE0007047000080B582B042F20000C4F20200E8
:101EF000016841F010010160032000F0A9F80F20F3
:101F000000F006F8019000F03FF8002002B080BD1C
:101F100080B584B00146029040F20000C2F2000099
:101F2000006840F20402C2F2000212784FF47A73A1
:101F3000B3FBF2F2B0FBF2F0019100F0BBFE00281F
:101F400004D0FFE701208DF80F0018E002980F2859
:101F50000DD8FFE702994FF0FF30002200F054F84F
:101F6000029840F20801C2F20001086003E001207B
:101F70008DF80F0003E000208DF80F00FFE79DF8BB
:101F80000F0004B080BD000085B0FFE741F21800EB
:101F9000C4F20200016841F001010160006800F034
:101FA0000100049004980190FFE7FFE741F21C0054
:101FB000C4F20200016841F080510160006800F045
:101FC0008050039003980090FFE7FFE70420C4F2DD
:101FD000010001680291029921F0E06102910299E9
:101FE00041F00071029102990160FFE705B070476E
:101FF00080B582B001468DF807009DF90700009179
:1020000002F010FB02B080BD80B58AB013468C464A
:1020100086468DF8270008910792002006900593C8
:10202000CDF810C0CDF80CE002F018FB0690069831
:102030000899079A9DF92730029301F069FE0299E9
:1020400001900846019902F011FB0AB080BD000022
:1020500080B582B0014601900198009102F02CFBFE
:1020600002B080BD80B588B00A460346069005914F
:10207000069800280392029304D1FFE701208DF80F
:102080001F0020E1059842F20001C4F20201096834
:1020900001F00701884216D9FFE742F20000C4F2BE
:1020A0000200016821F00701059A114301600068F0
:1020B00000F007000599884204D0FFE701208DF861
:1020C0001F0000E1FFE706980068800700282AD576
:1020D000FFE7069800684007002809D5FFE741F2AE
:1020E0000400C4F20200016841F4E0610160FFE70E
:1020F000069800680007002809D5FFE741F20400B0
:10210000C4F20200016841F460510160FFE741F24E
:102110000400C4F20200016821F0F001069A9268FE
:1021200011430160FFE706980068C007002862D0ED
:10213000FFE70698406801280ED1FFE741F2000052
:10214000C4F20200006810F4003F04D1FFE7012050
:102150008DF81F00B7E021E00698406802280ED1F4
:10216000FFE741F20000C4F20200006810F0007FB7
:1021700004D1FFE701208DF81F00A4E00DE041F23B
:102180000000C4F20200006810F0020F04D1FFE763
:1021900001208DF81F0096E0FFE7FFE741F2040001
:1021A000C4F20200016821F00301069A526811434B
:1021B0000160FFF783FE0490FFE741F20400C4F2E0
:1021C0000200006800F00C0006994968B0EB810F2E
:1021D00010D0FFE7FFF772FEDDF810E0A0EB0E0075
:1021E00041F2893E704504D3FFE703208DF81F00BC
:1021F00069E0E2E7FFE7059842F20001C4F202015C
:10220000096801F00701884216D2FFE742F2000098
:10221000C4F20200016821F00701059A1143016030
:10222000006800F007000599884204D0FFE701200C
:102230008DF81F0047E0FFE7069800684007002878
:102240000CD5FFE741F20400C4F20200016821F45A
:10225000E061069AD26811430160FFE706980068C2
:10226000000700280DD5FFE741F20400C4F2020088
:10227000016821F46051069A126941EAC2010160C5
:10228000FFE700F053F841F2040EC4F2020EDEF84C
:1022900000E0CEF3031E44F23E71C0F6000111F8D7
:1022A0000E10C84040F20001C2F20001086040F286
:1022B0000800C2F200000068FFF72AFE00218DF836
:1022C0001F100190FFE79DF81F0008B080BD0000BF
:1022D00040F20000C2F200000068704780B5FFF7CE
:1022E000F7FF41F2040EC4F2020EDEF800E0CEF376
:1022F000022E44F24E71C0F6000111F80E10C840D3
:1023000080BD000080B5FFF7E3FF41F2040EC4F288
:10231000020EDEF800E0CEF3C22E44F24E71C0F69B
:10232000000111F80E10C84080BD000080B588B0D3
:102330000020079006900590049003900290019071
:1023400041F20400C4F2020000680790079800F010
:102350000C0001460028009179D0FFE7009804287E
:1023600004D0FFE70098082806D071E041F2002071
:10237000C0F27A00039071E00798C0F3834044F202
:102380005671C0F60001085C04909DF81E00C0075D
:10239000002851D0FFE741F22C00C4F2020001688E
:1023A00001F00F0144F26472C0F60002515C069124
:1023B000006810F4803F26D0FFE741F22C00C4F201
:1023C0000200016801F0F001012202EB11110291FB
:1023D000006800F47060022101EB10200190019868
:1023E0000499A0FB010141F20022C0F27A02A0FB95
:1023F000020301FB0231029A069BA2FB0323FDF7B5
:1024000050FF05900AE0049841F20021C0F27A01E1
:1024100048430699B0FBF1F00590FFE7049844F2B9
:102420005671C0F60001497B884204D1FFE7059848
:1024300040080590FFE707E0049840F60011C0F25D
:102440003D0148430590FFE70598039006E0FFE74C
:1024500041F20020C0F27A000390FFE7039808B031
:1024600080BD000080B588B001460690069800281F
:10247000019105D1FFE701208DF81F0000F016BC87
:1024800006980068C007002800F0B580FFE741F219
:102490000400C4F20200006800F00C00042813D00D
:1024A000FFE741F20400C4F20200006800F00C00F3
:1024B00008281CD1FFE741F20400C4F202000068C2
:1024C00010F4803F13D0FFE741F20000C4F2020095
:1024D000006810F4003F09D0FFE7069880680028E4
:1024E00004D1FFE701208DF81F00DFE382E0FFE762
:1024F00006988068B0F5803F09D1FFE741F20000FF
:10250000C4F20200016841F48031016033E00698B2
:10251000806800280DD1FFE741F20000C4F20200FC
:10252000016821F480310160016821F4802101609B
:1025300020E006988068B0F5A02F0DD1FFE741F2AA
:102540000000C4F20200016841F4802101600168CA
:1025500041F4803101600CE041F20000C4F202005D
:10256000016821F480310160016821F4802101605B
:10257000FFE7FFE7FFE7FFE70698806800281CD029
:10258000FFE7FFF79BFC0590FFE741F20000C4F274
:102590000200006810F4003F0ED1FFE7FFF78EFC49
:1025A000DDF814E0A0EB0E00652804D3FFE703205C
:1025B0008DF81F007AE3E8E71BE0FFF77FFC05904A
:1025C000FFE741F20000C4F20200006810F4003F8F
:1025D0000ED0FFE7FFF772FCDDF814E0A0EB0E0071
:1025E000652804D3FFE703208DF81F005EE3E8E7CA
:1025F000FFE7FFE7FFE7069800688007002840F143
:102600009280FFE741F20400C4F20200006810F07B
:102610000C0F13D0FFE741F20400C4F2020000687F
:1026200000F00C00082829D1FFE741F20400C4F2B1
:102630000200006810F4803F20D1FFE741F2000063
:10264000C4F20200006810F0020F09D0FFE70698FC
:102650004069012804D0FFE701208DF81F0025E321
:1026600041F20000C4F20200016821F0F801069A6C
:10267000926941EAC2010160FFE753E006984069B0
:1026800000282DD0FFE70020C4F242200121016084
:10269000FFF714FC0590FFE741F20000C4F20200CE
:1026A000006810F0020F0ED1FFE7FFF707FCDDF81E
:1026B00014E0A0EB0E00032804D3FFE703208DF8FD
:1026C0001F00F3E2E8E741F20000C4F202000168F3
:1026D00021F0F801069A926941EAC201016020E006
:1026E0000020C4F2422000210160FFF7E7FB0590C3
:1026F000FFE741F20000C4F20200006810F0020F90
:102700000ED0FFE7FFF7DAFBDDF814E0A0EB0E00D8
:10271000032804D3FFE703208DF81F00C6E2E8E793
:10272000FFE7FFE7FFE706980068000700284DD5A0
:10273000FFE70698C069002825D0FFE740F28040F7
:10274000C4F2422001210160FFF7B8FB0590FFE7CA
:1027500041F22400C4F20200006810F0020F0ED112
:10276000FFE7FFF7ABFBDDF814E0A0EB0E0003285A
:1027700004D3FFE703208DF81F0097E2E8E701206C
:1027800001F008FB21E040F28040C4F24220002129
:102790000160FFF793FB0590FFE741F22400C4F2CC
:1027A0000200006810F0020F0ED0FFE7FFF786FB73
:1027B000DDF814E0A0EB0E00032804D3FFE70320AC
:1027C0008DF81F0072E2E8E7FFE7FFE70698006870
:1027D0004007002840F1E180FFE700208DF80F005E
:1027E00041F21C00C4F20200006810F0805F14D1B6
:1027F000FFE7FFE741F21C00C4F20200016841F06C
:1028000080510160006800F08050029002980090B2
:10281000FFE701208DF80F00FFE747F20000C4F248
:102820000000006810F4807F24D1FFE747F2000029
:10283000C4F20000016841F480710160FFF73EFBC3
:102840000590FFE747F20000C4F20000006810F4B2
:10285000807F0ED1FFE7FFF731FBDDF814E0A0EB3E
:102860000E00652804D3FFE703208DF81F001DE24A
:10287000E8E7FFE7FFE706980069012809D1FFE7CD
:1028800041F22000C4F20200016841F00101016040
:1028900032E00698006900280DD1FFE741F22000E0
:1028A000C4F20200016821F001010160016821F019
:1028B000040101601FE00698006905280DD1FFE7BB
:1028C00041F22000C4F20200016841F004010160FD
:1028D000016841F0010101600CE041F22000C4F206
:1028E0000200016821F001010160016821F004018A
:1028F0000160FFE7FFE7FFE7FFE7069800690028B0
:102900001ED0FFE7FFF7DAFA0590FFE741F220005B
:10291000C4F20200006810F0020F10D1FFE7FFF7C9
:10292000CDFADDF814E0A0EB0E0041F2893E7045CF
:1029300004D3FFE703208DF81F00B7E1E6E71DE0B1
:10294000FFF7BCFA0590FFE741F22000C4F2020055
:10295000006810F0020F10D0FFE7FFF7AFFADDF8C4
:1029600014E0A0EB0E0041F2893E704504D3FFE76E
:1029700003208DF81F0099E1E6E7FFE79DF80F00BF
:10298000012809D1FFE741F21C00C4F202000168EE
:1029900021F080510160FFE7FFE70698C06A002838
:1029A00000F0BD80FFE741F20400C4F202000068BD
:1029B00010F4803F17D0FFE741F20400C4F2020098
:1029C000006800F00C0008280DD1FFE741F22C0050
:1029D000C4F20200006810F4803F04D0FFE7012039
:1029E0008DF81F0062E10698C06A02286CD1FFE7EB
:1029F00041F20000C4F20200006810F0805F10D0C5
:102A0000FFE741F22C00C4F20200006800F0F00081
:102A10000699496B884204D0FFE701208DF81F001A
:102A200044E16820C4F2422000210160FFF746FA29
:102A30000590FFE741F20000C4F20200006810F0C8
:102A4000006F0ED0FFE7FFF739FADDF814E0A0EBD6
:102A50000E00652804D3FFE703208DF81F0025E151
:102A6000E8E741F22C00C4F20200016821F0F00115
:102A7000069A526B11430160016821F47061069A55
:102A8000126B114301606820C4F2422001210160F1
:102A9000FFF714FA0590FFE741F20000C4F20200CC
:102AA000006810F0006F0ED1FFE7FFF707FADDF8BE
:102AB00014E0A0EB0E00652804D3FFE703208DF897
:102AC0001F00F3E0E8E728E041F22C00C4F2020026
:102AD000016821F4803101606820C4F242200021A5
:102AE0000160FFF7EBF90590FFE741F20000C4F247
:102AF0000200006810F0006F0ED0FFE7FFF7DEF96C
:102B0000DDF814E0A0EB0E00652804D3FFE70320F6
:102B10008DF81F00CAE0E8E7FFE7FFE7FFE7069848
:102B2000006A002800F0BE80FFE741F20400C4F212
:102B30000200006800F00C00082800F08D80FFE71C
:102B40000698006A022865D1FFE76020C4F242209F
:102B500000210160FFF7B2F90590FFE741F20000A4
:102B6000C4F20200006810F0007F0ED0FFE7FFF70C
:102B7000A5F9DDF814E0A0EB0E00032804D3FFE76D
:102B800003208DF81F0091E0E8E70698406AB0F551
:102B9000803F11D1FFE70698406841F22C01C4F252
:102BA00002010A6810430860086820F00F00069AC6
:102BB000D26810430860FFE741F20400C4F202004B
:102BC000016821F47411069A536A926A1A431143F8
:102BD00001606020C4F2422001210160FFF76EF91C
:102BE0000590FFE741F20000C4F20200006810F017
:102BF000007F0ED1FFE7FFF761F9DDF814E0A0EBED
:102C00000E00032804D3FFE703208DF81F004DE0DA
:102C1000E8E720E06020C4F2422000210160FFF7D5
:102C20004DF90590FFE741F20000C4F20200006890
:102C300010F0007F0ED0FFE7FFF740F9DDF814E059
:102C4000A0EB0E00032804D3FFE703208DF81F003C
:102C50002CE0E8E7FFE724E00698006A012804D1A9
:102C6000FFE701208DF81F0020E041F20400C4F2CC
:102C7000020000680490049800F480300699496AC4
:102C8000884208D1FFE7049800F470100699896A19
:102C9000884204D0FFE701208DF81F0006E0FFE71F
:102CA000FFE7FFE700208DF81F00FFE79DF81F00FA
:102CB00008B080BD80B582B00146019001980091B6
:102CC00001F08AF802B080BD82B001460190009107
:102CD00002B0704782B001460190009102B0704787
:102CE00086B00A46034604900391002002900192A8
:102CF0000093FFE7049890F83C00012804D1FFE717
:102D000002208DF8170044E00498012180F83C105F
:102D1000FFE7FFE7029820F0FF000399C968084326
:102D20000290029820F44070039989680843029049
:102D3000029820F480600399496808430290029841
:102D400020F400600399096808430290029820F477
:102D500080500399096908430290029820F40050BA
:102D60000399496908430290029820F4804003992E
:102D7000C969084302900298049909684864FFE70A
:102D80000498002180F83C10FFE700208DF8170020
:102D9000FFE79DF8170006B07047000087B00A46AD
:102DA00003460590049101920093FFE7059890F87F
:102DB0003C00012804D1FFE702208DF81B0064E0ED
:102DC0000598012180F83C10FFE7FFE705980221F4
:102DD00080F83D10059800684068039005980068E9
:102DE00080680290039820F07000039004980068B7
:102DF000039908430390039805990968486005986A
:102E0000006842F60041C4F20101884221D0FFE788
:102E100005980068B0F1804F1BD0FFE70598006867
:102E200040F20041C4F20001884212D0FFE7059849
:102E3000006840F60001C4F20001884209D0FFE7B3
:102E40000598006840F60041C4F2000188420ED1A6
:102E5000FFE7029820F080000290049840680299F1
:102E6000084302900298059909688860FFE7059871
:102E7000012180F83D10FFE70598002180F83C1003
:102E8000FFE700208DF81B00FFE79DF81B0007B04F
:102E90007047000080B584B0014602900298002877
:102EA000019104D1FFE701208DF80F0043E0029863
:102EB00090F83D00002808D1FFE70298002180F833
:102EC0003C10029800F03CF8FFE70298022180F8DD
:102ED0003D10029850F8041B00900846009901F03C
:102EE0000BF80298012180F84610FFE702980121B3
:102EF00080F83E10029880F83F10029880F8401049
:102F0000029880F84110FFE7FFE70298012180F85E
:102F10004210029880F84310029880F844100298FA
:102F200080F84510FFE70298012180F83D1000204D
:102F30008DF80F00FFE79DF80F0004B080BD000082
:102F400080B58EB001460D900D98006842F60042A3
:102F5000C4F20102904209911BD1FFE7FFE741F261
:102F60001800C4F20200016841F4006101600068C9
:102F700000F400600C900C980890FFE719200021E5
:102F800007900691069AFFF73FF80798FFF730F889
:102F900045E00D980068B0F1804F1AD1FFE7FFE7D8
:102FA00041F21C00C4F20200016841F0010101601D
:102FB000006800F001000B900B980590FFE71C20C3
:102FC000012100220490FFF71FF80498FFF710F882
:102FD00024E00D98006840F20041C4F200018842EC
:102FE0001BD1FFE7FFE741F21C00C4F202000168B9
:102FF00041F002010160006800F002000A900A98A6
:103000000390FFE71D20002102900191019AFEF735
:10301000FBFF0298FEF7ECFFFFE7FFE7FFE70EB0CC
:1030200080BD000080B58EB00A4603460C900B911F
:1030300000208DF82B0008920793FFE70C9890F87A
:103040003C00012804D1FFE702208DF83700BBE0E7
:103050000C98012180F83C10FFE7FFE70C98022153
:1030600080F83D100C98006880680990099820F05D
:1030700077000990099820F47F40099009980C99ED
:10308000096888600B9800680028069000F082802C
:10309000FFE7069810287DD0FFE70698202879D012
:1030A000FFE70698302875D0FFE70698402861D0E2
:1030B000FFE7069850283DD0FFE70698602849D0E2
:1030C000FFE7069870280BD0FFE70698B0F5805F01
:1030D00005D0FFE70698B0F5005F19D061E064E025
:1030E0000C9800680B994A688B68C9680591194665
:1030F000059B00F08DFF0C98006880680990099886
:1031000040F07700099009980C99096888604CE0B4
:103110000C9800680B994A688B68C9680491194635
:10312000049B00F075FF0C980068816841F48041B1
:1031300081603AE00C9800680B994A68C96803916D
:103140001146039A01F040F90C980068502100F0F4
:1031500085FF2AE00C9800680B994A68C9680291BB
:103160001146029A01F062F90C980068602100F0A3
:1031700075FF1AE00C9800680B994A68C9680191BC
:103180001146019A01F020F90C980068402100F0E6
:1031900065FF0AE00C9800680B99096800F05EFF73
:1031A00003E001208DF82B00FFE70C98012180F847
:1031B0003D10FFE70C98002180F83C10FFE79DF8D8
:1031C0002B008DF83700FFE79DF837000EB080BD6B
:1031D00082B001460190009102B0704780B582B084
:1031E0000146019001980068006900F00200002289
:1031F000B2EB500F009129D0FFE701980068C0683A
:1032000000F002000021B1EB500F1ED0FFE7019843
:1032100000686FF0020101610198012101770198B6
:103220000068806910F0030F04D0FFE70198FFF7F2
:10323000CFFF06E0019800F04BF9019800F05AFA30
:10324000FFE7019800210177FFE7FFE70198006899
:10325000006900F004000021B1EB900F29D0FFE7D6
:1032600001980068C06800F004000021B1EB900FE5
:103270001ED0FFE7019800686FF00401016101981A
:103280000221017701980068806910F4407F04D022
:10329000FFE70198FFF79CFF06E0019800F018F99E
:1032A000019800F027FAFFE7019800210177FFE776
:1032B000FFE701980068006900F008000021B1EB09
:1032C000D00F29D0FFE701980068C06800F008001F
:1032D0000021B1EBD00F1ED0FFE7019800686FF01E
:1032E0000801016101980421017701980068C06913
:1032F00010F0030F04D0FFE70198FFF769FF06E025
:10330000019800F0E5F8019800F0F4F9FFE7019862
:1033100000210177FFE7FFE701980068006900F0EE
:1033200010000021B1EB101F29D0FFE701980068C1
:10333000C06800F010000021B1EB101F1ED0FFE7A5
:10334000019800686FF01001016101980821017770
:1033500001980068C06910F4407F04D0FFE701982D
:10336000FFF736FF06E0019800F0B2F8019800F090
:10337000C1F9FFE7019800210177FFE7FFE7019816
:103380000068006910F0010F11D0FFE70198006894
:10339000C06810F0010F09D0FFE7019800686FF0D6
:1033A00001010161019800F0ABF9FFE7FFE7019827
:1033B0000068006900F080000021B1EBD01F14D03C
:1033C000FFE701980068C06800F080000021B1EBC1
:1033D000D01F09D0FFE7019800686FF080010161FC
:1033E0000198FFF771FCFFE7FFE7019800680069AB
:1033F00000F040000021B1EB901F14D0FFE70198CE
:103400000068C06800F040000021B1EB901F09D0B7
:10341000FFE7019800686FF040010161019800F03A
:1034200075F9FFE7FFE701980068006900F02000E8
:103430000021B1EB501F14D0FFE701980068C0686D
:1034400000F020000021B1EB501F09D0FFE70198E8
:1034500000686FF0200101610198FFF73BFCFFE776
:10346000FFE702B080BD000080B588B0014607903C
:10347000002006900590049003900798006842F69B
:103480000042C4F20102904201911ED1FFE7FFE722
:1034900041F21800C4F20200016841F00401016029
:1034A000006800F00400029002980090FFE74FF4DB
:1034B0008060039002200490069040F60000C4F261
:1034C000010003A9FEF73CFBFFE708B080BD000048
:1034D00082B001460190009102B0704780B58AB079
:1034E00013468C46864608900791069200208DF878
:1034F00017000493CDF80CC0CDF808E0FFE708985A
:1035000090F83C00012804D1FFE702208DF8270045
:103510008FE00898012180F83C10FFE7FFE706984C
:103520000C28019000F276800199DFE801F0077322
:103530007373227373733D73737358000898006834
:10354000079900F0A5FD08980068816941F008011D
:10355000816108980068816921F004018161079800
:10356000006908990968D1F818E040EA0E008861FE
:1035700054E008980068079900F0F6FD0898006884
:10358000816941F40061816108980068816921F4D2
:10359000806181610798006908990968D1F818E08D
:1035A0004EEA0020886139E008980068079900F029
:1035B0004BFE08980068C16941F00801C161089894
:1035C0000068C16921F00401C16107980069089988
:1035D0000968D1F81CE040EA0E00C8611EE00898B6
:1035E0000068079900F0A0FE08980068C16941F4DE
:1035F0000061C16108980068C16921F48061C161FE
:103600000798006908990968D1F81CE04EEA002083
:10361000C86103E001208DF81700FFE7FFE7089875
:10362000002180F83C10FFE79DF817008DF8270077
:10363000FFE79DF827000AB080BD000080B584B088
:103640000146029002980028019104D1FFE7012071
:103650008DF80F0043E0029890F83D00002808D153
:10366000FFE70298002180F83C10029800F03CF837
:10367000FFE70298022180F83D10029850F8041BE1
:1036800000900846009900F037FC0298012180F86C
:103690004610FFE70298012180F83E10029880F85A
:1036A0003F10029880F84010029880F84110FFE720
:1036B000FFE70298012180F84210029880F8431039
:1036C000029880F84410029880F84510FFE70298AD
:1036D000012180F83D1000208DF80F00FFE79DF8D4
:1036E0000F0004B080BD000082B00146019000913F
:1036F00002B0704782B001460190009102B070475D
:1037000082B001460190009102B0704782B001463C
:103710000190009102B0704780B584B001460290DC
:1037200002980028019104D1FFE701208DF80F00D5
:1037300043E002988069002801D0FFE700E0FFE73E
:10374000029890F84100002808D1FFE70298002174
:1037500080F84010029800F035F8FFE70298242125
:1037600080F8411002980068C16821F40051C160DE
:10377000029800F08DFE02980068016921F49041E2
:10378000016102980068416921F02A0141610298B3
:103790000068C16841F40051C16002980021416491
:1037A00002984FF0200E80F841E0029880F842E045
:1037B000029841638DF80F10FFE79DF80F0004B0E9
:1037C00080BD000080B58EB001460D9000200C90A9
:1037D0000B900A9009900D98006844F20042C4F2E0
:1037E00000029042069140F08A80FFE7FFE741F235
:1037F0001C00C4F20200016841F40031016000685D
:1038000000F40030089008980590FFE7FFE741F2C8
:103810001800C4F20200016841F004010160006870
:1038200000F00400079007980490FFE70420099037
:1038300002200A9003200C9040F60000C4F2010020
:1038400009A903900291FEF77BF908200990002056
:103850000A900B900399019008460299FEF770F9BF
:1038600040F23430C2F200006C21C4F20201016067
:103870000199416081604FF0800EC0F80CE0016159
:10388000416181614FF4005EC0F81CE0FEF7D4F89E
:10389000002803D0FFE7FCF79FFFFFE7FFE70D9845
:1038A00040F23431C2F20001C1630D984862FFE773
:1038B00040F27830C2F200008021C4F202010160BF
:1038C00010214160002181608022C260016141615C
:1038D00081614FF40051C161FEF7AEF8002803D0BA
:1038E000FFE7FCF779FFFFE7FFE70D9840F278313B
:1038F000C2F2000181630D984862FFE7FFE70EB056
:1039000080BD0000FFE7FEE780B540F2E420C2F290
:10391000000046F20041C4F2000101600421416050
:1039200000218160C1604FF4802202614FF40012D7
:1039300042610176012242768176C1760177417734
:10394000FDF776FA002803D0FFE7FCF745FFFFE715
:1039500080BD000080B540F20C30C2F2000046F697
:103960000001C4F200010160042141600021816076
:10397000C1604FF4003202614FF48002426101766F
:10398000012242768276C17601774177FDF750FABF
:10399000002803D0FFE7FCF71FFFFFE780BD000012
:1039A00080B586B0FFE741F21400C4F2020001685E
:1039B00041F001010160006800F0010005900598E8
:1039C0000490FFE71020002103900291029AFEF775
:1039D0001BFB0398FEF70CFB112001900299029A41
:1039E000FEF712FB0198FEF703FB06B080BD000056
:1039F00080B58CB000200B900A9009900890FFE7EA
:103A000041F21800C4F20200016841F02001016097
:103A1000006800F02000079007980490FFE7FFE798
:103A200041F21800C4F20200016841F00401016093
:103A3000006800F00400069006980390FFE7FFE797
:103A400041F21800C4F20200016841F0080101606F
:103A5000006800F00800059005980290FFE740F626
:103A60000040C4F201000321002201900091FEF702
:103A700003FA009808900121099102210A910B9103
:103A800008A90198FEF75CF80CB080BD80B596B02F
:103A900000201590149013901290119010900F9098
:103AA0000E900D900C900B900A9009900890079042
:103AB00006900590049003900290019040F2BC3172
:103AC000C2F2000142F60042C4F201020A6024225E
:103AD0004A60886040F2E732CA600861486180202D
:103AE00088610846FFF7D6F9002803D0FFE7FCF706
:103AF00073FEFFE74FF48050129040F2BC30C2F2E8
:103B0000000012A9FFF78EFA002803D0FFE7FCF7A8
:103B100063FEFFE740F2BC30C2F20000FFF78EFD0B
:103B2000002803D0FFE7FCF757FEFFE700201090C6
:103B3000119040F2BC30C2F2000010A9FFF72EF93C
:103B4000002803D0FFE7FCF747FEFFE7602009905D
:103B500000200A900B900C900D900E900F9040F268
:103B6000BC30C2F2000009A90822FFF7B7FC002808
:103B700003D0FFE7FCF730FEFFE700200190029042
:103B80000390049005904FF400510691089040F284
:103B9000BC30C2F2000001A9FFF7A2F8002803D050
:103BA000FFE7FCF719FEFFE740F2BC30C2F200006D
:103BB000FFF75AFC16B080BD80B586B00020059096
:103BC0000490039002900190009040F20441C2F2F0
:103BD00000014FF080420A6047224A60886040F24C
:103BE000E732CA60086188610846FFF753F9002888
:103BF00003D0FFE7FCF7F0FDFFE74FF480500290A1
:103C000040F20440C2F2000002A9FFF70BFA0028BC
:103C100003D0FFE7FCF7E0FDFFE7002000900190F4
:103C200040F20440C2F200006946FFF7B7F80028EE
:103C300003D0FFE7FCF7D0FDFFE706B080BD000032
:103C400080B586B00020059004900390029001900A
:103C5000009040F24C41C2F2000140F20042C4F236
:103C600000020A6048224A6088604FF47A72CA6093
:103C7000086188610846FFF70DF9002803D0FFE7C7
:103C8000FCF7AAFDFFE74FF48050029040F24C4051
:103C9000C2F2000002A9FFF7C5F9002803D0FFE730
:103CA000FCF79AFDFFE700200090019040F24C40A5
:103CB000C2F200006946FFF771F8002803D0FFE761
:103CC000FCF78AFDFFE706B080BD000080B540F23A
:103CD0009440C2F2000044F20041C4F200010160CD
:103CE0004FF4E131416000218160C16001610C222B
:103CF00042618161C161FFF70FFD002803D0FFE73A
:103D0000FCF76AFDFFE780BDFFE7FEE7FFE7FEE7A0
:103D100080B58BB013468C4686460A90099108926E
:103D20000A9800F0070007900798C0F107000528DF
:103D30000493CDF80CC0CDF808E003D3FFE70420CE
:103D4000019004E00798C0F107000190FFE7019897
:103D5000069007980430062803D8FFE7002000905B
:103D600003E0079803380090FFE700980590099852
:103D70000699012202FA01F10139084005998840AB
:103D8000089B02FA01F10139194008430BB080BDCC
:103D90007047000084B001460390039840F200028F
:103DA000C2F200021268D20844F6D353C1F2620391
:103DB000A2FB03239B095843029001910092FFE765
:103DC00000BFFFE70298411E02910028F8D1FFE7EB
:103DD00004B070477047000080B584B0014602907F
:103DE00002980138B0F1807F019103D3FFE70120F1
:103DF00003901BE0029801384EF21401CEF200014C
:103E000008604FF0FF300F2100F030FC4EF2180038
:103E1000CEF20000002101604EF21000CEF2000050
:103E20004FF0070EC0F800E00391FFE7039804B0DD
:103E300080BD000080B5FEF747F880BD80B596B024
:103E400008A838210290FCF7A3FA002007900690FA
:103E5000059004900390012108914FF4803ECDF825
:103E600028E00B900D91099002211091CDF844E0CB
:103E70004FF4E011129113900298FEF7F3FA002824
:103E800003D0FFE7FCF7A8FCFFE70F200390022018
:103E90000490002105914FF480620692079103A9D6
:103EA000019008460199FEF7DDF8002803D0FFE7EE
:103EB000FCF792FCFFE77020C4F242200121016070
:103EC00016B080BD7047000080B540F2BC30C2F231
:103ED0000000FFF783F980BD80B540F20440C2F2D4
:103EE0000000FFF77BF980BD80B540F24C40C2F284
:103EF0000000FFF773F980BD85B00A4603460490C1
:103F00000391049800680290049842F60041C4F2BC
:103F100001018842019200931DD0FFE70498B0F19F
:103F2000804F18D0FFE7049840F20041C4F200012E
:103F3000884210D0FFE7049840F60001C4F2000167
:103F4000884208D0FFE7049840F60041C4F200011F
:103F500088420AD1FFE7029820F07000029003988F
:103F60004068029908430290FFE7049842F6004136
:103F7000C4F2010188421DD0FFE70498B0F1804FE0
:103F800018D0FFE7049840F20041C4F200018842D3
:103F900010D0FFE7049840F60001C4F20001884207
:103FA00008D0FFE7049840F60041C4F200018842BF
:103FB0000AD1FFE7029820F4407002900398C0688D
:103FC000029908430290FFE7029820F080000399CD
:103FD0004969084302900298049908600398806830
:103FE0000499C8620398006804998862049842F6AC
:103FF0000041C4F20101884205D1FFE7039800693E
:1040000004990863FFE704980121416105B07047F6
:10401000B0B589B09C4696460C4605460890079177
:1040200006920593089880680490049820F47F40D5
:10403000049007980699059A41EA022108430499D9
:1040400008430490049808998860CDF80CC0CDF816
:1040500008E00194009509B0B0BD000085B00A46A3
:10406000034604900391049880680290029820F01F
:104070007000029003980299084340F007000290F4
:104080000298049988600192009305B0704700007F
:1040900087B00A460346069005910698006A039089
:1040A0000698016A21F001010162069840680290B9
:1040B000069880690490049820F070000490049899
:1040C00020F00300049005980068049908430490C8
:1040D000039820F002000390059880680399084334
:1040E0000390069842F60041C4F201018842019211
:1040F00000930ED1FFE7039820F008000390059885
:10410000C068039908430390039820F004000390CB
:10411000FFE7069842F60041C4F20101884213D13C
:10412000FFE7029820F480700290029820F400705B
:1041300002900598406902990843029005988069A9
:10414000029908430290FFE7029806994860049894
:10415000069988610598406806994863039806990E
:10416000086207B07047000087B00A460346069011
:1041700005910698006A03900698016A21F01001E3
:10418000016206984068029006988069049004983D
:1041900020F4E0400490049820F4407004900598C6
:1041A0000068049941EA00200490039820F0200060
:1041B000039005988068039941EA001003900698DF
:1041C00042F60041C4F201018842019200930FD1EE
:1041D000FFE7039820F0800003900598C0680399DA
:1041E00041EA00100390039820F040000390FFE79D
:1041F000069842F60041C4F20101884215D1FFE75A
:10420000029820F480600290029820F400600290EE
:1042100005984069029941EA8000029005988069FA
:10422000029941EA80000290FFE7029806994860EF
:1042300004980699886105984068069988630398F0
:104240000699086207B0704787B00A460346069091
:1042500005910698006A03900698016A21F480711E
:1042600001620698406802900698C069049004981C
:1042700020F070000490049820F00300049005984A
:104280000068049908430490039820F40070039098
:1042900005988068039941EA00200390069842F649
:1042A0000041C4F201018842019200930FD1FFE75F
:1042B000039820F4006003900598C068039941EAD0
:1042C00000200390039820F480600390FFE7069895
:1042D00042F60041C4F20101884215D1FFE702987D
:1042E00020F480500290029820F40050029005982B
:1042F0004069029941EA001002900598806902998C
:1043000041EA00100290FFE702980699486004987D
:104310000699C861059840680699C863039806998C
:10432000086207B07047000087B00A46034606904F
:1043300005910698006A03900698016A21F480515D
:1043400001620698406802900698C069049004983B
:1043500020F4E0400490049820F440700490059804
:104360000068049941EA00200490039820F400506A
:10437000039005988068039941EA003003900698FD
:1043800042F60041C4F201018842019200930BD130
:10439000FFE7029820F48040029005984069029956
:1043A00041EA80100290FFE702980699486004985D
:1043B0000699C861059840680699086403980699AB
:1043C000086207B07047000080B588B013468C467D
:1043D00086460790069105920798006A0390079811
:1043E000016A21F001010162079880690490049834
:1043F00020F0F00004900598049941EA0010049020
:10440000039820F00A00039006980399084303904C
:104410000498079988610398079908620293CDF878
:1044200004C0CDF800E008B080BD000080B588B0C1
:1044300013468C4686460790069105920798006AB7
:1044400003900798016A21F01001016207988069C2
:104450000490049820F4704004900598049941EA6F
:1044600000300490039820F0A00003900698039970
:1044700041EA00100390049807998861039807990E
:1044800008620293CDF804C0CDF800E008B080BD0A
:1044900080B586B00146059005980068006920F453
:1044A0004050059A1368D2681043186105988268D5
:1044B000036940691A431043049005980068C06876
:1044C00041F20C629043049A1043059A1268D0603E
:1044D00005980068406920F44070059A1368926955
:1044E000104358610598006843F60002C4F20102C7
:1044F0009042029104D1FFE7FDF704FF039003E02F
:10450000FDF7ECFE0390FFE7039819214843059956
:104510000A6849688900B0FBF1F048F21F51C5F202
:10452000EB11A0FB013C4FEA5C1C4FF0640E0CFB4E
:104530001E004FF0320E0EEB0010A0FB01014FF0F9
:10454000F00E0EEA511E0EEB0C1CC1F3431141EAB2
:104550000C0191600193009006B080BDFFE7FEE77B
:1045600080B500F0C9F880BD80B584B001460390E5
:1045700003980290019100F03BF80298503000F04F
:1045800037F80020029981F8B4004FF4005EA1F8DA
:10459000B6E04FF4804EA1F8B8E0C1F8BC00C1F815
:1045A000C00081F8C4004FF0030E81F8F0E0C1F8BC
:1045B000F400C1F8F800C1F8FC00C1F80001C1F82E
:1045C0000401C1F80801084604B080BD80B584B07C
:1045D00001460390039802900191FFF7C5FF0298EE
:1045E00000F58670FFF7C0FF029804B080BD0000A0
:1045F00082B00146019001980022C26002614261CE
:104600008261C261026242628262C262026342638A
:104610008263C263026442648264C264009102B035
:104620007047000082B001468DF807009DF9070031
:10463000002800910FDBFFE79DF9070000F01F0144
:10464000012202FA01F140094EF20012CEF20002FC
:1046500042F82010FFE702B0704700004EF60C5001
:10466000CEF200000068C0F30220704784B00A4612
:1046700003468DF80F0002919DF90F00002801926A
:1046800000930ADBFFE7029800019DF90F104EF23C
:104690000042CEF2000288540BE0029800019DF81F
:1046A0000F1001F00F014EF61452CEF200028854A2
:1046B000FFE704B07047000084B001460390039800
:1046C00000F0070001904EF60C50CEF20000026898
:1046D0000292029A4FF6FF031A400292029A019B3D
:1046E00042EA03220023C0F2FA531A430292029ACA
:1046F0000260009104B0704780B540F2CC00C2F275
:104700000000FFF763FF80BD80B582B000200190FC
:10471000FDF7E8FB0090FFF791FBFFF769F9FFF762
:104720003FF9FFF7F1F8FFF715F9FFF789FAFFF7FF
:10473000ADF9FFF7CBFAFFF73FFAFFE7FEE700001E
:104740000000000000000102030406070809000041
:104750000000010203040000040506070809000028
:104760000000000D0102030405060708090A0B0CEE
:104770000D0E0F10984700080000002010000000E8
:104780008C010008A847000810000020D00A000093
:10479000A8010008CDFDFFFF0024F4000100000087
:0847A000100000000000000001
:04000005080001519D
:00000001FF
