:020000040800F2
:10000000582D0020FD010008593B00081938000850
:10001000553B0008C50700085943000800000000D0
:10002000000000000000000000000000513C00083B
:100030002908000800000000D13B0008953C00089A
:10004000170200081702000817020008170200082C
:10005000170200081702000817020008170200081C
:10006000170200081702000817020008170200080C
:1000700017020008170200081702000817020008FC
:1000800009080008190800081702000817020008EC
:10009000C9070008D907000817020008170200085E
:1000A00017020008513D0008170200081702000857
:1000B00017020008170200081702000817020008BC
:1000C00017020008170200081702000817020008AC
:1000D000170200081702000817020008170200089C
:1000E00017020008170200081702000800000000AD
:1000F0000000000000000000000000000000000000
:1001000000000000000000001702000817020008AD
:10011000170200081702000817020008613D0008D6
:10012000170200081702000817020008170200084B
:10013000170200080000000000000000170200087D
:10014000E9070008F907000817020008170200086D
:1001500000F002F800F043F80AA090E8000C824496
:100160008344AAF10107DA4501D100F038F8AFF273
:10017000090EBAE80F0013F0010F18BFFB1A43F085
:1001800001031847D4780000F4780000103A24BF27
:1001900078C878C1FAD8520724BF30C830C144BFEC
:1001A00004680C607047000000230024002500262E
:1001B000103A28BF78C1FBD8520728BF30C148BFCA
:1001C0000B6070471FB59DE8030000F0BBF900F01D
:1001D0008BF91FBD10B5002000F04AFA10BD00F0E9
:1001E00076FA1146FFF7EEFF04F0BEFB00F094FA3A
:1001F00003B4FFF7EFFF03BC00F062FA0948804741
:1002000009480047FEE7FEE7FEE7FEE7FEE7FEE7F8
:10021000FEE7FEE7FEE7FEE704480549054A064B10
:10022000704700004D3D000851010008582700208C
:10023000582D0020582900205829002070B5064666
:1002400000F064F9056806F10B0020F00704B442E1
:100250009CBF002070BD2B466A68BAB11068A042EE
:1002600010D304F1080188423CBF5068586007D39E
:100270005168101941601168091B016058601460D1
:10028000101D70BD13465268002AE7D1214628464A
:1002900000F044F90028DED170BD53EA020C00F0F2
:1002A00069802DE9F04B4FF00006002B1FBFB3FA19
:1002B00083F503FA05F424FA05F65E4012BF1643EF
:1002C000B2FA82F502FA05F4C5F120051EBF22FA42
:1002D00005FC44EA0C04203556EA044C4FEA144469
:1002E00018BF641C4FF000084FF00009904271EBFA
:1002F000030C39D3002919BFB1FA81F701FA07F6C7
:10030000B0FA80F700FA07F6C7F120071EBF20FAFF
:1003100007FC46EA0C062037B6FBF4FCA7EB050702
:10032000103F07F01F0BCBF120062CFA06F60CFA53
:100330000BFB44BFB3460026202FA4BF5E464FF000
:10034000000B5BEA060C08BF4FF0010B19EB0B0921
:1003500048EB0608ABFB027C06FB02CC0BFB03CC94
:10036000C01B71EB0C01C1E70B46024641464846F3
:10037000BDE8F08B13B5084318BF4FF0FF300146BE
:10038000AFF30080BDE81C4070470B46014618469D
:1003900000F035B9032A40F2308010F0030C00F071
:1003A000158011F8013BBCF1020F624498BF11F8AF
:1003B00001CB00F8013B38BF11F8013BA2F1040268
:1003C00098BF00F801CB38BF00F8013B11F00303E0
:1003D00000F02580083AC0F0088051F8043B083A44
:1003E00051F804CBA0E80810F5E7121D5CBF51F8E6
:1003F000043B40F8043BAFF30080D20724BF11F860
:10040000013B11F801CB48BF11F8012B24BF00F8C4
:10041000013B00F801CB48BF00F8012B704710B535
:10042000203AC0F00B80B1E81850A0E81850B1E8AD
:100430001850A0E81850203ABFF4F5AF5FEA027CEC
:1004400024BFB1E81850A0E8185044BF18C918C01C
:10045000BDE810405FEA827C24BF51F8043B40F8BD
:10046000043B08BF7047D20728BF31F8023B48BFA2
:1004700011F8012B28BF20F8023B48BF00F8012BE0
:10048000704702F0FF0343EA032242EA024200F00F
:1004900002B84FF0000200B5134694469646203944
:1004A00022BFA0E80C50A0E80C50B1F12001BFF42D
:1004B000F7AF090728BFA0E80C5048BF0CC05DF893
:1004C00004EB890028BF40F8042B08BF704748BFE1
:1004D00020F8022B11F0804F18BF00F8012B704755
:1004E000704770477047000070B5064C7C44064D5D
:1004F0007D4404E02046016808448047241DAC4246
:10050000F8D170BD887500009475000000487047F0
:1005100018000020704770477047704738B5044690
:100520000A4600206946AFF30080002808BF38BDA6
:1005300002460099204600F081F8012038BD0120D4
:1005400000F0B7B8F8B5AFF30080054600200C46C0
:10055000102000BF0646A819A0420DD932466946B0
:100560000020AFF30080070008BF00F0A2F8009859
:10057000A04218BF0546C419FFF7C8FF056007462B
:10058000F01D20F007004619284600F00AF8B44292
:1005900008BFF8BDA21B31463868BDE8F84000F03E
:1005A0004DB800210160C0E901107047102070476C
:1005B00070B50446051FFFF7A9FF0068002C14BFA3
:1005C000446870BD002C18BFAC423CBF2046646834
:1005D000F8D301680A18AA4218BF456003D12A68F7
:1005E00005461144016028684119A1421CBF6C6096
:1005F00070BD6168696021680844286070BD2DE99C
:10060000F041074615460E461020FFF717FE04007E
:100610000AD06760C4E9026500F00CF80168216047
:1006200004600020BDE8F0810120FBE7004870472E
:100630001000002000487047480000200346406832
:100640008C46002818BF88423CBF03464068F8D358
:1006500018681844884207D00CF1030020F0070006
:10066000001D411A521A0146081D0A60FFF7A0BF7B
:100670002DE9F0410646FFF7DDFF8046454613E0D1
:1006800016B1E068B0420ED120682860D4E90101BB
:10069000D8F8007088472046FFF78AFFD8F8000096
:1006A000B842EBD100E025462C68002CE8D1BDE82B
:1006B000F08110B500F03EF8BDE8104000F035B80C
:1006C00001491820ABBEFEE72600020070477546C0
:1006D000FFF7ACFFAE4605006946534620F0070021
:1006E000854618B020B5FFF797FDBDE820404FF0D4
:1006F00000064FF000074FF000084FF0000BAC462B
:10070000ACE8C009ACE8C009ACE8C009ACE8C00975
:1007100021F007018D46704710B50446AFF3008005
:100720002046BDE81040FFF763BD002801D0FFF769
:10073000C7BF704710B5012805D0002103A000F005
:1007400021F8012010BD09A1F8E7000053494752E4
:10075000544D454D3A204F7574206F662068656191
:1007600070206D656D6F7279000000003A20486559
:100770006170206D656D6F727920636F7272757034
:100780007465640070B505460C460A2000E06D1CD7
:1007900000F011F835B128780028F8D102E0641C87
:1007A00000F009F814B120780028F8D1BDE87040B5
:1007B0000A20AFF3008008B569468DF800000320D9
:1007C000ABBE08BDFFE7FEE780B540F63830C2F2A9
:1007D000000000F041F980BD80B540F63830C2F22B
:1007E000000000F039F980BD80B540F66030C2F2FB
:1007F000000000F031F980BD80B540F66030C2F2F3
:10080000000000F029F980BD80B540F68830C2F2C2
:10081000000000F09FFD80BD80B540F6CC30C2F2F4
:10082000000000F097FD80BD7047000081B0EFF33D
:10083000108072B60090FFE7FEE7000081B00090E4
:1008400001B0704786B0049003910292019304981E
:1008500090F820008DF803009DF80300012806D0D1
:10086000FFE79DF80300022840F0E880FFE70398C7
:1008700080B9FFE704980068C068800748B9FFE7BF
:100880000499486A40F40010486201208DF817006E
:10089000DDE00FE0049800680069800748B9FFE7D1
:1008A0000499486A40F40010486201208DF817004E
:1008B000CDE0FFE704980068039900EB0110D0F841
:1008C000B00100F00400029988600298806858B96D
:1008D000FFE704980068039900EB0110D0F8B0011D
:1008E000400D029908600AE004980068039900EB43
:1008F0000110D0F8B001C00802994860FFE70498E1
:100900000068039900EB0110D0F8B00100F002007C
:100910000299C86004980068039900EB0110D0F8B0
:10092000B40100F00F00082804D3FFE70299082063
:1009300008610BE004980068039900EB0110D0F8FF
:10094000B40100F00F0002990861FFE70498006805
:10095000039900EB0110D0F8B40180B2000A0299AB
:10096000886104980068039900EB0110D0F8B40185
:10097000000C0299486104980068039900EB01108B
:10098000D0F8B8010199087004980068039900EB49
:100990000110D0F8B801000A019948700498006865
:1009A000039900EB0110D0F8B801000C0199887090
:1009B00004980068039900EB0110D0F8B801000E0C
:1009C0000199C87004980068039900EB0110D0F8F1
:1009D000BC010199087104980068039900EB0110AB
:1009E000D0F8BC01000A0199487104980068039985
:1009F00000EB0110D0F8BC01000C0199887104983B
:100A00000068039900EB0110D0F8BC01000E0199B9
:100A1000C871039838B9FFE704980168C86840F0C6
:100A20002000C86006E004980168086940F02000D2
:100A30000861FFE700208DF8170008E00499486A74
:100A400040F48020486201208DF81700FFE79DF8F0
:100A5000170006B07047000080B58AB009900020EA
:100A600008900998006840690790099800684068F4
:100A70000690099800688068059009980068C06829
:100A800004900998006800690390099800688069DB
:100A900002909DF81C00C007002800F09480FFE73A
:100AA0009DF81400C00758B3FFE7099801680120BA
:100AB00088609DF814008007002804D5FFE7099896
:100AC00000F030FC1BE09DF814004007002805D51D
:100AD000FFE7089840F4006008900FE09DF81400CC
:100AE0000007002805D5FFE7089840F480500890DB
:100AF00003E0099800F012FCFFE7FFE7FFE7FFE7DC
:100B00009DF81500C00760B3FFE7099801684FF42E
:100B1000807088609DF815008007002804D5FFE7E5
:100B2000099800F007FC1BE09DF81500400700281D
:100B300005D5FFE7089840F4005008900FE09DF8B5
:100B400015000007002805D5FFE7089840F480400D
:100B5000089003E0099800F0E9FBFFE7FFE7FFE7F3
:100B6000FFE79DF81600C00760B3FFE7099801682A
:100B70004FF4803088609DF816008007002804D567
:100B8000FFE7099800F0DEFB1BE09DF81600400728
:100B9000002805D5FFE7089840F4004008900FE0D2
:100BA0009DF816000007002805D5FFE7089840F4D7
:100BB0008030089003E0099800F0C0FBFFE7FFE7F2
:100BC000FFE7FFE7FFE79DF81C000007002810D5AE
:100BD000FFE79DF81000C006002809D5FFE7089838
:100BE00040F400700890099801681020C860FFE781
:100BF000FFE79DF81C00400700280FD5FFE79DF890
:100C000010000007002808D5FFE7099801680820B0
:100C1000C860099800F0FEFAFFE7FFE79DF81C00A6
:100C2000800700280BD5FFE709980068C068800797
:100C300020B1FFE7099800F0F1FAFFE7FFE79DF820
:100C40001C004006002810D5FFE79DF80C00C006E8
:100C5000002809D5FFE7089840F4806008900998BB
:100C6000016810200861FFE7FFE79DF81C0080067F
:100C700000280FD5FFE79DF80C000007002808D5D5
:100C8000FFE70998016808200861099800F002FB55
:100C9000FFE7FFE79DF81C00C00600280BD5FFE723
:100CA000099800680069800720B1FFE7099800F003
:100CB000F5FAFFE7FFE79DF81E00800700280FD533
:100CC000FFE79DF81800C006002808D5FFE709983F
:100CD000016810204860099800F01CFBFFE7FFE75F
:100CE0009DF81E00C00778B1FFE79DF818000007C7
:100CF000002808D5FFE7099801680820486009988E
:100D000000F024FBFFE7FFE79DF81D000006002828
:100D100040F18D80FFE79DF818004007002840F162
:100D20008180FFE79DF81D00C00750B1FFE79DF8E7
:100D30000800C00728B1FFE7089840F001000890BC
:100D4000FFE79DF81D00800700280BD5FFE79DF801
:100D500008008007002805D5FFE7089840F002004A
:100D60000890FFE79DF81D00400700280BD5FFE71E
:100D70009DF808004007002805D5FFE7089840F0D7
:100D800004000890FFE79DF81D000007002848D5E3
:100D9000FFE79DF8080010F0700F42D0FFE70298BF
:100DA00000F0700001460191102814D0FFE701986F
:100DB000202815D0FFE70198302816D0FFE70198CA
:100DC000402817D0FFE70198502818D0FFE7019876
:100DD000602819D01DE0089840F00800089019E03C
:100DE000089840F01000089014E0089840F02000A7
:100DF00008900FE0089840F0400008900AE008983A
:100E000040F08000089005E0089840F48070089059
:100E100000E0FFE709980168886920F070008861A8
:100E2000FFE7FFE70998016804204860FFE708989A
:100E300048B1FFE7089A0999486A1043486209983F
:100E4000FFF7FCFCFFE70AB080BD000080B584B06E
:100E50000290029820B9FFE701208DF80F00E0E032
:100E6000029890F8200020B9FFE7029800F0DEF821
:100E7000FFE702980168086840F00100086000F090
:100E8000CDFF0190FFE7029800684068C007A8B94D
:100E9000FFE700F0C3FF0199401A0B280DD3FFE7CD
:100EA0000299486A40F4003048620299052081F8AE
:100EB000200001208DF80F00B3E0E4E702980168FC
:100EC000086820F00200086000F0A8FF0190FFE72A
:100ED0000298006840688007002815D5FFE700F0F9
:100EE0009DFF0199401A0B280DD3FFE70299486A2C
:100EF00040F4003048620299052081F8200001206A
:100F00008DF80F008DE0E3E70298007E012807D1FD
:100F1000FFE702980168086840F08000086006E07A
:100F200002980168086820F080000860FFE70298D6
:100F3000407E012807D1FFE702980168086840F069
:100F40004000086006E002980168086820F0400050
:100F50000860FFE70298807E012807D1FFE702982A
:100F60000168086840F02000086006E00298016807
:100F7000086820F020000860FFE70298C07E012882
:100F800007D1FFE702980168086820F010000860A8
:100F900006E002980168086840F010000860FFE76A
:100FA0000298007F012807D1FFE7029801680868CE
:100FB00040F00800086006E002980168086820F028
:100FC00008000860FFE70298407F012807D1FFE78B
:100FD00002980168086840F00400086006E0029882
:100FE0000168086820F004000860FFE7029B1968A8
:100FF0005A689868D3F80CC040EA0C00D3F810C0C7
:1010000040EA0C005B691843013A1043C861029939
:1010100000204862029A012182F820108DF80F000A
:10102000FFE79DF80F0004B080BD000080B598B0C8
:101030001790002016901590149013901798006840
:1010400046F20041C4F2000188426ED1FFE740F24F
:10105000C800C2F200000168013101600068012887
:1010600010D1FFE7FFE741F21C00C4F20200016863
:1010700041F000710160006800F000701290129859
:10108000FFE7FFE7FFE741F21800C4F20200016842
:1010900041F008010160006800F00800119011980B
:1010A000FFE74FF48070139000201490159040F6E5
:1010B0000040C4F201000B9013A90C9100F006FD52
:1010C0000B980C994FF4007213920222149203228F
:1010D000169200F0FBFCFFE70421C4F2010108684E
:1010E0001090109820F4C0401090109840F0E060EC
:1010F0001090109840F48040109010980860FFE71E
:1011000014200790052108910022099200F06AFF3F
:10111000079800F05DFF0899099A15200A9000F0E1
:1011200061FF0A9800F054FF71E01798006846F6D6
:101130000001C4F20001884268D1FFE7FFE741F2F5
:101140001C00C4F20200016841F080610160006887
:1011500000F080600F900F98FFE740F2C800C2F2E5
:1011600000000168013101600068012810D1FFE72B
:10117000FFE741F21C00C4F20200016841F0007177
:101180000160006800F000700E900E98FFE7FFE726
:10119000FFE741F21800C4F20200016841F00801C3
:1011A0000160006800F008000D900D98FFE74FF413
:1011B00080501390002005901490159040F6004048
:1011C000C4F20100019013A9029100F07FFC019884
:1011D00002994FF4005213920222149203221692A3
:1011E00000F074FC059A402003900521049100F062
:1011F000F9FE039800F0ECFE0499059A4120069050
:1012000000F0F0FE069800F0E3FEFFE7FFE718B0FD
:1012100080BD000081B0009001B0704780B586B0FD
:1012200005900598006846F20041C4F2000188422A
:1012300012D1FFE7059840F27001C2F2000103915C
:101240000A1D049201F120030021FFF7FBFA039924
:101250000498896A88471BE00598006846F60001F3
:10126000C4F20001884212D1FFE7059840F29C01C8
:10127000C2F2000101910A1D029201F12003002136
:10128000FFF7E0FA01990298896A8847FFE7FFE7CC
:1012900006B080BD81B0009001B0704780B586B0C7
:1012A00005900598006846F20041C4F200018842AA
:1012B00012D1FFE7059840F27001C2F200010391DC
:1012C0000A1D049201F120030121FFF7BBFA0399E3
:1012D0000498896A88471BE00598006846F6000173
:1012E000C4F20001884212D1FFE7059840F29C0148
:1012F000C2F2000101910A1D029201F120030121B5
:10130000FFF7A0FA01990298896A8847FFE7FFE78B
:1013100006B080BD81B0009001B0704781B00090F0
:1013200001B0704781B0009001B0704781B000906B
:1013300001B0704781B0009001B0704781B000905B
:1013400001B0704781B0009001B0704781B000904B
:1013500001B0704780B5ACB02B902B98C06B006883
:101360002A902B980068006829902A982B99096C7C
:10137000C8404007002840F17581FFE79DF8A400B0
:101380004007002840F16E81FFE72B980068006855
:101390008006002807D4FFE72B980168086820F032
:1013A00004000860FFE72B9800688121C4F2020165
:1013B0008842C0F0A880FFE72B9800680821C4F29B
:1013C0000201884203D1FFE70420289094E02B9883
:1013D00000681C21C4F20201884203D1FFE74020CB
:1013E000279086E02B9800683021C4F202018842E1
:1013F00004D1FFE74FF48060269077E02B980068D7
:101400004421C4F20201884204D1FFE74FF4804036
:10141000259068E02B9800685821C4F202018842A8
:1014200004D1FFE74FF48020249059E02B98006806
:101430006C21C4F20201884204D1FFE74FF480001E
:1014400023904AE02B9800688021C4F20201884270
:1014500004D1FFE74FF0806022903BE02B980068BA
:1014600040F20841C4F20201884203D1FFE70420A0
:1014700021902CE02B98006840F21C41C4F202013C
:10148000884203D1FFE7402020901DE02B980068A0
:1014900040F23041C4F20201884204D1FFE74FF428
:1014A00080601F900DE02B98016840F24442C4F226
:1014B00002024FF48020914208BF4FF480401F90F9
:1014C000FFE71F982090FFE720982190FFE72198E1
:1014D0002290FFE722982390FFE723982490FFE7CC
:1014E00024982590FFE725982690FFE726982790D7
:1014F000FFE727982890FFE7289840F20441C4F2BC
:1015000002010860A5E02B9800680821C4F20201DE
:10151000884203D1FFE704201E9094E02B980068D6
:101520001C21C4F20201884203D1FFE740201D9034
:1015300086E02B9800683021C4F20201884204D171
:10154000FFE74FF480601C9077E02B9800684421FF
:10155000C4F20201884204D1FFE74FF480401B909F
:1015600068E02B9800685821C4F20201884204D137
:10157000FFE74FF480201A9059E02B9800686C2107
:10158000C4F20201884204D1FFE74FF480001990B1
:101590004AE02B9800688021C4F20201884204D1FD
:1015A000FFE74FF0806018903BE02B98006840F216
:1015B0000841C4F20201884203D1FFE704201790DA
:1015C0002CE02B98006840F21C41C4F202018842D2
:1015D00003D1FFE7402016901DE02B98006840F2F1
:1015E0003041C4F20201884204D1FFE74FF4806029
:1015F00015900DE02B98016840F24442C4F20202BB
:101600004FF48020914208BF4FF480401590FFE7CF
:1016100015981690FFE716981790FFE717981890FF
:10162000FFE718981990FFE719981A90FFE71A98A2
:101630001B90FFE71B981C90FFE71C981D90FFE78D
:101640001D981E90FFE71E980421C4F20201086055
:10165000FFE72B98C06A20B1FFE72B98C16A884743
:10166000FFE7B7E12A982B99096CC840800700284A
:1016700040F17F81FFE79DF8A4008007002840F13A
:101680007881FFE72B9800680068800600280BD45B
:10169000FFE72B980168086820F00A0008602B9982
:1016A000012081F82100FFE72B9800688121C4F216
:1016B00002018842C0F0A880FFE72B98006808214B
:1016C000C4F20201884203D1FFE70220149094E0A3
:1016D0002B9800681C21C4F20201884203D1FFE765
:1016E0002020139086E02B9800683021C4F202017C
:1016F000884204D1FFE74FF40070129077E02B98F6
:1017000000684421C4F20201884204D1FFE74FF48B
:101710000050119068E02B9800685821C4F2020133
:10172000884204D1FFE74FF40030109059E02B9825
:1017300000686C21C4F20201884204D1FFE74FF433
:1017400000100F904AE02B9800688021C4F202013B
:10175000884204D1FFE74FF000700E903BE02B98D9
:10176000006840F20841C4F20201884203D1FFE759
:1017700002200D902CE02B98006840F21C41C4F22E
:101780000201884203D1FFE720200C901DE02B9836
:10179000006840F23041C4F20201884204D1FFE700
:1017A0004FF400700B900DE02B98016840F244421A
:1017B000C4F202024FF40030914208BF4FF40050CF
:1017C0000B90FFE70B980C90FFE70C980D90FFE74C
:1017D0000D980E90FFE70E980F90FFE70F9810906E
:1017E000FFE710981190FFE711981290FFE7129809
:1017F0001390FFE713981490FFE7149840F2044108
:10180000C4F202010860A5E02B9800680821C4F228
:101810000201884203D1FFE702200A9094E02B984E
:1018200000681C21C4F20201884203D1FFE7202096
:10183000099086E02B9800683021C4F202018842AA
:1018400004D1FFE74FF40070089077E02B98006810
:101850004421C4F20201884204D1FFE74FF4005052
:10186000079068E02B9800685821C4F20201884272
:1018700004D1FFE74FF40030069059E02B98006840
:101880006C21C4F20201884204D1FFE74FF400103A
:1018900005904AE02B9800688021C4F2020188423A
:1018A00004D1FFE74FF0007004903BE02B980068F4
:1018B00040F20841C4F20201884203D1FFE702204E
:1018C00003902CE02B98006840F21C41C4F2020106
:1018D000884203D1FFE7202002901DE02B9800688A
:1018E00040F23041C4F20201884204D1FFE74FF4D4
:1018F000007001900DE02B98016840F24442C4F260
:1019000002024FF40030914208BF4FF400500190A2
:10191000FFE701980290FFE702980390FFE7039822
:101920000490FFE704980590FFE705980690FFE70D
:1019300006980790FFE707980890FFE70898099036
:10194000FFE709980A90FFE70A980421C4F2020110
:101950000860FFE7FFE72B99002081F82000FFE7F0
:101960002B98806A20B1FFE72B98816A8847FFE7B0
:101970002FE02A982B99096CC8400007002827D52A
:10198000FFE79DF8A4000007002821D5FFE72B986A
:101990000168086820F00E0008602B98C26B016C8B
:1019A000012000FA01F151602B9988632B9981F88D
:1019B0002100FFE72B99002081F82000FFE72B98FA
:1019C000006B20B1FFE72B98016B8847FFE7FFE72B
:1019D000FFE7FFE72CB080BD83B0019000200090AE
:1019E000019820B9FFE701208DF80B006AE001980B
:1019F000006840F20741C4F20201884218D8FFE7AC
:101A0000019908684FF6F872CBF6FD7210444CF657
:101A1000CD42CCF6CC42A0FB02026FF0030000EAFC
:101A20009200086401990020C4F20200C86318E023
:101A3000019908684FF6F832CBF6FD7210444CF667
:101A4000CD42CCF6CC42A0FB02026FF0030000EACC
:101A500092000864019940F20040C4F20200C86399
:101A6000FFE70199022081F82100019800680068D1
:101A70000090009843F6F0718843009001994868FF
:101A8000D1F808C0CB680A6940EA0C00184310433B
:101A90004A6910438A691043C969014300980843A1
:101AA00000900098019909680860019900208863F6
:101AB000019A012182F82110019981F820008DF806
:101AC0000B00FFE79DF80B0003B0704790B00F903C
:101AD0000E9100200D900990FFE70E9800680D9977
:101AE000C840002800F07F81FFE70D990120884061
:101AF0000C900E9800680C9908400B900B980C996C
:101B0000884240F06C81FFE70E98406805900028FD
:101B100051D0FFE7059801283AD0FFE70598022841
:101B20003FD0FFE7059803285FD0FFE7059811280D
:101B300032D0FFE70598122838D0FFE7059800213A
:101B4000C1F21101884236D0FFE705980021C1F2A9
:101B5000120188422FD0FFE705980021C1F2210130
:101B6000884228D0FFE705980021C1F2220188426F
:101B700021D0FFE705980021C1F2310188421AD037
:101B8000FFE705980021C1F23201884213D02FE00F
:101B90000E98C06809902CE00E98C0680430099037
:101BA00027E00E98C0680830099022E00E98C068BF
:101BB0000C3009901DE00E98806818B9FFE70420EA
:101BC000099011E00E988068012806D1FFE70820EF
:101BD00009900C980F99086105E0082009900C986D
:101BE0000F994861FFE7FFE703E00020099000E05C
:101BF000FFE70B98FF2803D8FFE70F98049003E056
:101C00000F9804300490FFE7049808900B98FF2881
:101C100004D8FFE70D988000039006E00D996FF05F
:101C20001F0000EB81000390FFE7039807900898DE
:101C30000068079A0F219140884309999140084311
:101C4000089908600E98C079C006002840F1C68047
:101C5000FFE7FFE741F21800C4F20200016841F01B
:101C600001010160006800F0010006900698FFE79E
:101C70000D9820F003000821C4F2010140580A9099
:101C80000D9800F0030081000F2000FA01F10A987E
:101C900088430A900F9840F60001C4F2010188427F
:101CA00003D1FFE70020029026E00F9840F60041A4
:101CB000C4F20101884203D1FFE70120019018E03E
:101CC0000F9841F20001C4F20101884203D1FFE7FD
:101CD000022000900AE00F9941F20042C4F2010292
:101CE0000420914208BF03200090FFE70098019074
:101CF000FFE701980290FFE702980D9901F00301B8
:101D0000890000FA01F10A9808430A900A980D998F
:101D100021F003010822C4F2010288500E98807954
:101D2000C006002809D5FFE70B9A40F20841C4F22B
:101D3000010108681043086008E00B9A40F208416E
:101D4000C4F20101086890430860FFE70E988079AB
:101D50008006002809D5FFE70B9A40F20C41C4F237
:101D6000010108681043086008E00B9A40F20C413A
:101D7000C4F20101086890430860FFE70E9880797B
:101D80008007002809D5FFE70B9A40F20441C4F20E
:101D9000010108681043086008E00B9A40F2044112
:101DA000C4F20101086890430860FFE70E9880794B
:101DB000C00748B1FFE70B9A40F20041C4F20101AD
:101DC00008681043086008E00B9A40F20041C4F232
:101DD0000101086890430860FFE7FFE7FFE70D98FF
:101DE00001300D9079E610B07047000082B001908C
:101DF000ADF802108DF801209DF8010028B1FFE731
:101E0000BDF802000199086105E0BDF80200000478
:101E100001990861FFE702B07047000042F23C60A0
:101E2000C2F200000068704740F20400C2F20000F5
:101E3000027842F23C61C2F2000108681044086076
:101E40007047000080B542F20001C4F20201086848
:101E500040F010000860032000F0DEF80F2000F0D2
:101E600005F800F07BF8002080BD000080B58CB044
:101E70000B900020049003908DF80700FFE741F2DB
:101E80001C00C4F20200016841F0200101600068FA
:101E900000F0200000900098FFE706A802A900F0DB
:101EA000EFF909980490049820B9FFE700F018FAB8
:101EB000059004E000F014FA40000590FFE7059853
:101EC0004DF68361C4F21B31A0FB01014FF0FF30DE
:101ED00000EB9140039040F65840C2F2000041F2FE
:101EE0000041C4F20001016040F2E731C160039992
:101EF0004160002101618160816100F087FF8DF800
:101F000007009DF8070028BBFFE740F65840C2F2E3
:101F1000000000F0F1FF8DF807009DF80700C0B940
:101F2000FFE7372000F054F80B980F280CD8FFE794
:101F30000B993720002200F055F80B9840F2080169
:101F4000C2F20001086003E001208DF80700FFE7FE
:101F5000FFE7FFE79DF807000CB080BD80B584B0B7
:101F6000FFE741F21800C4F20200016841F00101EC
:101F70000160006800F0010003900398FFE7FFE7AD
:101F800041F21C00C4F20200016841F0805101607E
:101F9000006800F0805002900298FFE76FF00100A7
:101FA0000F21002200F01EF8FFE70421C4F2010116
:101FB00008680190019820F0E0600190019840F0DD
:101FC0000070019001980860FFE704B080BD000038
:101FD00080B582B08DF807009DF9070002F0E6FB9E
:101FE00002B080BD80B586B08DF8170004910392D1
:101FF0000020029002F0F2FB02909DF91700019080
:1020000002980499039A01F0A9FD0146019802F093
:10201000EDFB06B080BD000080B582B00190019854
:1020200002F006FC02B080BD80B584B00290019140
:10203000029820B9FFE701208DF80F001BE10198FD
:1020400042F20001C4F20201096801F0070188426E
:1020500016D9FFE742F20000C4F20200016821F045
:102060000701019A11430160006800F0070001991F
:10207000884204D0FFE701208DF80F00FBE0FFE766
:1020800002980078800700282AD5FFE70298007898
:102090004007002809D5FFE741F20401C4F202011C
:1020A000086840F4E0600860FFE7029800780007E5
:1020B000002809D5FFE741F20401C4F202010868D3
:1020C00040F460500860FFE741F20401C4F20201ED
:1020D000086820F0F000029A926810430860FFE759
:1020E00002980078C007002860D0FFE70298406897
:1020F00001280ED1FFE741F20000C4F2020000689F
:102100008003002804D4FFE701208DF80F00B2E01F
:1021100021E00298406802280ED1FFE741F200005A
:10212000C4F2020000688001002804D4FFE7012007
:102130008DF80F009FE00DE041F20000C4F20200B4
:1021400000688007002804D4FFE701208DF80F0005
:1021500091E0FFE7FFE741F20401C4F202010868E1
:1021600020F00300029A526810430860FFF756FE01
:102170000090FFE741F20400C4F20200006800F0A2
:102180000C0002994968B0EB810F0ED0FFE7FFF712
:1021900045FE0099401A41F28931884204D3FFE795
:1021A00003208DF80F0066E0E4E7FFE7019842F2B4
:1021B0000001C4F20201096801F00701884216D249
:1021C000FFE742F20000C4F20200016821F00701BB
:1021D000019A11430160006800F0070001998842EC
:1021E00004D0FFE701208DF80F0044E0FFE70298DC
:1021F0000078400700280CD5FFE741F20401C4F243
:102200000201086820F4E060029AD2681043086076
:10221000FFE702980078000700280DD5FFE741F29C
:102220000401C4F20201086820F46050029A1269A5
:1022300040EAC2000860FFE700F076F841F20401CE
:10224000C4F202010968C9B20A0947F6A411C0F62E
:102250000001895CC84040F20001C2F20001086040
:1022600040F20800C2F200000068FFF7FFFD002006
:102270008DF80F00FFE79DF80F0004B080BD00004F
:1022800082B00190009101990F20086041F2040092
:10229000C4F20200016801F00301019A5160016873
:1022A00001F0F001019A9160016801F4E061019A86
:1022B000D160006800F46050C0080199086142F2E2
:1022C0000000C4F20200006800F0070000990860F6
:1022D00002B0704740F20000C2F200000068704790
:1022E00080B5FFF7F7FF41F20401C4F2020109686B
:1022F000C1F3022247F6B411C0F60001895CC84060
:1023000080BD000080B5FFF7E5FF41F20401C4F293
:1023100002010968C1F3C22247F6B411C0F60001F8
:10232000895CC84080BD000080B588B0002007905F
:1023300006900590049003900290019041F20400F1
:10234000C4F2020000680790079800F00C000146F4
:102350000091002878D0FFE70098042804D0FFE718
:102360000098082806D070E041F20020C0F27A0000
:10237000039070E00798C0F3834147F6BC10C0F6A5
:102380000000405C04909DF81E00C007002850D05B
:10239000FFE741F22C00C4F20200016801F00F02D5
:1023A00047F6CA11C0F60001895C06910068C003B7
:1023B000002825D5FFE741F22C00C4F20200016895
:1023C000CAB2012101EB12110291006800F47061A0
:1023D000022000EB1120019001980499A0FB01015B
:1023E00041F20022C0F27A02A0FB020301FB02319B
:1023F000029A069BA2FB0323FDF74FFF05900AE01C
:10240000049841F20021C0F27A0148430699B0FBDA
:10241000F1F00590FFE7049847F6BC11C0F6000103
:10242000497B884204D1FFE7059840080590FFE703
:1024300007E0049840F60011C0F23D0148430590C2
:10244000FFE70598039006E0FFE741F20020C0F2A5
:102450007A000390FFE7039808B080BD80B586B08E
:102460000490049820B9FFE701208DF81700EFE3EE
:1024700004980078C007002800F0AE80FFE741F222
:102480000400C4F20200006800F00C00042813D01D
:10249000FFE741F20400C4F20200006800F00C0003
:1024A00008281BD1FFE741F20400C4F202000068D3
:1024B000C003002812D5FFE741F20000C4F2020079
:1024C00000688003002808D5FFE70498806820B9D9
:1024D000FFE701208DF81700BAE37CE0FFE70498DE
:1024E0008068B0F5803F09D1FFE741F20001C4F2F6
:1024F0000201086840F48030086032E00498806887
:1025000068B9FFE741F20001C4F20201086820F453
:1025100080300860086820F48020086020E004987B
:102520008068B0F5A02F0DD1FFE741F20001C4F2A1
:102530000201086840F480200860086840F4803098
:1025400008600CE041F20001C4F20201086820F4C6
:1025500080300860086820F480200860FFE7FFE70B
:10256000FFE7FFE704988068D0B1FFE7FFF756FC6C
:102570000390FFE741F20000C4F20200006880030C
:1025800000280CD4FFE7FFF749FC0399401A65289F
:1025900004D3FFE703208DF8170059E3EAE719E0B9
:1025A000FFF73CFC0390FFE741F20000C4F2020099
:1025B0000068800300280CD5FFE7FFF72FFC039984
:1025C000401A652804D3FFE703208DF817003FE386
:1025D000EAE7FFE7FFE7FFE70498007880070028B5
:1025E00040F18D80FFE741F20400C4F20200006870
:1025F00010F00C0F13D0FFE741F20400C4F2020008
:10260000006800F00C00082829D1FFE741F204001F
:10261000C4F202000068C003002820D4FFE741F2A2
:102620000000C4F2020000688007002809D5FFE717
:1026300004984069012804D0FFE701208DF81700B5
:1026400006E341F20001C4F20201086820F0F8003C
:10265000049A926940EAC2000860FFE74EE00498DD
:10266000406958B3FFE70021C4F24221012008600D
:10267000FFF7D4FB0390FFE741F20000C4F2020031
:102680000068800700280CD4FFE7FFF7C7FB039919
:10269000401A032804D3FFE703208DF81700D7E280
:1026A000EAE741F20001C4F20201086820F0F800F4
:1026B000049A926940EAC20008601EE00021C4F258
:1026C000422100200860FFF7A9FB0390FFE741F2D9
:1026D0000000C4F202000068800700280CD5FFE764
:1026E000FFF79CFB0399401A032804D3FFE703205C
:1026F0008DF81700ACE2EAE7FFE7FFE7FFE7049891
:1027000000780007002848D5FFE70498C06918B38F
:10271000FFE740F28041C4F2422101200860FFF748
:102720007DFB0390FFE741F22400C4F20200006841
:10273000800700280CD4FFE7FFF770FB0399401ACD
:10274000032804D3FFE703208DF8170080E2EAE7AF
:10275000012001F05FFA1FE040F28041C4F2422103
:1027600000200860FFF75AFB0390FFE741F22400C6
:10277000C4F202000068800700280CD5FFE7FFF7CD
:102780004DFB0399401A032804D3FFE703208DF87B
:1027900017005DE2EAE7FFE7FFE7049800784007EB
:1027A000002840F1D880FFE700208DF8070041F2B3
:1027B0001C00C4F202000068C000002813D4FFE728
:1027C000FFE741F21C00C4F20200016841F08051B1
:1027D0000160006800F0805000900098FFE7012041
:1027E0008DF80700FFE747F20000C4F20000006820
:1027F000C005002822D4FFE747F20001C4F200011F
:10280000086840F480700860FFF708FB0390FFE75A
:1028100047F20000C4F200000068C00500280CD494
:10282000FFE7FFF7FBFA0399401A652804D3FFE797
:1028300003208DF817000BE2EAE7FFE7FFE70498B3
:102840000069012809D1FFE741F22001C4F2020129
:10285000086840F00100086031E00498006968B938
:10286000FFE741F22001C4F20201086820F00100F4
:102870000860086820F0040008601FE00498006900
:1028800005280DD1FFE741F22001C4F202010868DA
:1028900040F004000860086840F0010008600CE0A7
:1028A00041F22001C4F20201086820F00100086032
:1028B000086820F004000860FFE7FFE7FFE7FFE794
:1028C00004980069E0B1FFE7FFF7A8FA0390FFE77B
:1028D00041F22000C4F202000068800700280ED4F4
:1028E000FFE7FFF79BFA0399401A41F289318842CA
:1028F00004D3FFE703208DF81700A9E1E8E71BE008
:10290000FFF78CFA0390FFE741F22000C4F20200C7
:102910000068800700280ED5FFE7FFF77FFA0399CC
:10292000401A41F28931884204D3FFE703208DF831
:1029300017008DE1E8E7FFE79DF80700012809D1BE
:10294000FFE741F21C01C4F20201086820F0805048
:102950000860FFE7FFE70498C06A002800F0B7802E
:10296000FFE741F20400C4F202000068C00300283F
:1029700017D5FFE741F20400C4F20200006800F03E
:102980000C0008280DD1FFE741F22C00C4F2020030
:102990000068C003002804D5FFE701208DF8170068
:1029A00056E10498C06A022868D1FFE741F20000AE
:1029B000C4F202000068C000002810D5FFE741F211
:1029C0002C00C4F20200006800F0F0000499496B8A
:1029D000884204D0FFE701208DF8170038E1682114
:1029E000C4F2422100200860FFF718FA0390FFE7C5
:1029F00041F20000C4F202000068000100280CD57A
:102A0000FFE7FFF70BFA0399401A652804D3FFE7A5
:102A100003208DF817001BE1EAE741F22C01C4F214
:102A20000201086820F0F000049A526B104308601D
:102A3000086820F47060049A126B104308606821E3
:102A4000C4F2422101200860FFF7E8F90390FFE794
:102A500041F20000C4F202000068000100280CD41A
:102A6000FFE7FFF7DBF90399401A652804D3FFE776
:102A700003208DF81700EBE0EAE726E041F22C0195
:102A8000C4F20201086820F4803008606821C4F2B2
:102A9000422100200860FFF7C1F90390FFE741F2EF
:102AA0000000C4F202000068000100280CD5FFE716
:102AB000FFF7B4F90399401A652804D3FFE7032010
:102AC0008DF81700C4E0EAE7FFE7FFE7FFE70498A7
:102AD000006A002800F0B880FFE741F20400C4F269
:102AE0000200006800F00C00082800F08780FFE773
:102AF0000498006A022861D1FFE76021C4F24221F4
:102B000000200860FFF78AF90390FFE741F2000018
:102B1000C4F202000068800100280CD5FFE7FFF72F
:102B20007DF90399401A032804D3FFE703208DF8A9
:102B300017008DE0EAE70498406AB0F5803F11D1B4
:102B4000FFE70498426841F22C01C4F202010868D0
:102B500010430860086820F00F00049AD268104300
:102B60000860FFE741F20401C4F20201086820F4A2
:102B70007410049B5A6A9B6A1A43104308606021D0
:102B8000C4F2422101200860FFF748F90390FFE7F3
:102B900041F20000C4F202000068800100280CD459
:102BA000FFE7FFF73BF90399401A032804D3FFE737
:102BB00003208DF817004BE0EAE71EE06021C4F225
:102BC000422100200860FFF729F90390FFE741F256
:102BD0000000C4F202000068800100280CD5FFE765
:102BE000FFF71CF90399401A032804D3FFE70320D9
:102BF0008DF817002CE0EAE7FFE724E00498006A6C
:102C0000012804D1FFE701208DF8170020E041F2F0
:102C10000400C4F2020000680290029800F48030C0
:102C20000499496A884208D1FFE7029800F47010BD
:102C30000499896A884204D0FFE701208DF81700C3
:102C400006E0FFE7FFE7FFE700208DF81700FFE74A
:102C50009DF8170006B080BD81B0009001B07047AC
:102C600081B0009001B0704784B0029001910020C3
:102C70000090FFE7029890F83C00012804D1FFE79C
:102C800002208DF80F0044E00299012081F83C00F9
:102C9000FFE7FFE7009820F0FF000199C9680843AB
:102CA0000090009820F440700199896808430090D2
:102CB000009820F4806001994968084300900098CA
:102CC00020F400600199096808430090009820F4FE
:102CD00080500199096908430090009820F4005041
:102CE0000199496908430090009820F480400199B7
:102CF000C969084300900098029909684864FFE791
:102D00000299002081F83C00FFE700208DF80F00B9
:102D1000FFE79DF80F0004B07047000085B00390F6
:102D20000291FFE7039890F83C00012804D1FFE7E7
:102D300002208DF8130064E00399012081F83C0023
:102D4000FFE7FFE70399022081F83D000398006840
:102D5000406801900398006880680090019820F016
:102D60007000019002980168019808430190019851
:102D70000399096848600398006842F60041C4F26C
:102D80000101884221D0FFE703980068B0F1804F2D
:102D90001BD0FFE70398006840F20041C4F2000135
:102DA000884212D0FFE70398006840F60001C4F2A1
:102DB0000001884209D0FFE70398006840F600410F
:102DC000C4F2000188420ED1FFE7009820F0800095
:102DD0000090029841680098084300900098039979
:102DE00009688860FFE70399012081F83D00FFE74B
:102DF0000399002081F83C00FFE700208DF81300C4
:102E0000FFE79DF8130005B07047000080B582B061
:102E10000090009820B9FFE701208DF807003FE0FF
:102E2000009890F83D0040B9FFE70099002081F834
:102E30003C00009800F038F8FFE70099022081F884
:102E40003D00009951F8040B00F092FF0099012019
:102E500081F84600FFE70099012081F83E000099C3
:102E600081F83F00009981F84000009981F8410005
:102E7000FFE7FFE70099012081F84200009981F8FF
:102E80004300009981F84400009981F84500FFE76C
:102E90000099012081F83D0000208DF80700FFE730
:102EA0009DF8070002B080BD80B584B00390039800
:102EB000006842F60041C4F20101884219D1FFE7DF
:102EC000FFE741F21800C4F20200016841F400611A
:102ED0000160006800F4006002900298FFE719208A
:102EE000019005210022FFF77DF80198FFF770F8A7
:102EF000FFE704B080BD000083B00190019890F816
:102F00003D00012804D0FFE701208DF80B0050E0C0
:102F10000199022081F83D0001980168C86840F0DD
:102F20000100C8600198006842F60041C4F2010146
:102F3000884221D0FFE701980068B0F1804F1BD094
:102F4000FFE70198006840F20041C4F200018842A6
:102F500012D0FFE70198006840F60001C4F20001BA
:102F6000884209D0FFE70198006840F60041C4F2AA
:102F70000001884212D1FFE701980068806800F0E4
:102F8000070000900098062807D0FFE70198016825
:102F9000086840F001000860FFE706E0019801685A
:102FA000086840F001000860FFE700208DF80B0082
:102FB000FFE79DF80B0003B07047000080B586B0B6
:102FC0000490039100208DF80B00FFE7049890F81F
:102FD0003C00012804D1FFE702208DF81700ABE088
:102FE0000499012081F83C00FFE7FFE704990220E3
:102FF00081F83D000498006880680190019820F0F5
:1030000077000190019820F47F4001900198049985
:1030100009688860039800680090002872D0FFE774
:10302000009810286ED0FFE7009820286AD0FFE7AC
:103030000098302866D0FFE70098402855D0FFE779
:103040000098502837D0FFE70098602840D0FFE76D
:10305000009870280BD0FFE70098B0F5805F05D08E
:10306000FFE70098B0F5005F16D052E055E00498F5
:103070000068039B5A689968DB6800F001FF0498B8
:10308000006880680190019840F0770001900198F5
:1030900004990968886040E004980068039B5A68B6
:1030A0009968DB6800F0ECFE04980168886840F4D9
:1030B0008040886031E004980068039A5168D268C3
:1030C00001F09AF804980068502100F0F3FE24E023
:1030D00004980068039A5168D26801F0B5F8049822
:1030E0000068602100F0E6FE17E004980068039A8B
:1030F0005168D26801F080F804980068402100F01F
:10310000D9FE0AE0049800680399096800F0D2FE2D
:1031100003E001208DF80B00FFE70499012081F8FE
:103120003D00FFE70499002081F83C00FFE79DF88F
:103130000B008DF81700FFE79DF8170006B080BD63
:1031400081B0009001B0704780B582B001900198C5
:103150000068006900F002010020B0EB510F28D098
:10316000FFE701980068C06800F002010020B0EBA2
:10317000510F1DD0FFE7019801686FF00200086150
:10318000019901200877019800688069800720B1C3
:10319000FFE70198FFF7D4FF06E0019800F042F93D
:1031A000019800F037FAFFE7019900200877FFE760
:1031B000FFE701980068006900F004010020B0EB0F
:1031C000910F29D0FFE701980068C06800F0040162
:1031D0000020B0EB910F1ED0FFE7019801686FF05F
:1031E000040008610199022008770198006880694D
:1031F00010F4407F04D0FFE70198FFF7A1FF06E03D
:10320000019800F00FF9019800F004FAFFE7019926
:1032100000200877FFE7FFE701980068006900F0E9
:1032200008010020B0EBD10F28D0FFE7019800681B
:10323000C06800F008010020B0EBD10F1DD0FFE7FF
:10324000019801686FF0080008610199042008776F
:1032500001980068C069800720B1FFE70198FFF777
:103260006FFF06E0019800F0DDF8019800F0D2F958
:10327000FFE7019900200877FFE7FFE70198006862
:10328000006900F010010020B0EB111F29D0FFE70A
:1032900001980068C06800F010010020B0EB111F19
:1032A0001ED0FFE7019801686FF0100008610199D6
:1032B0000820087701980068C06910F4407F04D0A6
:1032C000FFE70198FFF73CFF06E0019800F0AAF83D
:1032D000019800F09FF9FFE7019900200877FFE7C8
:1032E000FFE7019800680069C00780B1FFE7019817
:1032F0000068C068C00748B1FFE7019801686FF037
:1033000001000861019800F089F9FFE7FFE70198E3
:1033100000680069C1B20020B0EBD11F13D0FFE7F5
:1033200001980068C068C1B20020B0EBD11F09D07D
:10333000FFE7019801686FF0800008610198FFF7CE
:103340008BFCFFE7FFE701980068006900F040018F
:103350000020B0EB911F14D0FFE701980068C0680F
:1033600000F040010020B0EB911F09D0FFE7019869
:1033700001686FF040000861019800F061F9FFE713
:10338000FFE701980068006900F020010020B0EB21
:10339000511F14D0FFE701980068C06800F02001B9
:1033A0000020B0EB511F09D0FFE7019801686FF0D2
:1033B000200008610198FFF753FCFFE7FFE702B028
:1033C00080BD000080B586B0059000200490039079
:1033D000029001900598006842F60041C4F2010194
:1033E00088421DD1FFE7FFE741F21800C4F2020056
:1033F000016841F004010160006800F004000090E1
:103400000098FFE74FF48060019002200290049042
:1034100040F60000C4F2010001A9FEF757FBFFE7E8
:1034200006B080BD81B0009001B0704780B586B015
:1034300004900391029200208DF80700FFE70498A2
:1034400090F83C00012804D1FFE702208DF8170016
:1034500089E00499012081F83C00FFE7FFE702982A
:1034600000900C2800F270800099DFE801F0076DF1
:103470006D6D206D6D6D3A6D6D6D53000498006833
:10348000039900F02DFD04980168886940F0080058
:10349000886104980168886920F0040088610398B5
:1034A00002690498016888691043886150E00498B3
:1034B0000068039900F07CFD04980168886940F475
:1034C0000060886104980168886920F480608861E0
:1034D0000398026904980168886940EA02208861BB
:1034E00036E004980068039900F0CEFD0498016866
:1034F000C86940F00800C86104980168C86920F0F4
:103500000400C8610398026904980168C8691043FF
:10351000C8611DE004980068039900F021FE04983A
:103520000168C86940F40060C86104980168C8690E
:1035300020F48060C8610398026904980168C86932
:1035400040EA0220C86103E001208DF80700FFE790
:10355000FFE70499002081F83C00FFE79DF8070091
:103560008DF81700FFE79DF8170006B080BD00003A
:1035700080B582B00090009820B9FFE701208DF857
:1035800007003FE0009890F83D0040B9FFE7009940
:10359000002081F83C00009800F038F8FFE700991F
:1035A000022081F83D00009951F8040B00F0E0FB87
:1035B0000099012081F84600FFE70099012081F879
:1035C0003E00009981F83F00009981F84000009981
:1035D00081F84100FFE7FFE70099012081F84200F0
:1035E000009981F84300009981F84400009981F81E
:1035F0004500FFE70099012081F83D0000208DF88B
:103600000700FFE79DF8070002B080BD81B0009081
:1036100001B0704781B0009001B0704780B582B0B2
:1036200001900198006841F20041C4F20001884213
:1036300003D1FFE7FEF7F8FBFFE702B080BD000013
:1036400081B0009001B0704780B582B000900098C2
:1036500020B9FFE701208DF8070040E0009880695D
:1036600008B1FFE700E0FFE7009890F8410040B99B
:10367000FFE70099002081F84000009800F034F83E
:10368000FFE70099242081F8410000980168C8688C
:1036900020F40050C860009800F000FE0098016817
:1036A000086920F49040086100980168486920F09A
:1036B0002A00486100980168C86840F40050C8605A
:1036C000009900204864009A202182F84110009A55
:1036D00082F84210009948638DF80700FFE79DF8D3
:1036E000070002B080BD000080B58CB00B900020B8
:1036F0000A900990089007900B98006844F20041E6
:10370000C4F20001884240F08480FFE7FFE741F205
:103710001C00C4F20200016841F40031016000683D
:1037200000F4003006900698FFE7FFE741F218002A
:10373000C4F20200016841F004010160006800F079
:10374000040005900598FFE70420079002200890E8
:1037500003200A9040F60000C4F20100019007A97E
:103760000291FEF7B3F9019802990822079200220C
:10377000039208920992FEF7A9F9039940F688305E
:10378000C2F2000004906C22C4F2020202604160A6
:1037900081608022C2600161416181614FF400510A
:1037A000C161FEF719F918B1FFE7FDF73FF8FFE730
:1037B000FFE70B9840F68831C2F20001C1630B9815
:1037C0004862FFE740F6CC30C2F200000090802152
:1037D000C4F2020101601021416000218160802259
:1037E000C2600161416181614FF40051C161FEF726
:1037F000F3F818B1FFE7FDF719F8FFE7FFE70B98BB
:1038000040F6CC31C2F2000181630B984862FFE7B9
:10381000FFE70CB080BD0000FFE7FEE780B582B097
:1038200040F63830C2F20000019046F20041C4F286
:10383000000101600421416000218160C1604FF4FA
:10384000802202614FF40012426101760122427629
:103850008176C17601774177FDF7F8FA18B1FFE775
:10386000FCF7E4FFFFE702B080BD000080B582B046
:1038700040F66030C2F20000019046F60001C4F24A
:10388000000101600421416000218160C1604FF4AA
:10389000003202614FF480024261017601224276D9
:1038A0008276C17601774177FDF7D0FA18B1FFE74C
:1038B000FCF7BCFFFFE702B080BD000080B586B01A
:1038C000FFE741F21400C4F20200016841F0010177
:1038D0000160006800F0010005900598FFE71020E6
:1038E00001900521029100220392FEF77BFB0198D3
:1038F000FEF76EFB0299039A11200490FEF772FB0B
:103900000498FEF765FB06B080BD000080B582B06C
:1039100043F67540C0F6000047F6DC12C0F6000220
:103920000021019101F0DEF8019940F63432C2F233
:103930000002106043F68540C0F6000047F6002202
:10394000C0F6000201F0CEF841F22861C2F2000197
:10395000086002B080BD000080B58AB000200990E8
:10396000089007900690FFE741F21800C4F20200A9
:10397000016841F020010160006800F0200005901E
:103980000598FFE7FFE741F21800C4F20200016862
:1039900041F004010160006800F004000490049804
:1039A000FFE7FFE741F21800C4F20200016841F0AE
:1039B00008010160006800F0080003900398FFE729
:1039C00040F60040C4F20100029003210191002260
:1039D000FEF70CFA01990298069101210791022144
:1039E0000891099106A9FEF771F80AB080BD0000A0
:1039F00080B598B0002101911791169115911491FD
:103A000013911291119110910F910E910D910C91B2
:103A10000B910A91099108910791069105910491E2
:103A2000039140F61040C2F20000029042F60042BC
:103A3000C4F20102026024224260816040F2E73257
:103A4000C2600161416180218161FFF7DFF918B136
:103A5000FFE7FCF7EBFEFFE74FF48050149040F6D1
:103A60001040C2F2000014A9FFF7A8FA18B1FFE74E
:103A7000FCF7DCFEFFE740F61040C2F20000FFF763
:103A800077FD18B1FFE7FCF7D1FEFFE700201290A9
:103A9000139040F61040C2F2000012A9FFF73EF961
:103AA00018B1FFE7FCF7C2FEFFE760200B90002093
:103AB0000C900D900E900F901090119040F61040C9
:103AC000C2F200000BA90822FFF7B0FC18B1FFE713
:103AD000FCF7ACFEFFE700200390049005900690F1
:103AE00007904FF4005108910A9040F61040C2F23E
:103AF000000003A9FFF7B8F818B1FFE7FCF796FE3E
:103B0000FFE740F61040C2F20000FFF75BFC18B080
:103B100080BD000080B582B040F6A040C2F2000037
:103B2000019044F20041C4F2000101604FF4E13120
:103B3000416000218160C16001610C2242618161AC
:103B4000C161FFF781FD18B1FFE7FCF76FFEFFE7EA
:103B500002B080BDFFE7FEE7FFE7FEE788B0079011
:103B600006910592079800F0070004900498C0F1B0
:103B70000700052803D3FFE70420019004E0049820
:103B8000C0F107000190FFE701980390049804300A
:103B9000062803D8FFE70020009003E004980338CC
:103BA0000090FFE70098029006980399012202FA1C
:103BB00001F101390840029B984005999A40013A69
:103BC0001140084308B070470000000000000000EA
:103BD000EFF30980BFF36F8F0D4B1A6820E9F00FE8
:103BE00010602DE908404FF0500080F3118802F07A
:103BF000C1FB4FF0000080F31188BDE80840196850
:103C00000868B0E8F00F80F30988BFF36F8F704742
:103C1000DC0D002082B00190019840F20001C2F258
:103C200000010968C90844F6D352C1F26202A1FB3F
:103C30000221890948430090FFE700BFFFE7009891
:103C4000411E00910028F8D1FFE702B07047000044
:103C5000074B19680868B0E8F00F80F30988BFF3D4
:103C60006F8F4FF0000080F311884EF00D0E7047FB
:103C7000DC0D002080B582B00190FFE7012000F04C
:103C80008FFEFBE780B582B00190FFE7012000F0D6
:103C900087FEFBE780B582B04FF0500080F31188BB
:103CA000BFF36F8FBFF34F8F009003F039F940B12E
:103CB000FFE74EF60451CEF200014FF0805008604D
:103CC000FFE700200190019880F3118802B080BDC9
:103CD00080B596B008A801903821FCF7DAFB01986E
:103CE000002102910791069105910491039101230E
:103CF00008934FF480320A920B910D93099102239D
:103D0000109311924FF4E01212921391FEF7A6FB5A
:103D100018B1FFE7FCF78AFDFFE70F2003900221AF
:103D20000491002005904FF480620692079003A84A
:103D3000FEF77AF918B1FFE7FCF778FDFFE770218D
:103D4000C4F242210120086016B080BD7047000017
:103D500080B540F61040C2F20000FFF7F5F980BDD3
:103D600080B540F65840C2F20000FFF7EDF980BD83
:103D700083B002900191029800680090029842F688
:103D80000041C4F2010188421DD0FFE70298B0F162
:103D9000804F18D0FFE7029840F20041C4F20001C2
:103DA000884210D0FFE7029840F60001C4F20001FB
:103DB000884208D0FFE7029840F60041C4F20001B3
:103DC00088420AD1FFE7009820F070000090019827
:103DD0004168009808430090FFE7029842F60041CE
:103DE000C4F2010188421DD0FFE70298B0F1804F74
:103DF00018D0FFE7029840F20041C4F20001884267
:103E000010D0FFE7029840F60001C4F2000188429A
:103E100008D0FFE7029840F60041C4F20001884252
:103E20000AD1FFE7009820F4407000900198C16823
:103E3000009808430090FFE7009820F08000019967
:103E400049690843009000980299086001988068C9
:103E50000299C8620198006802998862029842F645
:103E60000041C4F20101884205D1FFE701980069D1
:103E700002990863FFE702990120486103B0704787
:103E800085B0049003910292019304988068009099
:103E9000009820F47F40009003980299019A41EA2B
:103EA000022101430098084300900098049988601B
:103EB00005B0704783B0029001910298806800902D
:103EC000009820F07000009001980099084340F09D
:103ED0000700009000980299886003B070470000C6
:103EE00085B0049003910498006A01900499086ACF
:103EF00020F00100086204984068009004988069EE
:103F00000290029820F070000290029820F00300C6
:103F1000029003980168029808430290019820F0EB
:103F20000200019003988168019808430190049869
:103F300042F60041C4F2010188420ED1FFE7019828
:103F400020F0080001900398C1680198084301908F
:103F5000019820F004000190FFE7049842F6004128
:103F6000C4F20101884213D1FFE7009820F4807069
:103F70000090009820F40070009003984169009828
:103F80000843009003988169009808430090FFE778
:103F900000980499486002980499886103984068E1
:103FA0000499486301980499086205B070470000BD
:103FB00085B0049003910498006A01900499086AFE
:103FC00020F010000862049840680090049880690E
:103FD0000290029820F4E0400290029820F4407091
:103FE000029003980168029840EA0120029001982B
:103FF00020F02000019003988168019840EA0110A8
:104000000190049842F60041C4F2010188420FD1A8
:10401000FFE7019820F0800001900398C1680198A3
:1040200040EA01100190019820F040000190FFE764
:10403000049842F60041C4F20101884215D1FFE71D
:10404000009820F480600090009820F400600090B8
:1040500003984169009840EA8100009003988169C3
:10406000009840EA81000090FFE7009804994860BA
:1040700002980499886103984068049988630198BC
:104080000499086205B0704785B0049003910498C4
:10409000006A01900499086A20F48070086204980C
:1040A000406800900498C0690290029820F0700067
:1040B0000290029820F00300029003980168029891
:1040C00008430290019820F40070019003988168E1
:1040D000019840EA01200190049842F60041C4F2A0
:1040E000010188420FD1FFE7019820F400600190A0
:1040F0000398C168019840EA01200190019820F4DA
:1041000080600190FFE7049842F60041C4F201018B
:10411000884215D1FFE7009820F480500090009865
:1041200020F40050009003984169009840EA011083
:10413000009003988169009840EA01100090FFE721
:1041400000980499486002980499C86103984068EF
:104150000499C86301980499086205B0704700008B
:1041600085B0049003910498006A01900499086A4C
:1041700020F4805008620498406800900498C06958
:104180000290029820F4E0400290029820F44070DF
:10419000029003980168029840EA01200290019879
:1041A00020F40050019003988168019840EA0130A2
:1041B0000190049842F60041C4F2010188420BD1FB
:1041C000FFE7009820F48040009003984169009830
:1041D00040EA81100090FFE7009804994860029837
:1041E0000499C86103984068049908640198049987
:1041F000086205B07047000085B0049003910292F8
:104200000498006A00900499086A20F0010008628E
:10421000049880690190019820F0F00001900299C3
:10422000019840EA01100190009820F00A000090E7
:1042300003990098084300900198049988610098B8
:104240000499086205B0704785B00490039102920A
:104250000498006A00900499086A20F0100008622F
:10426000049880690190019820F4704001900299AF
:10427000019840EA01300190009820F0A0000090E1
:104280000399009840EA0110009001980499886110
:1042900000980499086205B07047000080B584B0AA
:1042A000039003980068006920F44050039A116855
:1042B000D26810430861039988680A694969104304
:1042C0000843029003980068C06841F20C6188437B
:1042D0000299084303990968C86003980068406917
:1042E00020F44070039A1168926910434861039862
:1042F000006843F60001C4F20101884204D1FFE7DF
:10430000FEF700F8019003E0FDF7EAFF0190FFE7F8
:10431000019819214843039A116852689200B0FB32
:10432000F2FC48F21F52C5F2EB12ACFB023043091B
:10433000642003FB10CC322000EB0C10A0FB020227
:10434000F02000EA521000EB0310C2F343121044B5
:10435000886004B080BD0000FFE7FEE780B500F094
:1043600099FA80BD80B500F0B3FA80BD80B500F049
:104370007DFA80BD80B500F085FA80BD80B588B03B
:1043800007900691079803F039F902900491069876
:1043900003F034F90246029801920B460499039304
:1043A00003F02DFA019A039B049984460298BCF10C
:1043B000000F944618BF8446CDF814C003F01FFACE
:1043C0000399049A03460598002B18BF114608B0BC
:1043D00080BD000081B0009000984CF68601C3F2C9
:1043E0003661016046F26661C3F6A67141604CF227
:1043F0008F21C3F67541816046F26661C3F686710E
:10440000C160002101614CF6CD41C4F21811416137
:1044100001B0704781B000900098002101614161B6
:104420000176417601B0704780B582B00190019865
:10443000009000F083F90098503000F07FF9009868
:10444000002180F8B4104FF40052A0F8B6204FF4C9
:104450008042A0F8B820C0F8BC10C0F8C01080F8A6
:10446000C410032280F8F020C0F8F410C0F8F8104F
:10447000C0F8FC10C0F80011C0F80411C0F8081111
:10448000C0F80C11C0F81011C0F81411C0F81811C0
:10449000C0F81C1102B080BD80B582B001900198B7
:1044A0000090FFF7C1FF009800F59070FFF7BCFF88
:1044B000009800F51070FFF7ADFF009800F51C7034
:1044C000FFF788FF0098002180F8551380F85613F5
:1044D00080F8571302B080BD80B5A2B0219021981A
:1044E000039011A8019000F0ADF80199039800F134
:1044F000080219A8009000F039F9009903981030CB
:1045000000F008F9009800F0FFF8019800F0FCF8BE
:104510000BA8029000F052F802990398303000F096
:1045200087F8029800F07EF805A8049000F046F89D
:1045300003980499483000F07BF8049800F072F872
:1045400022B080BD80B584B003900291019203989F
:10455000009002210160019941600299816000216F
:10456000C160103000F0C0F80098303000F04AF818
:104570000098483000F046F80098603000F01EF8CF
:104580000098FFF7A9FF009804B080BD80B582B005
:10459000019001980090603000F044F80098483095
:1045A00000F040F80098303000F03CF800981030EF
:1045B00000F0AAF8009802B080BD000080B584B079
:1045C000039000210291019101A900F003F804B0C9
:1045D00080BD000080B584B00390029103980190E3
:1045E00000F010F80198029A11685268426103467F
:1045F00043F8101F0221012200F072F9019804B063
:1046000080BD000080B582B0019001980090022129
:1046100081600122C26000F1100300F061F900988E
:1046200002B080BD81B00090009801B070470000DA
:1046300081B00A4600900098116952694261016197
:1046400001B0704780B58AB00390099000200890AF
:104650000790069005900490FFE7049802F0CEFFC3
:104660000190029102210846FFF788FE0246019858
:104670000B46029903F0B5F868B9FFE7049800EB20
:10468000400205A94FF07E5041F82200FFE7049850
:1046900001300490E1E7039805A900F003F80AB09F
:1046A00080BD000080B584B0039002910398019012
:1046B00000F01AF80198DDF808C0DCF80010DCF80A
:1046C0000420DCF80830DCF80CC0C0F81CC08361A2
:1046D0004261034643F8101F0222114600F000F920
:1046E000019804B080BD000080B582B001900198AF
:1046F000009002228260C26000F11003114600F0B7
:10470000EFF8009802B080BD81B00090009801B031
:104710007047000081B08C4600900098DCF81010C3
:10472000DCF81420DCF81830DCF81CC0C0F81CC021
:1047300083614261016101B07047000081B0009067
:1047400000980021C160016141618161C161016224
:1047500041628162C162016341638163C16301643B
:1047600041648164C16401B07047000080B586B0C7
:1047700001900590049103920499009100218DF815
:104780000B10FFF7B1FF0098019A0399096800F038
:10479000BBF801208DF80B009DF80B0020B9FFE756
:1047A0000198FFF7B1FFFFE706B080BD81B08DF83B
:1047B00003009DF9030000280ED4FFE79DF90310C4
:1047C00001F01F02012090404A094EF20011CEF282
:1047D000000141F82200FFE701B070474EF60C508F
:1047E000CEF200000068C0F30220704782B08DF85E
:1047F000070000919DF9070000280AD4FFE7009800
:1048000000019DF907104EF20042CEF200028854DA
:104810000BE0009800019DF8071001F00F014EF623
:104820001452CEF200028854FFE702B07047000035
:1048300083B00290029800F0070000904EF60C51F1
:10484000CEF200010868019001984FF6FF02104077
:1048500001900198009A40EA02200022C0F2FA5228
:10486000104301900198086003B0704741F20400C2
:10487000CEF20000006840F63031C2F2000108605C
:104880007047000080B540F25430C2F20000FFF7DC
:1048900003FE80BD80B582B041F25420C2F2000018
:1048A00001904CF2AC51C3F227714FF65872C3F627
:1048B0007F72FFF747FE019944F28D50C0F6000069
:1048C00040F20002C0F60002FBF75FFD02B080BDBF
:1048D00080B541F2D020C2F20000FFF7DDFD80BDBF
:1048E00083B00290ADF80610ADF804200093BDF837
:1048F000060002990880BDF80400029948800098DB
:104900000299486003B0704780B588B0079006915F
:1049100005920798406804900598406803900799AD
:10492000088849884843029002980190FFE701985F
:1049300078B1FFE70498011D04910068069902F020
:1049400065FF03990A1D03920860019801380190E0
:10495000EDE700208DF803009DF9030008B080BD4D
:10496000704700000020704780B582B000200190A1
:10497000FDF768FAFFF7ACF9FEF7EEFFFEF79EFFD2
:10498000FEF74CFFFEF772FFFFF732F8FFF7C2F8B1
:1049900000F034F8FEF7BAFF00F068F8FFE7FEE732
:1049A00080B586B00290EFF3058003900398A0B91C
:1049B000FFE7EFF310800490049870B9FFE740F22E
:1049C0005030C2F20000006802280AD1FFE7EFF37E
:1049D00011800590059820B1FFE76FF00500019068
:1049E00009E000200190029820B1FFE7029801F051
:1049F000A9FBFFE7FFE7019806B080BD84B0EFF3A5
:104A0000058001900198A0B9FFE7EFF310800290B4
:104A1000029870B9FFE740F25030C2F2000000681F
:104A200002280AD1FFE7EFF311800390039820B129
:104A3000FFE76FF00500009014E040F25030C2F242
:104A40000000006848B9FFE740F25031C2F20001AF
:104A5000012008600020009003E04FF0FF3000903C
:104A6000FFE7FFE7009804B07047000080B584B00E
:104A7000EFF3058001900198A0B9FFE7EFF31080F4
:104A80000290029870B9FFE740F25030C2F2000085
:104A9000006802280AD1FFE7EFF311800390039822
:104AA00020B1FFE76FF00500009017E040F25030B2
:104AB000C2F20000006801280BD1FFE740F250313C
:104AC000C2F200010220086001F0DAFB0020009031
:104AD00003E04FF0FF300090FFE7FFE7009804B0DD
:104AE00080BD0000B0B590B00B900A9109920020F3
:104AF0000590EFF305800D900D98002840F0B580EB
:104B0000FFE7EFF310800E900E98002840F0AD8084
:104B1000FFE740F25030C2F200000068022808D1DE
:104B2000FFE7EFF311800F900F98002840F09D8071
:104B3000FFE70B98002800F09880FFE780200690A0
:104B40001820049000208DF823000DF12300079019
:104B50004FF0FF300390099800284DD0FFE70998E7
:104B6000006820B1FFE7099800680790FFE70998FF
:104B7000806920B1FFE7099880690490FFE70498F5
:104B800048B1FFE70498382805D8FFE7099800796D
:104B9000C00718B1FFE700200C9069E00998406950
:104BA00028B1FFE70998406980080690FFE7099857
:104BB000806880B1FFE70998C06884280BD3FFE7BD
:104BC0000998006938B1FFE70998406918B1FFE713
:104BD000012003900FE00998806858B9FFE7099811
:104BE000C06838B9FFE70998006918B9FFE70020E5
:104BF0000390FFE7FFE702E000200390FFE7039840
:104C0000012817D1FFE70B980799069A0A9BDDF850
:104C100010C0DDF824E0DEF80850DEF81040EE4663
:104C2000CEF80850CEF80440CEF800C002F0ECF800
:104C3000059019E00398B0B9FFE70B980799BDF804
:104C400018200A9BDDF810C0EE4605ACCEF80440F3
:104C5000CEF800C002F088F8012803D0FFE700205A
:104C60000590FFE7FFE7FFE7FFE705980C90FFE7F8
:104C70000C9810B0B0BD000080B584B003900291D4
:104C800042F24870C2F200000068009040F6DC502A
:104C9000C2F200000068043001F01EF808B9FFE716
:104CA00000E0FFE70398013080B9FFE7029868B1A0
:104CB000FFE740F6DC50C2F200000068011D42F23E
:104CC0002070C2F2000001F0ADF83DE000980399B9
:104CD00008440190019840F6DC51C2F200010968D5
:104CE00048600198009988420ED2FFE740F6EC50E8
:104CF000C2F20000006840F6DC51C2F2000109680F
:104D0000043101F059F81EE040F6E450C2F2000010
:104D1000006840F6DC51C2F200010968043101F07C
:104D20004BF8019842F2B861C2F20001096888426A
:104D300007D2FFE7019842F2B861C2F200010860B1
:104D400000E0FFE7FFE7FFE704B080BD80B582B079
:104D5000019001F085F842F24061C2F2000108685A
:104D60000130086040F6DC50C2F20000006898B9DB
:104D7000FFE7019840F6DC51C2F20001086042F200
:104D80004060C2F200000068012803D1FFE700F094
:104D9000EFFA00E0FFE71CE042F21470C2F20000FC
:104DA0000068A0B9FFE740F6DC50C2F200000068DE
:104DB000C06A0199C96A884207D8FFE7019840F69E
:104DC000DC51C2F20001086000E0FFE700E0FFE70D
:104DD000FFE742F25060C2F2000001680131016059
:104DE0000068019988660198C06A42F25461C2F273
:104DF00000010968884208D9FFE70198C06A42F2B9
:104E00005461C2F200010860FFE70199C86A00EB33
:104E1000800240F6F450C2F2000000EB8200043140
:104E200001F000F801F048F842F21470C2F20000FC
:104E30000068C8B1FFE740F6DC50C2F2000000682D
:104E4000C06A0199C96A88420CD2FFE74EF6045144
:104E5000CEF200014FF080500860BFF34F8FBFF3D8
:104E60006F8F00E0FFE700E0FFE702B080BD0000C9
:104E700080B584B000F0F4FF42F24C70C2F2000042
:104E80000068002840D1FFE742F25860C2F20000FB
:104E9000029000F071FF42F26C60C2F200000390D9
:104EA00000F06AFF0299039840F6E052C2F2000255
:104EB000116040F6F051C2F200010860694600201E
:104EC000086040F6E842C2F2000240F68853C2F29F
:104ED00000030A20102101F055FB014642F24C70FC
:104EE000C2F200000160006860B1FFE742F24C705E
:104EF000C2F20000006847F64921C0F6000101F047
:104F0000C5F800E0FFE700E0FFE700F0D5FF04B0E0
:104F100080BD000080B582B0FFE742F24460C2F27B
:104F20000000006808B3FFE700F09AFF42F2347017
:104F3000C2F20000C068C06801900198043000F01F
:104F4000CBFE42F24061C2F20001086801380860FD
:104F500042F24461C2F2000108680138086000F0C2
:104F6000ABFF019800F08CF8D7E702B080BD0000DD
:104F700080B582B0019000910198006CB8B1FFE754
:104F80000199C8680A6C1044C86001984168C068FB
:104F9000884204D3FFE701990868C86000E0FFE792
:104FA0000098019AD168126CFBF7F4F9FFE702B0A0
:104FB00080BD000080B586B005900491039200206A
:104FC00002900598806B01900598006C78B9FFE716
:104FD0000598006848B9FFE70598406802F082F834
:104FE000029005990020486000E0FFE741E0039847
:104FF000B8B9FFE7059A04999068126CFBF7CAF9F3
:10500000059988680A6C1044886005984168806832
:10501000884204D3FFE705990868886000E0FFE74D
:1050200026E0059A0499D068126CFBF7B3F905994C
:10503000C8680A6C801AC86005980168C068884210
:1050400006D2FFE7059948680A6C801AC86000E03C
:10505000FFE70398022809D1FFE7019820B1FFE795
:1050600001980138019000E0FFE700E0FFE7FFE76B
:10507000FFE70198013005998863029806B080BD6A
:1050800080B582B00090009890F8810040B9FFE7A9
:105090000098006B00F036FF009800F033FF1CE032
:1050A000009890F88100012804D1FFE7009800F0F3
:1050B00029FF11E0009890F8810002280BD0FFE74B
:1050C0004FF0500080F31188BFF36F8FBFF34F8F05
:1050D0000190FFE7FEE7FFE7FFE702B080BD0000B9
:1050E00082B0019040F6E050C2F200000068006813
:1050F000B0FA80F04009019908600198006848B949
:10510000FFE740F6E050C2F200000068C0680068A7
:10511000009002E000200090FFE7009802B0704786
:1051200084B04FF48050009041F22C60C2F2000035
:1051300001909DF80400400788B1FFE7019807300F
:105140000190019820F007000190019A41F22C6132
:10515000C2F200010098891A08440090FFE7019804
:105160000290029942F21870C2F200000160002120
:1051700041600298009A104401900198083801900B
:10518000019820F007000190019A40F6E850C2F221
:105190000000026002685160026811600299039188
:1051A0000199039A891A516000680399086003986D
:1051B000406842F2B461C2F200010860039840689E
:1051C00042F2AC61C2F20001086042F28061C2F2B8
:1051D00000014FF00040086004B0704780B582B015
:1051E0000190FFE7FFF796FE40F6F450C2F2000090
:1051F000006802280CD3FFE74EF60451CEF20001FE
:105200004FF080500860BFF34F8FBFF36F8F00E007
:10521000FFE7E7E780B584B0DDF818C0039002919E
:1052200001928DF80330029818B9FFE706980060E4
:1052300003E0019806990860FFE703980699C863A0
:105240000298069908640698012101F021FA9DF858
:105250000300069981F84C0004B080BD80B588B089
:10526000DDF834C0DDF830C0DDF82CC0DDF828C032
:1052700006900591049203930C98006B04998900A1
:10528000A522FBF7FEF80C98006B049900EB810057
:1052900004380290029820F0070002909DF8080060
:1052A000400758B1FFE74FF0500080F31188BFF37B
:1052B0006F8FBFF34F8F0790FFE7FEE7002001904D
:1052C000FFE70198312813D8FFE70598019A805C21
:1052D0000C99114481F8340005980199405C08B993
:1052E000FFE705E0FFE7FFE7019801300190E8E7FD
:1052F0000C99002081F865000A98382803D3FFE74D
:1053000037200A9000E0FFE70A980C99C8620A98D3
:105310000C9908670C990020009048670C9804309D
:1053200000F042FD0C98183000F03EFD00980C99FA
:1053300009610A99C1F138010C9A91610C9949628D
:105340000C9988670C99C8670C9981F880000298BD
:105350000699039A00F098FC0C9908600B9820B10C
:10536000FFE70C980B99086000E0FFE708B080BDEC
:1053700080B584B000200390FFE70398372810D849
:10538000FFE7039800EB800140F6F450C2F2000002
:1053900000EB810000F0F0FCFFE703980130039080
:1053A000EBE742F28460C2F20000019000F0E4FCFE
:1053B00042F29860C2F20000029000F0DDFC42F27E
:1053C000C060C2F2000000F0D7FC42F23470C2F2BA
:1053D000000000F0D1FC42F22070C2F2000000F0A8
:1053E000CBFC0199029840F6E452C2F2000211602F
:1053F00040F6EC51C2F20001086004B080BD00002C
:1054000083B0029042F21870C2F200000190FFE7F0
:10541000019800680299884205D2FFE7FFE70198EA
:1054200000680190F4E7019800900098019949689C
:1054300008440299884209D1FFE70298426801991D
:105440004868104448600198029000E0FFE7029825
:1054500000900098029949680844019909688842B7
:1054600020D1FFE70198006840F6E851C2F2000140
:10547000096888420DD0FFE70198006842680299E8
:105480004868104448600198006800680299086004
:1054900007E040F6E850C2F2000000680299086098
:1054A000FFE704E00198006802990860FFE70198AF
:1054B0000299884204D0FFE702980199086000E051
:1054C000FFE703B07047000080B586B005900491F7
:1054D0000392029300200190049805994860059872
:1054E000006104980399884216D8FFE7039802994F
:1054F000401A05998969884203D3FFE7012001908A
:1055000009E040F6F050C2F200000068059904314D
:1055100000F052FCFFE717E003980299884208D296
:10552000FFE704980299884203D3FFE70120019026
:1055300009E040F6E050C2F200000068059904312D
:1055400000F03AFCFFE7FFE7019806B080BD0000DD
:1055500080B582B0019000F083FC0198806B18B98F
:10556000FFE70120009002E000200090FFE700F03C
:10557000A3FC009802B080BD80B582B0019000F01D
:105580006FFC0198806B0199C96B884203D1FFE7DA
:105590000120009002E000200090FFE700F08CFC6A
:1055A000009802B080BD000006480068006880F3E3
:1055B000088862B661B6BFF34F8FBFF36F8F00DF0D
:1055C00000BF000008ED00E080B586B004900391B4
:1055D00040F6E050C2F200000068C068C068019068
:1055E0000198043000F078FB0198C069012823D1AC
:1055F000FFE70198049B81691944039AFFF764FF50
:10560000C0B1FFE70198049A694600230B60194670
:1056100001F054FF0290029858B9FFE74FF0500094
:1056200080F31188BFF36F8FBFF34F8F0590FFE7B3
:10563000FEE700E0FFE700E0FFE70198416A8847E6
:1056400006B080BD80B58EB0FFE742F24C70C2F26A
:105650000000006807A9002201F032FA002800F0DB
:105660009780FFE70798B0F1FF3F17DCFFE707A837
:1056700004300290029858B9FFE74FF0500080F3D1
:105680001188BFF36F8FBFF34F8F0D90FFE7FEE7D9
:1056900002990A6848688968904700E0FFE7079820
:1056A000002800F17480FFE7099806900698406989
:1056B00028B1FFE70698043000F00EFB00E0FFE79A
:1056C00005A800F0D9F803900798019009285CD844
:1056D0000199DFE801F005050534354F050534353E
:1056E0000698089B81691944039AFFF7EDFE20B3E1
:1056F000FFE70698416A88470698C06901281AD1D1
:10570000FFE70698089982690A44694600230B60FE
:10571000194601F0D3FE0490049858B9FFE74FF002
:10572000500080F31188BFF36F8FBFF34F8F0C9041
:10573000FFE7FEE700E0FFE700E0FFE726E025E007
:105740000898069988610698806958B9FFE74FF074
:10575000500080F31188BFF36F8FBFF34F8F0B9012
:10576000FFE7FEE70698039B816919441A46FFF795
:10577000ABFE0BE0069890F82C0020B9FFE70698E6
:1057800000F0C0FB00E0FFE700E0FFE7FFE75CE7B9
:105790000EB080BD80B584B00390029100F0E2FDB0
:1057A000684600F069F801900098D8BBFFE70298BE
:1057B00060B9FFE703980199884207D8FFE701F035
:1057C0006FFD03980199FFF7FFFE2AE0029858B198
:1057D000FFE740F6F050C2F2000000680068B0FA3F
:1057E00080F040090290FFE742F24C70C2F20000E4
:1057F00000680399019A891A029A00F071FC01F07D
:105800004FFD60B9FFE74EF60451CEF200014FF0B4
:1058100080500860BFF34F8FBFF36F8F00E0FFE74A
:10582000FFE702E001F03CFDFFE704B080BD0000AF
:1058300081B040F6E450C2F200000068006840B950
:10584000FFE742F2B861C2F200014FF0FF3008609A
:105850000FE040F6E450C2F200000068C068C06883
:1058600000900098406842F2B861C2F200010860FE
:10587000FFE701B07047000080B582B0019001F0F1
:1058800045FB0090009840F6D851C2F2000109682B
:10589000884206D2FFE700F011F801990120086064
:1058A00003E0019900200860FFE7009840F6D85116
:1058B000C2F200010860009802B080BD80B588B0D7
:1058C000FFE740F6E050C2F20000006800680028E0
:1058D0004CD0FFE740F6E050C2F200000168C96812
:1058E000096806910068C068C06803900398043096
:1058F00000F0F2F90398416A88470398C0690128CB
:1059000032D1FFE706980399896908440590059804
:10591000069988420FD9FFE70598039948600398D4
:10592000006140F6E050C2F20000006803990431C3
:1059300000F042FA17E00398069A694600230B60CC
:10594000194601F0BBFD0290029858B9FFE74FF0ED
:10595000500080F31188BFF36F8FBFF34F8F079014
:10596000FFE7FEE7FFE700E0FFE7AAE740F6E052C7
:10597000C2F200021068049040F6F051C2F2000139
:10598000086810600498086008B080BD83B00020EB
:10599000009040F20C00C2F200000068013058B1E3
:1059A000FFE74FF0500080F31188BFF36F8FBFF314
:1059B0004F8F0290FFE7FEE74FF0500080F3118811
:1059C000BFF36F8FBFF34F8F0190FFE7009808B9C7
:1059D000FFE7FBE703B0704780B584B00390FFE7B3
:1059E00001A8FFF77DFB029002980199FFF7D2FE14
:1059F000FFF728FEF4E7000080B582B0019000F0C8
:105A00002FFA019890F845008DF80300FFE79DF903
:105A10000300012816DBFFE70198406A58B1FFE751
:105A20000198243001F0D4FB18B1FFE700F0D4FB5B
:105A300000E0FFE700E005E09DF8030001388DF885
:105A40000300E4E70199FF2081F8450000F034FAF3
:105A500000F006FA019890F844008DF80200FFE784
:105A60009DF90200012816DBFFE70198006980B16B
:105A7000FFE70198103001F0ABFB18B1FFE700F031
:105A8000ABFB00E0FFE79DF8020001388DF8020053
:105A900000E000E0E4E70199FF2081F8440000F015
:105AA0000BFA02B080BD000080B58AB006900020DD
:105AB000029000F057FC40F6E850C2F20000006887
:105AC00018B9FFE7FFF72CFB00E0FFE7069842F26A
:105AD0008061C2F200010968084240F0BE80FFE721
